:100000000C9477010C949F010C949F010C949F0118
:100010000C949F010C949F010C949F010C949F01E0
:100020000C949F010C949F010C94D70E0C94A50D79
:100030000C949F010C949F010C949F010C949F01C0
:100040000C949F010C949F010C949F010C949F01B0
:100050000C949F010C949F010C949F010C94B60A80
:100060000C949F010C949F010C949F010C949F0190
:100070000C949F010C949F010C949F010C949F0180
:100080000C949F010C949F010C949F010C949F0170
:100090000C946E080C949F010C949F010C949F018A
:1000A0000C949F010C949F010C949F01070605047A
:1000B0000100080A0B0C0D090000000200080E00E8
:1000C00000030401000B000000000000000000001D
:1000D00000000000000004080201104080401020D1
:1000E00040804080080204018040201002011080FE
:1000F0001020404004040404040304050202020228
:1001000004030202020206060606060604040202B0
:100110000204000000002300260029002C002F000C
:1001200000000000250028002B002E0031000000F8
:100130000000240027002A002D00300000C180812B
:10014000C11201000202000040412336800001017B
:10015000020001120100020000004041233680002D
:10016000010102000118034100720064007500697A
:10017000006E006F0020004C004C00430022034141
:100180000072006400750069006E006F0020004C72
:100190000065006F006E006100720064006F000473
:1001A000030904080B000202020100090400000117
:1001B00002020000052400100105240101010424AD
:1001C000020605240600010705810310004009040A
:1001D0000100020A000000070502024000000705B6
:1001E000830240000000000000000000002A2B28CD
:1001F00000000000000000000000000000000000FF
:1002000000000000002C9EB4A0A1A2A434A6A7A5C3
:10021000AE362D3738271E1F20212223242526B352
:1002200033B62EB7B89F8485868788898A8B8C8D54
:100230008E8F909192939495969798999A9B9C9D66
:100240002F3130A3AD350405060708090A0B0C0D44
:100250000E0F101112131415161718191A1B1C1D46
:10026000AFB1B0B50009040200010300000009218C
:10027000010100012265000705840340000105011A
:100280000902A1010901A10085010509190129033C
:1002900015002501950375018102950175058103FE
:1002A00005010930093109381581257F7508950345
:1002B0008106C0C005010906A1018502050719E0F4
:1002C00029E715002501750195088102950175083A
:1002D0008103950675081500256505071900296530
:1002E0008100C000780341085210A0118B03112433
:1002F0001FBECFEFDAE0DEBFCDBF11E0A0E0B1E07E
:10030000E0E2FAE202C005900D92AE34B107D9F7EF
:1003100012E0AEE4B1E001C01D92A73EB107E1F7E3
:1003200012E0CCEED2E004C02297FE010E94AD1391
:10033000C43ED107C9F70E94D80B0C9403150C9446
:10034000000084E991E00E949B0784E991E00E940B
:100350009B0782E090E0909365018093640108958B
:1003600010925501109254011092530110925201B3
:1003700060E070E080E090E00C94FD0320E041E05C
:1003800066E571E08FE991E00E945F06909363015A
:100390008093620124EC39E0281B390B3093510122
:1003A00020935001885C9109893F914148F084E68F
:1003B00090E090935501809354018CE99FEF37C0F2
:1003C000213F31055CF081E090E0909365018093DE
:1003D00064010E94B0018AE590E00EC020318FEFE9
:1003E00038077CF481E090E090936501809364018C
:1003F0000E94B00186EA9FEF90934F0180934E01D7
:100400003CC029323105C4F037FF02C02D5F3F4F99
:1004100035952795359527953195219531092C5995
:100420003F4F309355012093540184E690E0909320
:1004300053018093520121C084E690E090935501CE
:1004400080935401283D4FEF34077CF437FF02C0FE
:100450002D5F3F4F35952795359527952C593F4F63
:10046000309353012093520108C09093530180931D
:10047000520164E670E00E94FD03609152017091A8
:10048000530180915401909155010C94FD03CF9339
:10049000DF9380914E0190914F01E82F492F222741
:1004A0003327281B390B97FF02C0E22F432F6E2FF3
:1004B000742F0E944D13F8ECF69FE001F79FD00DCA
:1004C0001124D0935501C0935401C9016E2F742F8C
:1004D0000E944D13CB01F89FB001F99F700D1124BC
:1004E000882777FD8095982F0E94E01125E83BEE44
:1004F00041E55FE30E946C120E94AD1170935301BD
:1005000060935201CE010E94FD0368EC70E080E030
:1005100090E00E942A0B82E090E090936501809326
:100520006401DF91CF91089588EC90E0909355019C
:10053000809354018CE59FEF909353018093520177
:100540006CE57FEF88EC90E00E94FD0368EC70E0C2
:1005500080E090E00E942A0B84E090E09093650197
:10056000809364010895CF93DF9320E041E066E536
:1005700071E08FE991E00E945F06909363018093A0
:100580006201885C9109893F914130F086E090E0FA
:10059000909365018093640184E690E09093550107
:1005A00080935401C0E0D0E0BE01882777FD80959C
:1005B000982F0E94E0110E94D3120E94AD117093F7
:1005C00053016093520180915401909155010E9412
:1005D000FD0364E670E080E090E00E942A0B219623
:1005E000C431D10509F7DF91CF910895809164015D
:1005F0009091650182309105C9F034F4009761F063
:10060000019709F073C010C084309105D1F1BCF19D
:10061000059709F06BC062C068EE73E080E090E07F
:100620000E942A0B0C94BE010C94470268EE73E002
:1006300080E090E00E942A0B80E991E090935501C0
:100640008093540188E491E0909353018093520188
:1006500068E471E080E991E00E94FD0368E873E1DD
:1006600080E090E00E942A0B0E94B00168EE73E0E7
:1006700080E090E00E942A0B83E090E02AC00C9476
:10068000940268EE73E080E090E00E942A0B80E91B
:1006900091E0909355018093540188E491E0909308
:1006A00053018093520168E471E080E991E00E9477
:1006B000FD0360ED77E080E090E00E942A0B0E944D
:1006C000B00168EE73E080E090E00E942A0B85E0C4
:1006D00090E09093650180936401089568EE73E063
:1006E00080E090E00E942A0B0C94B3020C94B001BD
:1006F0008FE991E00E9433048EE991E00E948F031C
:1007000021E041E06CE084E991E00E94360786E652
:1007100091E00C9417078FE991E00C94F10608958D
:1007200061E08AE00E94E90961E089E00E94E9094C
:1007300061E088E00E94E90961E087E00E94E90940
:1007400080EA8093800081E18093810080E991E0DC
:10075000909387008093860008958091B001811165
:1007600005C081E08093B0010C9490030895CF936D
:10077000DF93EC010E94AD03D7FF05C0D195C19571
:10078000D10981E001C080E0C13991E0D90714F0BE
:10079000C0E9D1E0D0938B00C0938A009091AE0164
:1007A000891711F061E001C060E088E0DF91CF912E
:1007B0000C94210ACF93DF93EC010E94AD03D7FF85
:1007C00005C0D195C195D10981E001C080E0C13952
:1007D00091E0D90714F0C0E9D1E0D0938900C0932B
:1007E00088009091AF01891711F061E001C060E0CD
:1007F00087E0DF91CF910C94210ACF93DF93EB0137
:100800000E94B703CE01DF91CF910C94DA03CF930E
:10081000DF93EC018B858F3F69F061E00E94E9096D
:1008200060E08B850E94210A88EC90E0DF91CF91F7
:100830000C94500BDF91CF910895CF93DF93EC018F
:100840008B858F3F69F061E00E94E90961E08B854B
:100850000E94210A88EC90E0DF91CF910C94500B1C
:10086000DF91CF910895FC011182108213821282D0
:1008700015821482178216821186108608956F924F
:100880007F928F929F92AF92BF92CF92DF92EF9220
:10089000FF920F931F93CF93DF93EC018B01888519
:1008A0009985892BF1F476C0ED2CF12C8C859D85F2
:1008B000F701EE0FFF1FE00FF11F91838083E885A2
:1008C000F985EE0DFF1D61E080810E94210AE88517
:1008D000F985EE0DFF1D61E080810E94E909D39446
:1008E00001C0D12C8A85D816F8F28AE090E00E94E7
:1008F000500BD12C13C0ED2CF12CE885F985EE0DB1
:10090000FF1D60E080810E94E909E885F985EE0D10
:10091000FF1D60E080810E94210AD3948A85D81649
:1009200050F30E94000B6B017C0120C00E94000B61
:100930003B016C187D08912C16C0A92CB12CA88500
:10094000B985AA0DBB1D8C910E94580A892B51F4C0
:10095000F501EE0FFF1FE00FF11F808191816816F6
:100960007906A8F093948A85981638F30E94000BB4
:100970006C197D098E099F092C853D854901A12CA3
:10098000B12C681579058A059B0580F203C0718238
:100990006082E8CFDF91CF911F910F91FF90EF9090
:1009A000DF90CF90BF90AF909F908F907F906F908F
:1009B0000895CF92DF92EF92FF920F931F93CF9300
:1009C000DF93EC018B0188859985892B51F445C013
:1009D000F801E80FF11DE80FF11D118210828F5F01
:1009E00001C080E09A85891798F3C12C1BC0ED2CBB
:1009F000F12CA885B985AE0DBF1D8C910E94810A8E
:100A0000F701EE0FFF1FE00FF11F20813181280F4A
:100A1000391F31832083D39401C0D12C8A85D81605
:100A200030F3C3948F85C816C0F340E013C0F801BB
:100A3000E40FF11DE40FF11D6F8570E0CB0195957A
:100A4000879520813181820F931F0E943913718312
:100A500060834F5F8A85481750F3DF91CF911F91D4
:100A60000F91FF90EF90DF90CF900895DF92EF927B
:100A7000FF920F931F93CF93DF93CDB7DEB7A0976D
:100A80000FB6F894DEBF0FBECDBF8C017B01D42E14
:100A9000842F8150823018F4C8010E941D04D801AF
:100AA0001E968C91B701811110C0C8010E943F04AD
:100AB000C8010E940704B2E0DB123CC0BE016F5FB8
:100AC0007F4FC8010E943F0433C0C8010E94D9046F
:100AD000C8010E940704E2E0DE122CC0BE016F5F75
:100AE0007F4FC8010E94D90423C0842F90E0880F53
:100AF000991FF701E80FF91F21E030E02C0F3D1F8F
:100B0000820F931FD8011C962D913C911D97DC01FB
:100B10008D919C91281B390B80819181820F931FAD
:100B2000918380834F5FF80182854817F0F202C0FD
:100B300040E0F9CFA0960FB6F894DEBF0FBECDBF50
:100B4000DF91CF911F910F91FF90EF90DF9008956B
:100B5000BF92CF92DF92EF92FF920F931F93CF93AA
:100B6000DF93EC018B01B42E82E0481711F04111A4
:100B70000AC08C819D81892B09F497C08E819F8149
:100B8000892B09F492C08B2D8150823050F48881DA
:100B90009981892B09F489C08A819B81892B09F469
:100BA00084C04B2DB801CE010E943605780100E0CB
:100BB00010E0C12CD12C73C0A1E0BA120AC0EA81A6
:100BC000FB81E00FF11F0190F081E02DA881B98138
:100BD0000CC08C819D81B1100DC0EE81FF81E00FB2
:100BE000F11F0190F081E02DDC01A00FB11F8D916C
:100BF0009C9129C0FC01E00FF11F20813181E88127
:100C0000F981E00FF11F408151818C859D8524176A
:100C1000350720F0840F951F821B930BEE81FF8117
:100C2000E00FF11F20813181EA81FB81E00FF11F8C
:100C300040815181EC85FD852417350720F0E40FB4
:100C4000F51FE21BF30BE81BF90BA9F0D7012D915F
:100C50003C9140E050E0281B390B41095109A8EEB6
:100C6000B3E00E9426139F0140E050E00E948313EE
:100C700037FD0AC002C020E030E0293EB3E03B0768
:100C80002CF028EE33E002C020E030E0F7012193A1
:100C900031937F01FFEFCF1ADF0A0E5F1F4F8A8566
:100CA00090E0C816D9060CF487CFDF91CF911F9141
:100CB0000F91FF90EF90DF90CF90BF9008952F920B
:100CC0003F924F925F926F927F928F929F92AF92DC
:100CD000BF92CF92DF92EF92FF920F931F93CF9329
:100CE000DF93EC018B01822E0E94A8052A84E80183
:100CF000412C512C320100E010E0C12CD12C7601A6
:100D0000312C912C68EEA62E63E0B62E26C0988179
:100D100089812296E92FF82F882021F0C5018E1BAA
:100D20009F0BFC01E93CF10524F4E333F10574F079
:100D300002C033243394DF01A30192010E943113D6
:100D4000C60ED71EE81EF91E0E0F1F1F939498EEB5
:100D5000490E93E0591E611C711C9210D8CF3110BE
:100D60001DC0892D90E0019744EF51E0849F9001D0
:100D7000859F300D949F300D11244091B101509109
:100D8000B20142175307BCF028EE33E0829FB00156
:100D9000839F700D929F700D11240FC0980140E049
:100DA00050E0C701B6010E946113B9013093B2014E
:100DB0002093B10102C060E070E0CB01DF91CF91E0
:100DC0001F910F91FF90EF90DF90CF90BF90AF9069
:100DD0009F908F907F906F905F904F903F902F905B
:100DE0000895CF93DF93EC0188859985009711F0E2
:100DF0000E944C148A819B81009711F00E944C1430
:100E00008E819F81009711F00E944C1488819981F6
:100E1000009711F00E944C148C819D81009721F065
:100E2000DF91CF910C944C14DF91CF910895CF9323
:100E3000DF93EC0186E0E1E1F1E0DE015296019002
:100E40000D928A95E1F786E0E7E1F1E0DE011C967C
:100E500001900D928A95E1F784E090E09A8F898F56
:100E60001CA61BA61DA6DF91CF910895FC016083EF
:100E70004183228313821482168215821086178280
:100E800011860895FC018181813011F462E001C076
:100E900060E080810E94E90985E090E00C94500BAD
:100EA000FC012185211104C021E021870C94420717
:100EB0000895CF93DF93EC0188810E94580A21E0C6
:100EC000892B09F020E081E09A81911180E082274E
:100ED000DF91CF910895CF93DF93EC010E945007EB
:100EE000CE010E9459078111FBCF6AE070E080E0DB
:100EF00090E00E942A0BCE010E9459078111F0CF89
:100F0000DF91CF910895CF93DF93EC010E945007BA
:100F1000CE010E9459078823D9F36AE070E080E08F
:100F200090E00E942A0BCE010E945907882381F38A
:100F3000DF91CF910895CF93DF93EC010E94830757
:100F4000CE01DF91CF910C946B072091E20130E04C
:100F50008091E301281B3109C90108958091E301C3
:100F60009091E201891750F4E82FF0E0EC51FE4F28
:100F7000208130E08F5F8093E30102C02FEF3FEFCD
:100F8000C9010895E091E3018091E201E81730F48E
:100F9000F0E0EC51FE4F208130E002C02FEF3FEF38
:100FA000C90108950895CF92DF92EF92FF920F93B7
:100FB0001F93CF93DF937C01CB018A012091BF0166
:100FC000222391F0EB016B01C40ED51E09C069917B
:100FD000D701ED91FC910190F081E02DC7010995B9
:100FE000CC15DD05A1F703C0642F0E944508C80198
:100FF000DF91CF911F910F91FF90EF90DF90CF90F5
:101000000895CF93DF931F92CDB7DEB76983209108
:10101000BF012223D1F02091C001203240F021E015
:1010200030E0FC013383228320E030E015C0809162
:10103000C101E82FF0E0EE53FE4F998190838F5F5E
:101040008093C1018093C00105C061E0CE0101968B
:101050000E94450821E030E0C9010F90DF91CF9157
:101060000895FC011382128248EE53E060E070E0C4
:10107000448355836683778381E291E09183808303
:10108000089583EB91E00C943108613298F420913B
:101090000D02243089F460930602FC018EE292E096
:1010A000DC0102C021912D932A2F281B2617D0F393
:1010B00080E0089581E0089582E0089585ED8093B1
:1010C000BC008091BC0084FDFCCF10920D020895FD
:1010D00085EC8093BC0010920D0208951F920F9230
:1010E0000FB60F9211242F933F934F935F936F93FB
:1010F0007F938F939F93AF93BF93EF93FF938091D1
:10110000B900887F803609F49FC058F5883209F409
:101110005BC090F4803109F452C038F4882309F49C
:10112000F8C0883009F0F9C04AC0883109F44CC0D1
:10113000803209F0F2C05CC0803409F46BC038F42E
:10114000803309F455C0883309F0E7C054C08035B6
:1011500009F454C0883509F462C0883409F0DDC050
:10116000DAC0883909F4CBC0A8F4883709F46CC018
:1011700038F4883609F468C0803709F0CEC064C0FE
:10118000883809F4BCC0803909F464C0803809F09B
:10119000C4C060C0803B09F48AC038F4803A09F4C6
:1011A0006BC0883A09F0B9C082C0803C09F4ABC07A
:1011B000883C09F4A8C0883B09F0AFC08DC080917D
:1011C0000C028093BB0012C090910902809108022A
:1011D000981788F580910902E82FF0E0E25FFD4F53
:1011E00090819093BB008F5F8093090285EC88C04B
:1011F0008093040290C08093040256C0809109023B
:101200009091BB00E82FF0E0E25FFD4F90838F5F8D
:101210008093090290910902809108026DC080912B
:1012200009029091BB00E82FF0E0E25FFD4F908350
:101230008F5F8093090280910B0281116CC081E065
:1012400080930A0284EA60C083E080930D021092CA
:101250000502CCCF80910502803208F050C0809109
:1012600005029091BB00E82FF0E0EE5AFD4F90830D
:101270008F5F80930502BACF80910502803230F4EF
:10128000E0910502F0E0EE5AFD4F10820E945E08E8
:1012900060910502E0914E02F0914F0270E082E50C
:1012A00092E00995109205020E94680836C084E019
:1012B00080930D021092070210920602E0915002F4
:1012C000F0915102099580910602811105C081E0DB
:1012D0008093060210922E0280910702E82FF0E020
:1012E000E25DFD4F90819093BB008F5F809307027A
:1012F0009091070280910602981708F477CF85E84D
:101300008093BC000AC085EC8093BC0010920D0253
:1013100004C0109204020E945E08FF91EF91BF91F9
:10132000AF919F918F917F916F915F914F913F917D
:101330002F910F900FBE0F901F901895883059F184
:1013400060F4823021F120F4813009F041C01CC0EA
:10135000833081F08430E1F511C08B3051F128F4F5
:101360008930E9F08A30A1F51EC08C3031F18E3021
:1013700079F529C0809180008F7703C0809180002B
:101380008F7D80938000089584B58F7702C084B5E7
:101390008F7D84BD0895809190008F7707C08091E4
:1013A00090008F7D03C080919000877F8093900094
:1013B00008958091C0008F7703C08091C0008F7D19
:1013C0008093C00008958091C200877F8093C200FF
:1013D0000895CF93DF9390E0FC01EA52FF4F4491D0
:1013E000FC01EC50FF4F8491882341F190E0880F7D
:1013F000991FFC01E25DFE4F25913491D901805E79
:101400009E4FFC0185919491C82FD92F9FB7F894D6
:101410008C91611106C0409584238C93888184232C
:1014200008C0623041F4242F209582238C93888158
:10143000842B888302C0842B8C939FBFDF91CF9134
:1014400008950F931F93CF93DF931F92CDB7DEB70D
:10145000282F30E0F901E854FF4F8491F901EA5256
:10146000FF4F1491F901EC50FF4F04910023D1F08C
:10147000882321F069830E949E096981E02FF0E0B2
:10148000EE0FFF1FE05EFE4F85919491DC019FB748
:10149000F8948C91611103C01095812301C0812BB8
:1014A0008C939FBF0F90DF91CF911F910F91089563
:1014B000CF93DF93282F30E0F901E854FF4F849158
:1014C000F901EA52FF4FD491F901EC50FF4FC4915A
:1014D000CC2389F081110E949E09EC2FF0E0EE0FE1
:1014E000FF1FEE5EFE4F85919491DC018C918D2360
:1014F00021E030E011F420E030E0C901DF91CF912C
:101500000895823108F08251E82FF0E0E455FF4F52
:10151000E49180917B00E3FB222720F930E095E005
:10152000220F331F9A95E1F78F7D822B80937B00EA
:10153000E7708091060120E4829FC0011124E82B0E
:10154000E0937C0080917A00806480937A0080919F
:101550007A0086FDFCCF2091780030917900932F9E
:1015600080E0AC01422B9A01C90108951F920F92AD
:101570000FB60F9211242F933F938F939F93AF93A6
:10158000BF938091720290917302A0917402B09106
:10159000750230917A02232F2D5F2D3720F40196AA
:1015A000A11DB11D05C0232F2A570296A11DB11DF3
:1015B00020937A028093720290937302A093740234
:1015C000B09375028091760290917702A091780293
:1015D000B09179020196A11DB11D8093760290937E
:1015E0007702A0937802B0937902BF91AF919F9157
:1015F0008F913F912F910F900FBE0F901F901895D4
:101600000F931F939FB7F894009176021091770281
:10161000209178023091790286B5A89B06C08F3F51
:1016200021F00F5F1F4F2F4F3F4F9FBF322F212FB2
:10163000102F0027080F111D211D311D42E0000F42
:10164000111F221F331F4A95D1F7B801C9011F91FD
:101650000F910895CF92DF92EF92FF92CF93DF9395
:101660006B017C010E94000BEB010EC00E94000B7D
:101670006C1B7D0B683E734038F081E0C81AD108BE
:10168000E108F108C851DC4FC114D104E104F104B0
:1016900069F7DF91CF91FF90EF90DF90CF900895A1
:1016A000019739F0880F991F880F991F02970197AA
:1016B000F1F70895789484B5826084BD84B5816023
:1016C00084BD85B5826085BD85B5816085BDEEE64A
:1016D000F0E0808181608083E1E8F0E01082808129
:1016E00082608083808181608083E0E8F0E0808197
:1016F00081608083E1E9F0E0808182608083808185
:1017000081608083E0E9F0E0808181608083E1ECAA
:10171000F0E080818460808380818260808380812A
:1017200081608083E3ECF0E0808181608083E0EC85
:10173000F0E0808182608083E2ECF0E08081816073
:101740008083EAE7F0E0808184608083808182602A
:101750008083808181608083808180688083089518
:10176000CF92DF92EF92FF920F931F93CF93DF936D
:101770006C01EB017A01E60EF71E00E010E00BC0F1
:101780006991D601ED91FC910190F081E02DC601A7
:101790000995080F191FCE15DF0591F7C801DF91D4
:1017A000CF911F910F91FF90EF90DF90CF90089510
:1017B0000E945A0B8BE792E00E94360F0E94A10113
:1017C000C0E0D0E00E94F6022097E1F30E94000002
:1017D000F9CF05C02091F100FC012193CF016150A8
:1017E000C8F7289884E68093820208952FB7FC01F9
:1017F0002083F89467706093E9000895CF93DF9396
:101800001F92CDB7DEB7682FCE0101960E94F60B6E
:101810008091F20099819FBF0F90DF91CF91089541
:10182000FF920F931F93CF93DF9300D0CDB7DEB716
:10183000F62E8A01909181029923A9F057FF16C0D4
:1018400012C02898809382029091F1009193FE1229
:10185000F8CF4115510521F08091F2008823D1F095
:1018600089818FBF1BC04FEF5FEF18C0682FCE017B
:1018700001967A830E94F60B8091F20090E0A80115
:101880007A81801791070CF4AC01EF2DF72FF40E3D
:1018900084E6DDCF8BE68093E800E2CFCA010F90AB
:1018A0000F90DF91CF911F910F91FF900895CF93EB
:1018B000DF931F92CDB7DEB741E050E0BE016F5F0E
:1018C0007F4F0E94100C019719F4298130E002C06B
:1018D0002FEF3FEFC9010F90DF91CF910895CF9384
:1018E000DF931F92CDB7DEB7682FCE0101960E941D
:1018F000F60B8091E80085FF05C09091F20080E42E
:10190000891B01C080E099819FBF0F90DF91CF912B
:1019100008956F927F928F929F92AF92BF92CF92D3
:10192000DF92EF92FF920F931F93CF93DF931F925B
:10193000CDB7DEB7782EC42EB52E809181028111ED
:101940004CC02FEF3FEF64C0872D0E946F0C682EB4
:10195000811109C0DA94A9F361E070E080E090E0C1
:101960000E942A0B47C0282F30E0021713070CF4FF
:10197000602E06191109672DCE0101960E94F60B03
:10198000992041F002C01092F1006A948FEF681222
:10199000FACF17C0862D77FC02C0F7010EC0970161
:1019A00006C0F9012F5F3F4FE491E093F1008150B1
:1019B000C0F705C091919093F1008150D8F7E60CE3
:1019C000F11C8091E80085FF20C00115110511F47C
:1019D00081101BC089818FBF0DC07B01042F152F83
:1019E0008AEFD82E90E2992E97202AE3A22E30E497
:1019F000832E87200115110509F0A6CF5D9884E696
:101A0000809383022C2D3B2D03C0A092E800E2CFEF
:101A1000C9010F90DF91CF911F910F91FF90EF902F
:101A2000DF90CF90BF90AF909F908F907F906F90FE
:101A300008951092E9001092800210927F02909314
:101A40007E0280937D020895FF920F931F93CF93A0
:101A5000DF93C42FD52FDB0160E070E0EEEFFE2EA8
:101A600038C09D012F5F3F4F87FF04C0FD01D901A2
:101A7000E49102C0EC91D90100917F0210918002A3
:101A800020917D0230917E0202171307B4F49091E9
:101A9000E8009570E1F39091E80092FD1FC0E0939B
:101AA000F10020917F02309180022F5F3F4F2F7312
:101AB0003327232B11F4F092E80020917F0230911C
:101AC00080022F5F3F4F3093800220937F026F5F31
:101AD0007F4F6C177D0729F69A0102C02FEF3FEF69
:101AE000C901DF91CF911F910F91FF9008951F932E
:101AF000CF93DF931F92CDB7DEB7162F2091E8006A
:101B000022FFFCCF612F79830E94E90B8BEF80933A
:101B1000E800812F7981972F0F90DF91CF911F914E
:101B20000895CF93DF931F92CDB7DEB71982CE0110
:101B300001960E94F00FCE0101960E9488108981C3
:101B400090E00F90DF91CF9108951F920F920FB602
:101B50000F921124EF92FF920F931F932F933F93B5
:101B60004F935F936F937F938F939F93AF93BF93A5
:101B7000EF93FF93CF93DF93CDB7DEB76297DEBFCE
:101B8000CDBF1092E9008091E80083FFE9C068E0D2
:101B9000CE010A960E94E90B82EF8093E8009A85B5
:101BA00097FF05C08091E80080FFFCCF03C08EEF57
:101BB0008093E800892F807609F0B7C08B8581116A
:101BC00005C01092F1001092F100C3C0813009F4F9
:101BD000C0C0833009F4BDC0853049F48091E8006D
:101BE00080FFFCCF8C8580688093E300B2C0863094
:101BF00009F073C02D85E888F988223071F580E0FE
:101C000090E02A8B0E94190D0E94910D99E08E019F
:101C10000F5F1F4FF801392F11923A95E9F7998319
:101C20002A892A8391E09E8390E898879AEF998782
:101C300020917F0230918002275F3F4F3C832B83AE
:101C40008D83C7010E94190D49E050E0B80180E082
:101C50000E94240D0E94910D7CC0C7012A8B0E9416
:101C6000190D2A89223241F482E290E00E949310F9
:101C7000892B09F06EC071C0213071F4888999896F
:101C8000089719F481E080937C0280917C0288237C
:101C900089F061E471E016C0233009F05EC08C85E4
:101CA000882359F0823061F0813009F056C065E632
:101CB00071E008C063E571E005C06FE971E002C042
:101CC0006DE771E06115710509F447C0FB014491AE
:101CD00050E080E80E94240D3CC0873009F43DC0EC
:101CE000883021F481E08093F10033C0893089F598
:101CF000937099F5EDE3F1E081E021E096E38093C4
:101D0000E9002093EB0034913093EC009093ED00C8
:101D10008F5F3196853099F78EE78093EA001092B5
:101D2000EA008C858093810214C0888999890E9479
:101D3000190D8E85811105C0CE010A960E94FB0FF8
:101D400006C0823051F4CE010A960E94BB1088234F
:101D500021F08EEF8093E80003C081E28093EB00D6
:101D600062960FB6F894DEBF0FBECDBFDF91CF9164
:101D7000FF91EF91BF91AF919F918F917F916F9163
:101D80005F914F913F912F911F910F91FF90EF9095
:101D90000F900FBE0F901F9018958093E9008091CF
:101DA000F200882319F08AE38093E80008951F92D7
:101DB0000F920FB60F9211242F933F934F935F937F
:101DC0006F937F938F939F93AF93BF93EF93FF9303
:101DD0008091E1001092E10083FF0FC01092E900B2
:101DE00091E09093EB001092EC0092E39093ED0061
:101DF0001092810298E09093F00082FF26C083E069
:101E00000E94CD0E82E00E94FE0B882321F084E820
:101E100092E00E94CA0F80918302882339F080915A
:101E20008302815080938302882361F08091820233
:101E3000882359F080918202815080938202882306
:101E400019F003C05D9AF2CF289AFF91EF91BF91EC
:101E5000AF919F918F917F916F915F914F913F9142
:101E60002F910F900FBE0F901F9018951092810226
:101E700081E08093D70080EA8093D80082E189BD19
:101E800009B400FEFDCF61E070E080E090E00E94C8
:101E90002A0B80E98093D8008CE08093E2001092B6
:101EA000E000559A209A08952091D2023091D302F1
:101EB0008091D4029091D502281B390B2F733327C0
:101EC000C90108952091D2023091D3028091D402A9
:101ED0009091D5022817390749F0E091D402F0918A
:101EE000D502EE56FD4F208130E002C02FEF3FEFCC
:101EF000C90108952091D2023091D3028091D40279
:101F00009091D50228173907B1F0E091D402F091F1
:101F1000D502EE56FD4F80812091D4023091D5023A
:101F20002F5F3F4F2F7333273093D5022093D40276
:101F3000282F30E002C02FEF3FEFC90108950F9323
:101F40001F93CF93DF931F92CDB7DEB78C016983C8
:101F500080910E01882369F041E050E0BE016F5F7F
:101F60007F4F83E00E94890C1816190614F49C0117
:101F700007C081E090E0F8019383828320E030E0A5
:101F8000C9010F90DF91CF911F910F91089583E0C8
:101F90000C94CD0ECF93DF9312C082E00E94570CB9
:101FA0008F3F2FEF9207C9F0E091D202F091D30258
:101FB000EE56FD4F8083D093D302C093D202C091DE
:101FC000D202D091D3022196CF73DD278091D40223
:101FD0009091D502C817D90701F7DF91CF910895E5
:101FE000FC0120812E5F208342E450E063EA71E02F
:101FF00080E80C94240DFC0181819081913A59F480
:10200000813209F04BC047E050E067E071E080E0CA
:102010000E94240D45C0913209F040C0803239F44D
:1020200067E070E087E091E00E94770D39C082326E
:1020300009F034C0828180930E0180910701909154
:102040000801A0910901B0910A01803B9440A105CB
:10205000B10531F580910E0180FD12C087E797E749
:1020600090930108809300082BE088E190E00FB680
:10207000F894A895809360000FBE2093600010C074
:1020800088E10FB6F89480936000109260000FBE54
:10209000A895109201081092000802C080E00895EF
:1020A00081E00895109287021092860288EE93E0F4
:1020B000A0E0B0E08093880290938902A0938A0206
:1020C000B0938B0281E391E0909385028093840228
:1020D0000895FF920F931F93CF93DF93EC01F62E99
:1020E000E881F9810480F581E02D09958C01E88172
:1020F000F9810680F781E02D6F2DCE0109959801B9
:102100003327C901DF91CF911F910F91FF9008955F
:10211000FC0120812F5F208349E150E065E672E0F9
:1021200080E80C94240D45E650E06EE772E080E80C
:102130000C94240DEF92FF920F931F93CF93DF9394
:102140001F92CDB7DEB789838B017A0141E050E061
:10215000BE016F5F7F4F84E00E94890CA701B80128
:1021600084E40E94890C0F90DF91CF911F910F9111
:10217000FF90EF900895FC0191818081813A31F4C4
:1021800081E0913091F0933091F010C0813271F480
:102190009B3021F482818093100105C09A3031F484
:1021A000828180930F0181E00895089580E0089571
:1021B00048E050E082E00C949A10FC0116821782ED
:1021C00010861186128613861482BC016C5F7F4FC5
:1021D0000C94D810E62F683810F0E85824C0F0E0CE
:1021E00067FF12C0E058F10921E030E001C0220F82
:1021F000EA95EAF72095DC0114963C911497322376
:1022000014963C93E0E00FC0EB51FE4FE491EE23B7
:1022100029F1E7FF08C0DC0114962C9114972D7F5B
:1022200014962C93EF7720E030E0EE2351F0DC01A0
:10223000A20FB31F16964C9116974E1302C0169616
:102240001C922F5F3F4F2630310579F7BC016C5F40
:102250007F4F0E94D81021E030E002C020E030E043
:10226000C9010895CF93DF93DC01E62F683810F0A1
:10227000E85824C0F0E067FF11C0E058F10981E0A0
:1022800090E001C0880FEA95EAF714969C911497A4
:10229000982B14969C931497E0E010C0EB51FE4FDE
:1022A000E491E11101C040C0E7FF08C014968C9191
:1022B0001497826014968C931497EF7716968C91EE
:1022C00016978E1741F117968C9117978E1719F163
:1022D00018968C9118978E17F1F019968C91199782
:1022E0008E17C9F01A968C911A978E17A1F01B962B
:1022F0008C911B978E1779F080E090E0ED01C80F6C
:10230000D91F2E81211102C0EE8305C001968630AF
:102310009105A1F709C0BD016C5F7F4FCD010E94FF
:10232000D81021E030E008C081E090E013969C9343
:102330008E93129720E030E0C901DF91CF9108958C
:102340001092E2021092D9021092D80283E491E036
:102350009093D7028093D602089504D06894B11167
:10236000B5C0089598D088F09F5790F0B92F99275D
:10237000B751A0F0D1F0660F771F881F991F1AF090
:10238000BA95C9F712C0B13081F09FD0B1E008957D
:102390009CC0672F782F8827B85F39F0B93FCCF3FE
:1023A000869577956795B395D9F73EF49095809586
:1023B000709561957F4F8F4F9F4F0895E89409C0A6
:1023C00097FB3EF490958095709561957F4F8F4F68
:1023D0009F4F9923A9F0F92F96E9BB279395F6957E
:1023E000879577956795B795F111F8CFFAF4BB0FFC
:1023F00011F460FF1BC06F5F7F4F8F4F9F4F16C060
:10240000882311F096E911C0772321F09EE8872FE9
:10241000762F05C0662371F096E8862F70E060E0A5
:102420002AF09A95660F771F881FDAF7880F96951E
:10243000879597F9089597F99F6780E870E060E0C5
:1024400008959FEF80EC089500240A94161617064D
:1024500018060906089500240A9412161306140695
:1024600005060895092E0394000C11F4882352F0F8
:10247000BB0F40F4BF2B11F460FF04C06F5F7F4FB0
:102480008F4F9F4F089557FD9058440F551F59F097
:102490005F3F71F04795880F97FB991F61F09F3F51
:1024A00079F087950895121613061406551FF2CF7A
:1024B0004695F1DF08C0161617061806991FF1CFCA
:1024C00086957105610508940895E894BB276627F1
:1024D0007727CB0197F908950BD0C4CFB5DF28F04B
:1024E000BADF18F0952309F0A6CFABCF1124EECFB9
:1024F000CADFA0F3959FD1F3950F50E0551F629F5F
:10250000F001729FBB27F00DB11D639FAA27F00D4C
:10251000B11DAA1F649F6627B00DA11D661F829F73
:102520002227B00DA11D621F739FB00DA11D621F58
:10253000839FA00D611D221F749F3327A00D611D75
:10254000231F849F600D211D822F762F6A2F112457
:102550009F5750408AF0E1F088234AF0EE0FFF1FAA
:10256000BB1F661F771F881F91505040A9F79E3FE1
:10257000510570F060CFAACF5F3FECF3983EDCF3DB
:10258000869577956795B795F795E7959F5FC1F71E
:10259000FE2B880F911D9695879597F9089511F454
:1025A0000EF44FCF3EC077DFD0F39923D9F3CEF3AB
:1025B0009F57550B87FF43D00024A0E640EA9001C7
:1025C00080585695979528F4805C660F771F881F72
:1025D00020F026173707480730F4621B730B840B73
:1025E000202931294A2BA6951794079420253125B7
:1025F0004A2758F7660F771F881F20F026173707DE
:10260000480730F4620B730B840B200D311D411D04
:10261000A09581F7B901842F9158880F96958795D9
:1026200008959F3F31F0915020F4879577956795F5
:10263000B795880F911D9695879597F908959150B4
:102640005040660F771F881FD2F708950E949F138E
:10265000A59F900DB49F900DA49F800D911D1124F6
:102660000895B7FF0C9426130E942613821B930B28
:102670000895AA1BBB1B51E107C0AA1FBB1FA617C9
:10268000B70710F0A61BB70B881F991F5A95A9F71B
:1026900080959095BC01CD01089597FB072E16F407
:1026A000009407D077FD09D00E94391307FC05D0AC
:1026B0003EF4909581959F4F0895709561957F4F59
:1026C0000895A1E21A2EAA1BBB1BFD010DC0AA1F73
:1026D000BB1FEE1FFF1FA217B307E407F50720F08B
:1026E000A21BB30BE40BF50B661F771F881F991F06
:1026F0001A9469F760957095809590959B01AC014F
:10270000BD01CF010895052E97FB16F4009407D064
:1027100057FD0DD00E94611307FC09D07EF49095FF
:102720008095709561957F4F8F4F9F4F089550957D
:102730004095309521953F4F4F4F5F4F0895A29F91
:10274000B001B39FC001A39F01D0B29F700D811D46
:102750001124911D0895EE0FFF1F0590F491E02DB7
:1027600009940F931F93CF93DF938230910510F458
:1027700082E090E0E091E502F091E60220E030E0B6
:10278000C0E0D0E023C04081518148175907A8F02C
:102790004817590761F482819381209719F09B8330
:1027A0008A832EC09093E6028093E50229C021150A
:1027B000310529F04217530710F0A90102C0BE01EC
:1027C000DF0102811381EF019A01F8013097D9F6F8
:1027D0002115310509F1281B390B2430310590F4FE
:1027E00012968D919C9113976115710521F0FB0153
:1027F0009383828304C09093E6028093E502FD01F7
:10280000329644C0FD01E20FF31F81939193225051
:1028100031092D933C933AC02091E3023091E402B8
:10282000232B41F420910201309103013093E40203
:102830002093E3022091000130910101211531051F
:1028400041F42DB73EB74091040150910501241B7E
:10285000350BE091E302F091E402E217F307A0F4F4
:102860002E1B3F0B2817390778F0AC014E5F5F4FE6
:102870002417350748F04E0F5F1F5093E402409332
:10288000E3028193919302C0E0E0F0E0CF01DF9199
:10289000CF911F910F910895EF92FF920F931F9385
:1028A000CF93DF93009709F48EC0DC011297139643
:1028B0001C921E921297E090E502F090E602E1145D
:1028C000F10489F42D913C911197280F391F8091C3
:1028D000E3029091E4028217930789F5B093E40232
:1028E000A093E30270C0E70120E030E001C0EA01FC
:1028F000CA17DB0738F44A815B819E0141155105F7
:10290000B1F722C0AC0142505109FA01D383C2830E
:1029100000811181BC01600F711F6C177D0761F48C
:1029200068817981600F711F6E5F7F4F7183608353
:102930006A817B81738362832115310529F4B09309
:10294000E602A093E5023FC0F901B383A283E90147
:1029500049915991C40FD51FAC17BD0771F4DC0123
:102960009E918E91840F951F02969183808312967B
:102970008D919C91139793838283A0E0B0E002C075
:10298000D7017C01F701828193810097C9F7C701C4
:10299000029620813181820F931F2091E3023091B2
:1029A000E4022817390779F4109729F41092E60207
:1029B0001092E50204C013961C921E921297F09298
:1029C000E402E092E302CDB7DEB7E6E00C94F41443
:1029D0002A88398848885F846E847D848C849B84AF
:1029E000AA84B984C884DF80EE80FD800C811B81BD
:1029F000AA81B981CE0FD11D0FB6F894DEBF0FBEEC
:102A0000CDBFED01089512E0CCEED2E004C0FE018E
:102A10000E94AD132296CE3ED107C9F7F894FFCF9E
:102A20000000E70220000100E100000000000001BA
:102A300001018001800180FF7FFF7FFF7F00000098
:102A4000000108D307A507AE07C207D207000000A0
:102A5000009F0FB00B540F7A0F620FC70FCA0F0001
:0E2A60000000006910B00B3211EA10DD10000A
:00000001FF
