:100000000C9468010C9490010C9490010C94900154
:100010000C9490010C9490010C9490010C9490011C
:100020000C9490010C9490010C94FB060C94C9055F
:100030000C9490010C9490010C9490010C949001FC
:100040000C9490010C9490010C9490010C949001EC
:100050000C9490010C9490010C9490010C940C035E
:100060000C9490010C9490010C9490010C949001CC
:100070000C9490010C9490010C9490010C949001BC
:100080000C9490010C9490010C9490010C949001AC
:100090000C9490010C9490010C9490010C9490019C
:1000A0000C9490010C9490010C94900100000002BB
:1000B00000080E0000030401000B00000000000017
:1000C00000000000000000000000040802011040D1
:1000D00080401020408040800802040180402010B1
:1000E00002011080102040400404040404030405AD
:1000F00002020202040302020202060606060606C5
:1001000004040202020400000000250028002B0065
:100110002E00310000000000240027002A002D00DE
:10012000300000C18081C112010002020000404184
:1001300023368000010102000112010002000000CC
:100140004041233680000101020001180341007282
:10015000006400750069006E006F0020004C004CC8
:100160000043002203410072006400750069006EC4
:10017000006F0020004C0065006F006E006100728F
:100180000064006F0004030904080B00020202016E
:10019000000904000001020200000524001001050E
:1001A000240101010424020605240600010705813B
:1001B0000310004009040100020A000000070502C4
:1001C000024000000705830240000000000000001C
:1001D0000000002A2B2800000000000000000000A2
:1001E00000000000000000000000002C9EB4A0A150
:1001F000A2A434A6A7A5AE362D3738271E1F20216E
:100200002223242526B333B62EB7B89F848586874C
:1002100088898A8B8C8D8E8F9091929394959697E6
:1002200098999A9B9C9D2F3130A3AD350405060704
:1002300008090A0B0C0D0E0F1011121314151617C6
:1002400018191A1B1C1DAFB1B0B50009040200013A
:100250000300000009210101000122650007058457
:100260000340000105010902A1010901A100850166
:10027000050919012903150025019503750181025E
:10028000950175058103050109300931093815818A
:10029000257F750895038106C0C005010906A101E7
:1002A0008502050719E029E7150025017501950864
:1002B000810295017508810395067508150025656D
:1002C0000507190029658100C000E0017608EC09E6
:1002D00011241FBECFEFDAE0DEBFCDBF11E0A0E0FA
:1002E000B1E0E2E0F4E102C005900D92AA32B1075C
:1002F000D9F711E0AAE2B1E001C01D92AF39B10710
:10030000E1F712E0C0EDD2E004C02297FE010E94A6
:10031000FB09CA3CD107C9F70E94FC030C94FF09F2
:100320000C94000061E08DE00C949D0261E08DE092
:100330000E94D5028CE291E00E940C0286E990E0D6
:100340000E942F0268E873E180E090E00E94800341
:1003500088EC90E00E940C0288EC90E00E942F0252
:100360006CED75E080E090E00E94800386E990E00B
:100370000E940C028CE291E00E942F0268E873E177
:1003800080E090E00E94800388EC90E00E940C02E4
:1003900088EC90E00E942F026CED75E080E090E028
:1003A0000E94800380E090E00E940C0280E090E0D8
:1003B0000E942F0264EF71E080E090E00C948003D3
:1003C0008AE291E00C94E401089561E08AE00E94E1
:1003D0009D0261E089E00E949D0261E088E00E9448
:1003E0009D0261E087E00E949D0280EA8093800088
:1003F00081E18093810080E991E090938700809370
:100400008600089580912D01811105C081E08093BF
:100410002D010C94E5010895CF93DF93EC010E9428
:100420000202D7FF05C0D195C195D10981E001C075
:1004300080E0C13991E0D90714F0C0E9D1E0D09350
:100440008B00C0938A0090912B01891711F061E015
:1004500001C060E088E0DF91CF910C94D502CF938A
:10046000DF93EC010E940202D7FF05C0D195C19530
:10047000D10981E001C080E0C13991E0D90714F0D1
:10048000C0E9D1E0D0938900C093880090912C01FD
:10049000891711F061E001C060E087E0DF91CF9142
:1004A0000C94D502883059F160F4823021F120F4A7
:1004B000813009F041C01CC0833081F08430E1F507
:1004C00011C08B3051F128F48930E9F08A30A1F560
:1004D0001EC08C3031F18E3079F529C080918000BA
:1004E0008F7703C0809180008F7D80938000089576
:1004F00084B58F7702C084B58F7D84BD08958091C7
:1005000090008F7707C0809190008F7D03C080910D
:100510009000877F8093900008958091C0008F772E
:1005200003C08091C0008F7D8093C00008958091AA
:10053000C200877F8093C2000895CF93DF9390E03D
:10054000FC01E653FF4F4491FC01E851FF4F8491B9
:10055000882341F190E0880F991FFC01EC5EFE4F6B
:1005600025913491D9018A5F9E4FFC018591949128
:10057000C82FD92F9FB7F8948C91611106C0409570
:1005800084238C938881842308C0623041F4242F13
:10059000209582238C938881842B888302C0842BAE
:1005A0008C939FBFDF91CF9108950F931F93CF93AB
:1005B000DF931F92CDB7DEB7282F30E0F901E45565
:1005C000FF4F8491F901E653FF4F1491F901E8516F
:1005D000FF4F04910023D1F0882321F069830E940A
:1005E00052026981E02FF0E0EE0FFF1FEA5FFE4F3D
:1005F00085919491DC019FB7F8948C91611103C0AF
:100600001095812301C0812B8C939FBF0F90DF91A8
:10061000CF911F910F9108951F920F920FB60F92D5
:1006200011242F933F938F939F93AF93BF93809108
:100630002E0190912F01A0913001B09131013091A4
:100640003601232F2D5F2D3720F40196A11DB11DFA
:1006500005C0232F2A570296A11DB11D20933601F4
:1006600080932E0190932F01A0933001B09331011C
:100670008091320190913301A0913401B091350104
:100680000196A11DB11D8093320190933301A09377
:100690003401B0933501BF91AF919F918F913F91FC
:1006A0002F910F900FBE0F901F9018950F931F93CF
:1006B0009FB7F894009132011091330120913401D9
:1006C0003091350186B5A89B06C08F3F21F00F5FA2
:1006D0001F4F2F4F3F4F9FBF322F212F102F00272B
:1006E000080F111D211D311D42E0000F111F221F97
:1006F000331F4A95D1F7B801C9011F910F91089591
:10070000CF92DF92EF92FF92CF93DF936B017C0148
:100710000E945603EB010EC00E9456036C1B7D0B1A
:10072000683E734038F081E0C81AD108E108F1084A
:10073000C851DC4FC114D104E104F10469F7DF9121
:10074000CF91FF90EF90DF90CF900895789484B58B
:10075000826084BD84B5816084BD85B5826085BDBD
:1007600085B5816085BDEEE6F0E0808181608083A3
:10077000E1E8F0E010828081826080838081816086
:100780008083E0E8F0E0808181608083E1E9F0E04F
:10079000808182608083808181608083E0E9F0E0F5
:1007A000808181608083E1ECF0E0808184608083DF
:1007B000808182608083808181608083E3ECF0E0CF
:1007C000808181608083E0ECF0E0808182608083C2
:1007D000E2ECF0E0808181608083EAE7F0E08081F4
:1007E0008460808380818260808380818160808357
:1007F00080818068808308950E94A60387E391E04A
:100800000E945A070E949201C0E0D0E00E94960127
:100810002097E1F30E940000F9CF05C02091F1007C
:10082000FC012193CF016150C8F7289884E680939A
:100830003E0108952FB7FC012083F8946770609300
:10084000E9000895CF93DF931F92CDB7DEB7682FED
:10085000CE0101960E941A048091F20099819FBFF7
:100860000F90DF91CF910895FF920F931F93CF9335
:10087000DF9300D0CDB7DEB7F62E8A0190913D010F
:100880009923A9F057FF16C012C0289880933E0103
:100890009091F1009193FE12F8CF4115510521F08E
:1008A0008091F2008823D1F089818FBF1BC04FEF68
:1008B0005FEF18C0682FCE0101967A830E941A0458
:1008C0008091F20090E0A8017A81801791070CF4E2
:1008D000AC01EF2DF72FF40E84E6DDCF8BE680938D
:1008E000E800E2CFCA010F900F90DF91CF911F91E6
:1008F0000F91FF900895CF93DF931F92CDB7DEB78E
:1009000041E050E0BE016F5F7F4F0E9434040197C9
:1009100019F4298130E002C02FEF3FEFC9010F9099
:10092000DF91CF910895CF93DF931F92CDB7DEB7BC
:10093000682FCE0101960E941A048091E80085FF7D
:1009400005C09091F20080E4891B01C080E099818C
:100950009FBF0F90DF91CF9108956F927F928F92FA
:100960009F92AF92BF92CF92DF92EF92FF920F933E
:100970001F93CF93DF931F92CDB7DEB7782EC42E8F
:10098000B52E80913D0181114CC02FEF3FEF64C027
:10099000872D0E949304682E811109C0DA94A9F36F
:1009A00061E070E080E090E00E94800347C0282F63
:1009B00030E0021713070CF4602E06191109672D99
:1009C000CE0101960E941A04992041F002C01092B3
:1009D000F1006A948FEF6812FACF17C0862D77FC6A
:1009E00002C0F7010EC0970106C0F9012F5F3F4F0B
:1009F000E491E093F1008150C0F705C0919190938C
:100A0000F1008150D8F7E60CF11C8091E80085FFD9
:100A100020C00115110511F481101BC089818FBF01
:100A20000DC07B01042F152F8AEFD82E90E2992E4E
:100A300097202AE3A22E30E4832E8720011511058A
:100A400009F0A6CF5D9884E680933F012C2D3B2DC5
:100A500003C0A092E800E2CFC9010F90DF91CF91CF
:100A60001F910F91FF90EF90DF90CF90BF90AF90CC
:100A70009F908F907F906F9008951092E900109250
:100A80003C0110923B0190933A0180933901089503
:100A9000FF920F931F93CF93DF93C42FD52FDB01CA
:100AA00060E070E0EEEFFE2E38C09D012F5F3F4FFB
:100AB00087FF04C0FD01D901E49102C0EC91D90186
:100AC00000913B0110913C012091390130913A0194
:100AD00002171307B4F49091E8009570E1F3909138
:100AE000E80092FD1FC0E093F10020913B0130919E
:100AF0003C012F5F3F4F2F733327232B11F4F092CC
:100B0000E80020913B0130913C012F5F3F4F309333
:100B10003C0120933B016F5F7F4F6C177D0729F6E7
:100B20009A0102C02FEF3FEFC901DF91CF911F91D2
:100B30000F91FF9008951F93CF93DF931F92CDB72E
:100B4000DEB7162F2091E80022FFFCCF612F7983BA
:100B50000E940D048BEF8093E800812F7981972FFD
:100B60000F90DF91CF911F910895CF93DF931F9244
:100B7000CDB7DEB71982CE0101960E941408CE01CE
:100B800001960E94D408898190E00F90DF91CF9167
:100B900008951F920F920FB60F921124EF92FF92B9
:100BA0000F931F932F933F934F935F936F937F9375
:100BB0008F939F93AF93BF93EF93FF93CF93DF9365
:100BC000CDB7DEB76297DEBFCDBF1092E90080914E
:100BD000E80083FFE9C068E0CE010A960E940D0498
:100BE00082EF8093E8009A8597FF05C08091E80026
:100BF00080FFFCCF03C08EEF8093E800892F8076C2
:100C000009F0B7C08B85811105C01092F1001092D8
:100C1000F100C3C0813009F4C0C0833009F4BDC005
:100C2000853049F48091E80080FFFCCF8C85806896
:100C30008093E300B2C0863009F073C02D85E88848
:100C4000F988223071F580E090E02A8B0E943D0502
:100C50000E94B50599E08E010F5F1F4FF801392FF3
:100C600011923A95E9F799832A892A8391E09E8324
:100C700090E898879AEF998720913B0130913C0149
:100C8000275F3F4F3C832B838D83C7010E943D0527
:100C900049E050E0B80180E00E9448050E94B50597
:100CA0007CC0C7012A8B0E943D052A89223241F46B
:100CB00082E290E00E94DF08892B09F06EC071C0CB
:100CC000213071F488899989089719F481E080931B
:100CD000380180913801882389F067E271E016C0FD
:100CE000233009F05EC08C85882359F0823061F092
:100CF000813009F056C06BE471E008C069E371E02F
:100D000005C065E871E002C063E671E06115710538
:100D100009F447C0FB01449150E080E80E94480577
:100D20003CC0873009F43DC0883021F481E08093D5
:100D3000F10033C0893089F5937099F5E3E2F1E071
:100D400081E021E096E38093E9002093EB00349169
:100D50003093EC009093ED008F5F3196853099F7DA
:100D60008EE78093EA001092EA008C8580933D0123
:100D700014C0888999890E943D058E85811105C01E
:100D8000CE010A960E941F0806C0823051F4CE019F
:100D90000A960E940709882321F08EEF8093E800CD
:100DA00003C081E28093EB0062960FB6F894DEBF39
:100DB0000FBECDBFDF91CF91FF91EF91BF91AF916A
:100DC0009F918F917F916F915F914F913F912F9163
:100DD0001F910F91FF90EF900F900FBE0F901F90FB
:100DE00018958093E9008091F200882319F08AE336
:100DF0008093E80008951F920F920FB60F9211246E
:100E00002F933F934F935F936F937F938F939F9312
:100E1000AF93BF93EF93FF938091E1001092E100B5
:100E200083FF0FC01092E90091E09093EB001092C5
:100E3000EC0092E39093ED0010923D0198E09093C6
:100E4000F00082FF26C083E00E94F10682E00E944B
:100E50002204882321F080E491E00E94EE07809133
:100E60003F01882339F080913F01815080933F01F9
:100E7000882361F080913E01882359F080913E01E2
:100E8000815080933E01882319F003C05D9AF2CF10
:100E9000289AFF91EF91BF91AF919F918F917F9190
:100EA0006F915F914F913F912F910F900FBE0F90D7
:100EB0001F90189510923D0181E08093D70080EA41
:100EC0008093D80082E189BD09B400FEFDCF61E0C6
:100ED00070E080E090E00E94800380E98093D80079
:100EE0008CE08093E2001092E000559A209A0895D9
:100EF00020918E0130918F0180919001909191010C
:100F0000281B390B2F733327C901089520918E01B7
:100F100030918F01809190019091910128173907AC
:100F200049F0E0919001F0919101E25BFE4F208148
:100F300030E002C02FEF3FEFC901089520918E01EC
:100F400030918F018091900190919101281739077C
:100F5000B1F0E0919001F0919101E25BFE4F808150
:100F600020919001309191012F5F3F4F2F733327D4
:100F70003093910120939001282F30E002C02FEF91
:100F80003FEFC90108950F931F93CF93DF931F92F3
:100F9000CDB7DEB78C01698380910701882369F0A2
:100FA00041E050E0BE016F5F7F4F83E00E94AD04DF
:100FB0001816190614F49C0107C081E090E0F801AE
:100FC0009383828320E030E0C9010F90DF91CF91BD
:100FD0001F910F91089583E00C94F106CF93DF9356
:100FE00012C082E00E947B048F3F2FEF9207C9F06E
:100FF000E0918E01F0918F01E25BFE4F8083D093F0
:101000008F01C0938E01C0918E01D0918F012196E6
:10101000CF73DD278091900190919101C817D90776
:1010200001F7DF91CF910895FC0120812E5F20838D
:1010300042E450E069E871E080E80C944805FC0166
:1010400081819081913A59F4813209F04BC047E097
:1010500050E060E071E080E00E94480545C09132B8
:1010600009F040C0803239F467E070E080E091E040
:101070000E949B0539C0823209F034C0828180937E
:1010800007018091000190910101A0910201B091AE
:101090000301803B9440A105B10531F58091070122
:1010A00080FD12C087E797E79093010880930008BE
:1010B0002BE088E190E00FB6F894A895809360004B
:1010C0000FBE2093600010C088E10FB6F8948093A3
:1010D0006000109260000FBEA89510920108109257
:1010E000000802C080E0089581E008951092430155
:1010F0001092420188EE93E0A0E0B0E080934401BA
:1011000090934501A0934601B09347018EE091E092
:1011100090934101809340010895CF92DF92EF9226
:10112000FF920F931F93CF93DF936C01EB017A0132
:10113000E60EF71E00E010E00BC06991D601ED91BC
:10114000FC910190F081E02DC6010995080F191F4F
:10115000CE15DF0591F7C801DF91CF911F910F9157
:10116000FF90EF90DF90CF900895FF920F931F9321
:10117000CF93DF93EC01F62EE881F9810480F581AD
:10118000E02D09958C01E881F9810680F781E02D39
:101190006F2DCE01099598013327C901DF91CF91B9
:1011A0001F910F91FF900895FC0120812F5F2083F4
:1011B00049E150E06BE472E080E80C94480545E6B4
:1011C00050E064E672E080E80C944805EF92FF92EC
:1011D0000F931F93CF93DF931F92CDB7DEB7898311
:1011E0008B017A0141E050E0BE016F5F7F4F84E0E8
:1011F0000E94AD04A701B80184E40E94AD040F90E1
:10120000DF91CF911F910F91FF90EF900895FC0116
:1012100091818081813A31F481E0913091F0933075
:1012200091F010C0813271F49B3021F4828180935F
:10123000090105C09A3031F482818093080181E070
:101240000895089580E0089548E050E082E00C940D
:10125000E608FC0116821782108611861286138614
:101260001482BC016C5F7F4F0C942409E62F683810
:1012700010F0E85824C0F0E067FF12C0E058F10910
:1012800021E030E001C0220FEA95EAF72095DC0169
:1012900014963C911497322314963C93E0E00FC0CF
:1012A000E553FE4FE491EE2329F1E7FF08C0DC018E
:1012B00014962C9114972D7F14962C93EF7720E0A1
:1012C00030E0EE2351F0DC01A20FB31F16964C91D3
:1012D00016974E1302C016961C922F5F3F4F263072
:1012E000310579F7BC016C5F7F4F0E94240921E032
:1012F00030E002C020E030E0C9010895CF93DF93D1
:10130000DC01E62F683810F0E85824C0F0E067FFF1
:1013100011C0E058F10981E090E001C0880FEA9522
:10132000EAF714969C911497982B14969C93149713
:10133000E0E010C0E553FE4FE491E11101C040C070
:10134000E7FF08C014968C911497826014968C93D2
:101350001497EF7716968C9116978E1741F1179682
:101360008C9117978E1719F118968C9118978E17E4
:10137000F1F019968C9119978E17C9F01A968C91E5
:101380001A978E17A1F01B968C911B978E1779F0E8
:1013900080E090E0ED01C80FD91F2E81211102C01D
:1013A000EE8305C0019686309105A1F709C0BD0105
:1013B0006C5F7F4FCD010E94240921E030E008C01E
:1013C00081E090E013969C938E93129720E030E09A
:1013D000C901DF91CF91089510929E01109295015D
:1013E0001092940180E291E0909393018093920196
:1013F0000895EE0FFF1F0590F491E02D0994F894E5
:02140000FFCF1C
:1014020000E1000000000000010100000000C3072D
:101412008D0878079E078607EB07EE07000000009D
:0A142200B5088D087E093609290976
:00000001FF
