:100000000C9477010C949F010C949F010C949F0118
:100010000C949F010C949F010C949F010C949F01E0
:100020000C949F010C949F010C9408120C94D61010
:100030000C949F010C949F010C949F010C949F01C0
:100040000C949F010C949F010C949F010C949F01B0
:100050000C949F010C949F010C949F010C949D0C97
:100060000C949F010C949F010C949F010C949F0190
:100070000C949F010C949F010C949F010C949F0180
:100080000C949F010C949F010C949F010C949F0170
:100090000C94550A0C949F010C949F010C949F01A1
:1000A0000C949F010C949F010C949F01070605047A
:1000B0000100080A0B0C0D090000000200080E00E8
:1000C00000030401000B000000000000000000001D
:1000D00000000000000004080201104080401020D1
:1000E00040804080080204018040201002011080FE
:1000F0001020404004040404040304050202020228
:1001000004030202020206060606060604040202B0
:100110000204000000002300260029002C002F000C
:1001200000000000250028002B002E0031000000F8
:100130000000240027002A002D003000080B0002D8
:10014000020201000904000001020200000524006F
:100150001001052401010104240206052406000102
:100160000705810310004009040100020A00000095
:10017000070502024000000705830240000000C19D
:100180008081C1120100020200004041233680003C
:10019000010102000112010002000000404123366B
:1001A0008000010102000118034100720064007523
:1001B0000069006E006F0020004C004C00430022DC
:1001C00003410072006400750069006E006F00203A
:1001D000004C0065006F006E006100720064006FEB
:1001E000000403090400000000000000002A2B287E
:1001F00000000000000000000000000000000000FF
:1002000000000000002C9EB4A0A1A2A434A6A7A5C3
:10021000AE362D3738271E1F20212223242526B352
:1002200033B62EB7B89F8485868788898A8B8C8D54
:100230008E8F909192939495969798999A9B9C9D66
:100240002F3130A3AD350405060708090A0B0C0D44
:100250000E0F101112131415161718191A1B1C1D46
:10026000AFB1B0B50009040200010300000009218C
:10027000010100012265000705840340000105011A
:100280000902A1010901A10085010509190129033C
:1002900015002501950375018102950175058103FE
:1002A00005010930093109381581257F7508950345
:1002B0008106C0C005010906A1018502050719E0F4
:1002C00029E715002501750195088102950175083A
:1002D0008103950675081500256505071900296530
:1002E0008100C00088030A0ACA0EBC139B031124B4
:1002F0001FBECFEFDAE0DEBFCDBF11E0A0E0B1E07E
:10030000EAEFFBE202C005900D92A835B107D9F7DC
:1003100012E0A8E5B1E001C01D92A93FB107E1F7E5
:1003200012E0CCEED2E004C02297FE010E943C1401
:10033000C43ED107C9F70E94090F0C94F0150C9424
:1003400000000F931F93CF93DF9300D000D000D015
:10035000CDB7DEB786E0E5E1F1E0DE011196019070
:100360000D928A95E1F706E120ED37E046E0BE0107
:100370006F5F7F4F83E891E00E94A90488E791E0D6
:100380000E945A0961E08DE00E94D00B61E08DE08F
:100390000E94080C60E875E28DE892E00E94C90EA8
:1003A00085EC91E00E94000A68EE73E080E090E046
:1003B0000E94110D05EF1FEF0431110520F0C80157
:1003C0008897449728F468EC70E088E39FEF04C0B6
:1003D00068E37FEF88EC90E00E940D0461E083E821
:1003E00091E00E947F0864E170E080E090E00E946C
:1003F000110D0F5F1F4F05341105F1F660E070E03D
:1004000080E090E00E940D0460E08DE00E94080C06
:100410008AE00E94680C0E94970D10926101109270
:10042000600110925D0110925C0110925B011092CC
:100430005A01109259011092580188EC90E0909363
:1004400077018093760190937501809374012696CD
:100450000FB6F894DEBF0FBECDBFDF91CF911F91D5
:100460000F91089520E041E068E671E083E891E0B3
:100470000E94DC06909367018093660120915A01E7
:1004800030915B012130310589F410925B011092AB
:100490005A0110925901109258018AE69FEF9093E9
:1004A00077018093760186E990E017C0209158018A
:1004B0003091590121303105B9F410925B0110924D
:1004C0005A01109259011092580186E990E09093D8
:1004D0007701809376018AE69FEF90937501809370
:1004E00074018BE490E02BC08A3723E192070CF46F
:1004F00074C0809160019091610182309105B9F1E1
:1005000034F4009761F0019709F062C01DC0833098
:10051000910509F441C0049709F05AC0CEC081E0AA
:1005200090E0909361018093600186E990E0909360
:100530007501809374019093770180937601909375
:100540005F0180935E01B9C082E090E09093610109
:10055000809360018AE69FEF909375018093740108
:10056000909377018093760180EA90E0E8CF83E072
:1005700090E0909361018093600162E070E080E020
:1005800090E00E949F0D660F771F61507109709374
:100590006301609362018DC084E090E090936101FB
:1005A00080936001809162019091630146E9489FC8
:1005B0009001499F300D11243093770120937601EB
:1005C0004AE6489F9001499F300D381B112462C0B4
:1005D000109261011092600170C020916801309109
:1005E00069012F3D334058F081E090E090935B012A
:1005F00080935A01109259011092580111C0209114
:100600007201309173012F3D334068F081E090E03A
:10061000909359018093580110925B0110925A01F6
:1006200082E390E08CCF109261011092600124EC83
:1006300039E0281B390B30936501209364012B307E
:100640003105A4F037FF02C02D5F3F4F3595279548
:100650003595279531952195310920573E4F309397
:1006600077012093760180E991E01FC0263F8FEF4C
:100670003807ACF480E991E090937701809376019C
:1006800037FF02C02D5F3F4F35952795359527954C
:1006900020573E4F30937501209374010AC080E9C2
:1006A00091E0909377018093760190937501809308
:1006B000740110925F0110925E016091740170915B
:1006C000750180917601909177010E940D046091EF
:1006D0005E0170915F01882777FD8095982F0E94B9
:1006E000110D88E791E00E942009882381F060E0E5
:1006F00070E080E090E00E940D0468EE73E080E01E
:1007000090E00E94110D88E791E00C945A09089539
:1007100082E991E00E94CC0883E891E00E949D0468
:1007200082E891E00E949F0321E041E06CE088E7CD
:1007300091E00C94EB0883E891E00C94A6080895EE
:1007400061E08AE00E94D00B61E089E00E94D00B5A
:1007500061E088E00E94D00B61E087E00E94D00B4E
:1007600080EA8093800081E18093810080E991E0BC
:10077000909387008093860008958091C201811133
:1007800005C081E08093C2010C94A0030895CF932B
:10079000DF93EC010E94BD03D7FF05C0D195C19541
:1007A000D10981E001C080E0C13991E0D90714F09E
:1007B000C0E9D1E0D0938B00C0938A009091C00132
:1007C000891711F061E001C060E088E0DF91CF910E
:1007D0000C94080CCF93DF93EC010E94BD03D7FF6C
:1007E00005C0D195C195D10981E001C080E0C13932
:1007F00091E0D90714F0C0E9D1E0D0938900C0930B
:1008000088009091C101891711F061E001C060E09A
:1008100087E0DF91CF910C94080CCF93DF93EB012D
:100820000E94C703CE01DF91CF910C94EA03CF92CF
:10083000DF92EF92FF920F93CF93DF931F92CDB78A
:10084000DEB76C017B01DC0111961C921E9213969F
:100850001C921E92129715961C921E921497179630
:100860001C921E921697413120F080E11A968C93CB
:1008700002C0FC014287D60118968D919C91199770
:10088000892B11F030E01EC0F601828590E02983AB
:100890000E944014D60119969C938E931897298133
:1008A000009781F715C0832F90E0F701E80FF91F3B
:1008B0004081D6011896ED91FC911997E80FF91F28
:1008C00040833F5FF6018285381768F323870687E8
:1008D0000F90DF91CF910F91FF90EF90DF90CF902D
:1008E0000895CF93DF93EC018B858F3F69F061E032
:1008F0000E94D00B60E08B850E94080C88EC90E091
:10090000DF91CF910C94370DDF91CF910895CF9364
:10091000DF93EC018B858F3F69F061E00E94D00B83
:1009200061E08B850E94080C88EC90E0DF91CF910C
:100930000C94370DDF91CF910895FC011182108244
:1009400013821282158214821782168211861086F3
:100950000895EF92FF920F93CF93DF93EC0179010B
:10096000202F00E00E941704FD86EC86DF91CF91D6
:100970000F91FF90EF9008956F927F928F929F92C8
:10098000AF92BF92CF92DF92EF92FF920F931F939D
:10099000CF93DF93EC018B0188859985892BF1F446
:1009A00076C0ED2CF12C8C859D85F701EE0FFF1F95
:1009B000E00FF11F91838083E885F985EE0DFF1D1F
:1009C00061E080810E94080CE885F985EE0DFF1D2D
:1009D00061E080810E94D00BD39401C0D12C8A8524
:1009E000D816F8F28AE090E00E94370DD12C13C09F
:1009F000ED2CF12CE885F985EE0DFF1D60E080817E
:100A00000E94D00BE885F985EE0DFF1D60E0808126
:100A10000E94080CD3948A85D81650F30E94E70CE4
:100A20006B017C0120C00E94E70C3B016C187D0823
:100A3000912C16C0A92CB12CA885B985AA0DBB1D77
:100A40008C910E943F0C892B51F4F501EE0FFF1F92
:100A5000E00FF11F8081918168167906A8F09394C8
:100A60008A85981638F30E94E70C6C197D098E0967
:100A70009F092C853D854901A12CB12C681579056C
:100A80008A059B0580F203C071826082E8CFDF9106
:100A9000CF911F910F91FF90EF90DF90CF90BF907B
:100AA000AF909F908F907F906F900895CF92DF923C
:100AB000EF92FF920F931F93CF93DF93EC018B0183
:100AC00088859985892B51F445C0F801E80FF11DFF
:100AD000E80FF11D118210828F5F01C080E09A85BE
:100AE000891798F3C12C1BC0ED2CF12CA885B98572
:100AF000AE0DBF1D8C910E94680CF701EE0FFF1F19
:100B0000E00FF11F20813181280F391F31832083AD
:100B1000D39401C0D12C8A85D81630F3C3948F8525
:100B2000C816C0F340E013C0F801E40FF11DE40F54
:100B3000F11D6F8570E0CB019595879520813181FE
:100B4000820F931F0E94DC13718360834F5F8A853D
:100B5000481750F3DF91CF911F910F91FF90EF90C5
:100B6000DF90CF900895DF92EF92FF920F931F9343
:100B7000CF93DF93CDB7DEB7A0970FB6F894DEBF63
:100B80000FBECDBF8C017B01D42E842F81508230CB
:100B900018F4C8010E948704D8011E968C91B701F1
:100BA000811110C0C8010E94BC04C8010E947104D8
:100BB000B2E0DB123CC0BE016F5F7F4FC8010E94F4
:100BC000BC0433C0C8010E945605C8010E947104CC
:100BD000E2E0DE122CC0BE016F5F7F4FC8010E94B1
:100BE000560523C0842F90E0880F991FF701E80F66
:100BF000F91F21E030E02C0F3D1F820F931FD80119
:100C00001C962D913C911D97DC018D919C91281B88
:100C1000390B80819181820F931F918380834F5F75
:100C2000F80182854817F0F202C040E0F9CFA096A3
:100C30000FB6F894DEBF0FBECDBFDF91CF911F91ED
:100C40000F91FF90EF90DF900895BF92CF92DF92C7
:100C5000EF92FF920F931F93CF93DF93EC018B01E1
:100C6000B42E82E0481711F041110AC08C819D8199
:100C7000892B09F497C08E819F81892B09F492C03A
:100C80008B2D8150823050F488819981892B09F411
:100C900089C08A819B81892B09F484C04B2DB801BE
:100CA000CE010E94B305780100E010E0C12CD12CE8
:100CB00073C0A1E0BA120AC0EA81FB81E00FF11F04
:100CC0000190F081E02DA881B9810CC08C819D81BB
:100CD000B1100DC0EE81FF81E00FF11F0190F08196
:100CE000E02DDC01A00FB11F8D919C9129C0FC016A
:100CF000E00FF11F20813181E881F981E00FF11FC0
:100D0000408151818C859D852417350720F0840F03
:100D1000951F821B930BEE81FF81E00FF11F208155
:100D20003181EA81FB81E00FF11F40815181EC8527
:100D3000FD852417350720F0E40FF51FE21BF30BA8
:100D4000E81BF90BA9F0D7012D913C9140E050E050
:100D5000281B390B41095109A8EEB3E00E94C913C1
:100D60009F0140E050E00E94121437FD0AC002C00B
:100D700020E030E0293EB3E03B072CF028EE33E0E2
:100D800002C020E030E0F701219331937F01FFEFB3
:100D9000CF1ADF0A0E5F1F4F8A8590E0C816D9066A
:100DA0000CF487CFDF91CF911F910F91FF90EF90BF
:100DB000DF90CF90BF9008952F923F924F925F9215
:100DC0006F927F928F929F92AF92BF92CF92DF925B
:100DD000EF92FF920F931F93CF93DF93EC018B0160
:100DE000822E0E9425062A84E801412C512C3201D2
:100DF00000E010E0C12CD12C7601312C912C68EE52
:100E0000A62E63E0B62E26C0988189812296E92F0E
:100E1000F82F882021F0C5018E1B9F0BFC01E93CB7
:100E2000F10524F4E333F10574F002C03324339464
:100E3000DF01A30192010E94D413C60ED71EE81E43
:100E4000F91E0E0F1F1F939498EE490E93E0591E42
:100E5000611C711C9210D8CF31101DC0892D90E0FB
:100E6000019744EF51E0849F9001859F300D949F3E
:100E7000300D11244091C3015091C4014217530712
:100E8000BCF028EE33E0829FB001839F700D929FEB
:100E9000700D11240FC0980140E050E0C701B60169
:100EA0000E94F013B9013093C4012093C30102C022
:100EB00060E070E0CB01DF91CF911F910F91FF9027
:100EC000EF90DF90CF90BF90AF909F908F907F90EA
:100ED0006F905F904F903F902F9008953F924F9268
:100EE0005F926F927F928F929F92AF92BF92CF92BA
:100EF000DF92EF92FF920F931F93CF93DF93CDB7C3
:100F0000DEB7C256D1090FB6F894DEBF0FBECDBF13
:100F10008C014B015A01322EDA018D919C91892B63
:100F200031F0F40180819181892BF1F420C0D80146
:100F30001A968C9190E0880F991F0E944014F50139
:100F400091838083009709F4C1C0FC0180E090E0A8
:100F500003C0119211920196D8011A962C9130E09B
:100F600082179307B4F3DDCFE12CF12C21C0F801F7
:100F7000828590E0880F991F0E944014D4018D93C0
:100F80009C93009709F4A2C0FC0180E090E008C0A7
:100F9000D8011C962D913C911D9721933193019678
:100FA000D8011A962C9130E0821793078CF3DCCF8E
:100FB000432DBE016F5B7F4FC8010E94B305F8014E
:100FC0004284512C66246394712C6C0E7D1EFE01AC
:100FD000EF5BFF4F9E012F5D3F4FC901A3967FAE90
:100FE0006EAEA39740E050E035C0E114F104A1F0EB
:100FF000DC01CD90DC9060817181C616D70660F06F
:10100000A396AEADBFADA397CD90DC90608171810A
:101010006C157D0548F010C060817181DC016D9315
:101020007C93E114F10461F760817181A396AEAD08
:10103000BFADA3976D937C934F5F5F4FA3966EAD4B
:101040007FADA3976E5F7F4FA3967FAF6EAFA397E1
:10105000329602964415550544F27FEFE71AF70AD7
:101060008AE0E816F10409F0A3CF80E090E07E0169
:10107000A1E2EA0EF11C24C0F301619171913F01DC
:10108000A9014E195F09D501ED91FC91E40FF51FFF
:10109000A081B181A617B70710F471836083F901AD
:1010A000619171919F01D401ED91FC91E40FF51FC5
:1010B000408151816417750710F471836083019634
:1010C000F801428550E084179507B4F2CE59DF4FFE
:1010D0000FB6F894DEBF0FBECDBFDF91CF911F9149
:1010E0000F91FF90EF90DF90CF90BF90AF909F90C7
:1010F0008F907F906F905F904F903F9008951F93D7
:10110000CF93DF93EC01162F862F8150823018F099
:10111000662359F017C0AE014E5F5F4F21E0BE015C
:10112000CE010E946E07123069F4AE014A5F5F4F34
:10113000BE016C5F7F4F20E0CE01DF91CF911F9108
:101140000C946E07DF91CF911F910895CF93DF9399
:10115000EC0188859985009711F00E94DB148A8143
:101160009B81009711F00E94DB148E819F81009774
:1011700011F00E94DB1488819981009711F00E9480
:10118000DB148C819D81009721F0DF91CF910C942D
:10119000DB14DF91CF910895CF93DF93EC0186E0CC
:1011A000EBE1F1E0DE01529601900D928A95E1F7B4
:1011B00086E0E1E2F1E0DE011C9601900D928A9555
:1011C000E1F784E090E09A8F898F1CA61BA61DA6EC
:1011D000DF91CF910895FC016083418322831382C4
:1011E0001482168215821086178211860895FC01DA
:1011F0008181813011F462E001C060E080810E9451
:10120000D00B85E090E00C94370DFC012185211175
:1012100004C021E021870C94F7080895CF93DF9351
:10122000EC0188810E943F0C21E0892B09F020E02D
:1012300081E09A81911180E08227DF91CF9108951A
:10124000CF93DF93EC010E940509CE01DF91CF918E
:101250000C940E09CF93DF93EC010E940509CE0197
:101260000E940E098111FBCF6AE070E080E090E0FF
:101270000E94110DCE010E940E098111F0CFDF9165
:10128000CF910895CF93DF93EC010E940509CE0121
:101290000E940E098823D9F36AE070E080E090E0B4
:1012A0000E94110DCE010E940E09882381F3DF9167
:1012B000CF910895CF93DF93EC010E944209CE01B4
:1012C000DF91CF910C942A092091F40130E08091B4
:1012D000F501281B3109C90108958091F50190910C
:1012E000F401891750F4E82FF0E0EA50FE4F208116
:1012F00030E08F5F8093F50102C02FEF3FEFC9010F
:101300000895E091F5018091F401E81730F4F0E0E0
:10131000EA50FE4F208130E002C02FEF3FEFC901BD
:1013200008950895CF92DF92EF92FF920F931F934B
:10133000CF93DF937C01CB018A012091D10122233D
:1013400091F0EB016B01C40ED51E09C06991D70164
:10135000ED91FC910190F081E02DC7010995CC152C
:10136000DD05A1F703C0642F0E942C0AC801DF919C
:10137000CF911F910F91FF90EF90DF90CF90089544
:10138000CF93DF931F92CDB7DEB769832091D10150
:101390002223D1F02091D201203240F021E030E030
:1013A000FC013383228320E030E015C08091D3011B
:1013B000E82FF0E0EC52FE4F998190838F5F80938D
:1013C000D3018093D20105C061E0CE0101960E9455
:1013D0002C0A21E030E0C9010F90DF91CF910895F0
:1013E000FC011382128248EE53E060E070E0448317
:1013F0005583668377838BE291E0918380830895A0
:101400001092F5011092F4011092D3011092D201C2
:101410000C940E0A85EC91E00C94F00910921F02D6
:1014200081E080931D0210921C0261E082E00E9424
:10143000080C61E083E00E94080CE9EBF0E0808199
:101440008E7F808380818D7F808388E48093B80045
:1014500085E48093BC000895613298F420911F02C6
:10146000243089F460931802FC0180E492E0DC01EE
:1014700002C021912D932A2F281B2617D0F380E03C
:10148000089581E0089582E0089585ED8093BC0081
:101490008091BC0084FDFCCF10921F02089585EC62
:1014A0008093BC0010921F0208951F920F920FB6F6
:1014B0000F9211242F933F934F935F936F937F93DA
:1014C0008F939F93AF93BF93EF93FF938091B90056
:1014D000887F803609F49FC058F5883209F45BC0D4
:1014E00090F4803109F452C038F4882309F4F8C02C
:1014F000883009F0F9C04AC0883109F44CC0803204
:1015000009F0F2C05CC0803409F46BC038F4803359
:1015100009F455C0883309F0E7C054C0803509F498
:1015200054C0883509F462C0883409F0DDC0DAC0DF
:10153000883909F4CBC0A8F4883709F46CC038F4B2
:10154000883609F468C0803709F0CEC064C0883896
:1015500009F4BCC0803909F464C0803809F0C4C003
:1015600060C0803B09F48AC038F4803A09F46BC04B
:10157000883A09F0B9C082C0803C09F4ABC0883C0D
:1015800009F4A8C0883B09F0AFC08DC080911E024D
:101590008093BB0012C090911B0280911A02981791
:1015A00088F580911B02E82FF0E0E05EFD4F90810E
:1015B0009093BB008F5F80931B0285EC88C0809363
:1015C000160290C08093160256C080911B02909123
:1015D000BB00E82FF0E0E05EFD4F90838F5F8093CB
:1015E0001B0290911B0280911A026DC080911B0218
:1015F0009091BB00E82FF0E0E05EFD4F90838F5F9D
:1016000080931B0280911D0281116CC081E0809348
:101610001C0284EA60C083E080931F0210921702CC
:10162000CCCF80911702803208F050C08091170211
:101630009091BB00E82FF0E0EC59FD4F90838F5F55
:1016400080931702BACF80911702803230F4E09174
:101650001702F0E0EC59FD4F10820E94450A60919C
:101660001702E0916002F091610270E084E692E07E
:101670000995109217020E944F0A36C084E08093A9
:101680001F021092190210921802E0916202F0916A
:101690006302099580911802811105C081E0809351
:1016A00018021092400280911902E82FF0E0E05CED
:1016B000FD4F90819093BB008F5F809319029091B2
:1016C000190280911802981708F477CF85E8809363
:1016D000BC000AC085EC8093BC0010921F0204C0BD
:1016E000109216020E94450AFF91EF91BF91AF91AF
:1016F0009F918F917F916F915F914F913F912F912A
:101700000F900FBE0F901F901895883059F160F41C
:10171000823021F120F4813009F041C01CC08330B7
:1017200081F08430E1F511C08B3051F128F489301B
:10173000E9F08A30A1F51EC08C3031F18E3079F598
:1017400029C0809180008F7703C0809180008F7DB9
:1017500080938000089584B58F7702C084B58F7D13
:1017600084BD0895809190008F7707C0809190008C
:101770008F7D03C080919000877F809390000895B3
:101780008091C0008F7703C08091C0008F7D8093CF
:10179000C00008958091C200877F8093C2000895A1
:1017A000CF93DF9390E0FC01EA52FF4F4491FC019C
:1017B000EC50FF4F8491882341F190E0880F991FEE
:1017C000FC01E25DFE4F25913491D901805E9E4F70
:1017D000FC0185919491C82FD92F9FB7F8948C91D3
:1017E000611106C0409584238C938881842308C0AE
:1017F000623041F4242F209582238C938881842B9E
:10180000888302C0842B8C939FBFDF91CF91089572
:101810000F931F93CF93DF931F92CDB7DEB7282F7F
:1018200030E0F901E854FF4F8491F901EA52FF4F8B
:101830001491F901EC50FF4F04910023D1F088235B
:1018400021F069830E94850B6981E02FF0E0EE0FA3
:10185000FF1FE05EFE4F85919491DC019FB7F894E5
:101860008C91611103C01095812301C0812B8C9351
:101870009FBF0F90DF91CF911F910F910895CF934C
:10188000DF93282F30E0F901E854FF4F8491F901EC
:10189000EA52FF4FD491F901EC50FF4FC491CC2391
:1018A00089F081110E94850BEC2FF0E0EE0FFF1FF5
:1018B000EE5EFE4F85919491DC018C918D2321E0A9
:1018C00030E011F420E030E0C901DF91CF910895BC
:1018D000823108F08251E82FF0E0E455FF4FE491A7
:1018E00080917B00E3FB222720F930E095E0220F76
:1018F000331F9A95E1F78F7D822B80937B00E770F1
:1019000080910A0120E4829FC0011124E82BE0931A
:101910007C0080917A00806480937A0080917A00C4
:1019200086FDFCCF2091780030917900932F80E0E4
:10193000AC01422B9A01C90108951F920F920FB674
:101940000F9211242F933F938F939F93AF93BF9345
:101950008091840290918502A0918602B0918702C5
:1019600030918C02232F2D5F2D3720F40196A11D7D
:10197000B11D05C0232F2A570296A11DB11D20932A
:101980008C028093840290938502A0938602B09388
:1019900087028091880290918902A0918A02B09179
:1019A0008B020196A11DB11D80938802909389023C
:1019B000A0938A02B0938B02BF91AF919F918F91B8
:1019C0003F912F910F900FBE0F901F9018950F937E
:1019D0001F939FB7F894009188021091890220917B
:1019E0008A0230918B0286B5A89B06C08F3F21F0FA
:1019F0000F5F1F4F2F4F3F4F9FBF322F212F102FB1
:101A00000027080F111D211D311D42E0000F111F7D
:101A1000221F331F4A95D1F7B801C9011F910F91B9
:101A20000895CF92DF92EF92FF92CF93DF936B01F5
:101A30007C010E94E70CEB010EC00E94E70C6C1BBE
:101A40007D0B683E734038F081E0C81AD108E10888
:101A5000F108C851DC4FC114D104E104F10469F765
:101A6000DF91CF91FF90EF90DF90CF900895019795
:101A700039F0880F991F880F991F02970197F1F786
:101A80000895789484B5826084BD84B5816084BDF6
:101A900085B5826085BD85B5816085BDEEE6F0E0E7
:101AA000808181608083E1E8F0E010828081826043
:101AB0008083808181608083E0E8F0E080818160C4
:101AC0008083E1E9F0E080818260808380818160B1
:101AD0008083E0E9F0E0808181608083E1ECF0E0E8
:101AE0008081846080838081826080838081816046
:101AF0008083E3ECF0E0808181608083E0ECF0E0C3
:101B0000808182608083E2ECF0E08081816080836C
:101B1000EAE7F0E080818460808380818260808356
:101B200080818160808380818068808308950097B0
:101B300029F0BC0180E090E00C94CC1508950F933F
:101B40001F93CF93DF9300D000D0CDB7DEB79B01BA
:101B5000AC01611571058105910579F069833A83BE
:101B60004B835C830E94C71529813A814B815C813C
:101B70000E9412148B019C0103C000E010E0980148
:101B8000B801C9010F900F900F900F90DF91CF9186
:101B90001F910F9108952091DB023091DC0280911A
:101BA000DD029091DE02281B390B2F733327C90108
:101BB00008952091DB023091DC028091DD0290914A
:101BC000DE022817390749F0E091DD02F091DE02CC
:101BD000E556FD4F208130E002C02FEF3FEFC901F5
:101BE00008952091DB023091DC028091DD0290911A
:101BF000DE0228173907B1F0E091DD02F091DE0234
:101C0000E556FD4F80812091DD023091DE022F5F8D
:101C10003F4F2F7333273093DE022093DD02282FAE
:101C200030E002C02FEF3FEFC90108950F931F93DB
:101C3000CF93DF931F92CDB7DEB78C01698380917C
:101C40001201882369F041E050E0BE016F5F7F4FD1
:101C500083E00E94BA0F1816190614F49C0107C0FD
:101C600081E090E0F8019383828320E030E0C901B5
:101C70000F90DF91CF911F910F91089583E00C9405
:101C8000FE11CF93DF9312C082E00E94880F8F3F36
:101C90002FEF9207C9F0E091DB02F091DC02E556EC
:101CA000FD4F8083D093DC02C093DB02C091DB0246
:101CB000D091DC022196CF73DD278091DD029091D7
:101CC000DE02C817D90701F7DF91CF910895FC0113
:101CD00020812E5F208342E450E06CE371E080E8D5
:101CE0000C945510FC0181819081913A59F4813214
:101CF00009F04BC047E050E06BE071E080E00E94EB
:101D0000551045C0913209F040C0803239F467E087
:101D100070E08BE091E00E94A81039C0823209F097
:101D200034C082818093120180910B0190910C014B
:101D3000A0910D01B0910E01803B9440A105B10529
:101D400031F58091120180FD12C087E797E79093EB
:101D50000108809300082BE088E190E00FB6F8942A
:101D6000A895809360000FBE2093600010C088E1AA
:101D70000FB6F89480936000109260000FBEA89593
:101D8000109201081092000802C080E0089581E0DE
:101D9000089508951092900210928F0288EE93E0B9
:101DA000A0E0B0E08093910290939202A0939302FE
:101DB000B09394028BE391E090938E0280938D0216
:101DC0000895CF92DF92EF92FF920F931F93CF93DC
:101DD000DF936C01EB017A01E60EF71E00E010E0E4
:101DE0000BC06991D601ED91FC910190F081E02D3D
:101DF000C6010995080F191FCE15DF0591F7C80117
:101E0000DF91CF911F910F91FF90EF90DF90CF90D6
:101E100008950E94410D8FED92E00E9467120E948A
:101E2000A101C0E0D0E00E9432022097E1F30E94BD
:101E30000000F9CF05C02091F100FC012193CF01F2
:101E40006150C8F7289884E68093E60208952FB77A
:101E5000FC012083F89467706093E9000895CF93A4
:101E6000DF931F92CDB7DEB7682FCE0101960E9497
:101E7000270F8091F20099819FBF0F90DF91CF9142
:101E80000895FF920F931F93CF93DF9300D0CDB7A8
:101E9000DEB7F62E8A019091E5029923A9F057FF4B
:101EA00016C012C028988093E6029091F100919399
:101EB000FE12F8CF4115510521F08091F2008823E0
:101EC000D1F089818FBF1BC04FEF5FEF18C0682F23
:101ED000CE0101967A830E94270F8091F20090E054
:101EE000A8017A81801791070CF4AC01EF2DF72F30
:101EF000F40E84E6DDCF8BE68093E800E2CFCA01E2
:101F00000F900F90DF91CF911F910F91FF90089547
:101F1000CF93DF931F92CDB7DEB741E050E0BE0113
:101F20006F5F7F4F0E94410F019719F4298130E0C4
:101F300002C02FEF3FEFC9010F90DF91CF910895BD
:101F4000CF93DF931F92CDB7DEB7682FCE010196F6
:101F50000E94270F8091E80085FF05C09091F20054
:101F600080E4891B01C080E099819FBF0F90DF91C1
:101F7000CF9108956F927F928F929F92AF92BF926E
:101F8000CF92DF92EF92FF920F931F93CF93DF9345
:101F90001F92CDB7DEB7782EC42EB52E8091E50204
:101FA00081114CC02FEF3FEF64C0872D0E94A00F1E
:101FB000682E811109C0DA94A9F361E070E080E035
:101FC00090E00E94110D47C0282F30E00217130740
:101FD0000CF4602E06191109672DCE0101960E949E
:101FE000270F992041F002C01092F1006A948FEF00
:101FF0006812FACF17C0862D77FC02C0F7010EC019
:10200000970106C0F9012F5F3F4FE491E093F10083
:102010008150C0F705C091919093F1008150D8F79D
:10202000E60CF11C8091E80085FF20C00115110528
:1020300011F481101BC089818FBF0DC07B01042F5B
:10204000152F8AEFD82E90E2992E97202AE3A22E00
:1020500030E4832E87200115110509F0A6CF5D9885
:1020600084E68093E7022C2D3B2D03C0A092E8006C
:10207000E2CFC9010F90DF91CF911F910F91FF9097
:10208000EF90DF90CF90BF90AF909F908F907F9018
:102090006F9008951092E9001092E4021092E3020A
:1020A0009093E2028093E1020895FF920F931F93B1
:1020B000CF93DF93C42FD52FDB0160E070E0EEEF0C
:1020C000FE2E38C09D012F5F3F4F87FF04C0FD01EA
:1020D000D901E49102C0EC91D9010091E302109181
:1020E000E4022091E1023091E20202171307B4F4F6
:1020F0009091E8009570E1F39091E80092FD1FC087
:10210000E093F1002091E3023091E4022F5F3F4F12
:102110002F733327232B11F4F092E8002091E30270
:102120003091E4022F5F3F4F3093E4022093E302AB
:102130006F5F7F4F6C177D0729F69A0102C02FEF62
:102140003FEFC901DF91CF911F910F91FF9008954B
:102150001F93CF93DF931F92CDB7DEB7162F209139
:10216000E80022FFFCCF612F79830E941A0F8BEFCA
:102170008093E800812F7981972F0F90DF91CF9185
:102180001F910895CF93DF931F92CDB7DEB71982C9
:10219000CE0101960E94670ECE0101960E94A41204
:1021A000898190E00F90DF91CF9108951F920F9257
:1021B0000FB60F921124EF92FF920F931F932F935C
:1021C0003F934F935F936F937F938F939F93AF93BF
:1021D000BF93EF93FF93CF93DF93CDB7DEB76297B3
:1021E000DEBFCDBF1092E9008091E80083FFE9C017
:1021F00068E0CE010A960E941A0F82EF8093E800F1
:102200009A8597FF05C08091E80080FFFCCF03C04E
:102210008EEF8093E800892F807609F0B7C08B8518
:10222000811105C01092F1001092F100C3C08130FD
:1022300009F4C0C0833009F4BDC0853049F48091F1
:10224000E80080FFFCCF8C8580688093E300B2C0FB
:10225000863009F073C02D85E888F988223071F541
:1022600080E090E02A8B0E944A100E94C21099E000
:102270008E010F5F1F4FF801392F11923A95E9F740
:1022800099832A892A8391E09E8390E898879AEF20
:1022900099872091E3023091E402275F3F4F3C830E
:1022A0002B838D83C7010E944A1049E050E0B8019A
:1022B00080E00E9455100E94C2107CC0C7012A8B8A
:1022C0000E944A102A89223241F482E290E00E9460
:1022D000AF12892B09F06EC071C0213071F488896A
:1022E0009989089719F481E08093E0028091E002D7
:1022F000882389F063E871E016C0233009F05EC0DE
:102300008C85882359F0823061F0813009F056C005
:1023100067EA71E008C065E971E005C061EE71E04F
:1023200002C06FEB71E06115710509F447C0FB0154
:10233000449150E080E80E9455103CC0873009F479
:102340003DC0883021F481E08093F10033C08930B2
:1023500089F5937099F5EFE7F1E081E021E096E3EC
:102360008093E9002093EB0034913093EC0090933C
:10237000ED008F5F3196853099F78EE78093EA0004
:102380001092EA008C858093E50214C088899989AF
:102390000E944A108E85811105C0CE010A960E94C6
:1023A000720E06C0823051F4CE010A960E94D712F6
:1023B000882321F08EEF8093E80003C081E28093B0
:1023C000EB0062960FB6F894DEBF0FBECDBFDF9173
:1023D000CF91FF91EF91BF91AF919F918F917F919D
:1023E0006F915F914F913F912F911F910F91FF90AE
:1023F000EF900F900FBE0F901F9018958093E900FB
:102400008091F200882319F08AE38093E800089510
:102410001F920F920FB60F9211242F933F934F9359
:102420005F936F937F938F939F93AF93BF93EF933C
:10243000FF938091E1001092E10083FF0FC01092A2
:10244000E90091E09093EB001092EC0092E39093FE
:10245000ED001092E50298E09093F00082FF26C014
:1024600083E00E94FE1182E00E942F0F882321F05A
:102470008DE892E00E94410E8091E702882339F0B6
:102480008091E70281508093E702882361F0809178
:10249000E602882359F08091E60281508093E6029B
:1024A000882319F003C05D9AF2CF289AFF91EF912B
:1024B000BF91AF919F918F917F916F915F914F915C
:1024C0003F912F910F900FBE0F901F901895109273
:1024D000E50281E08093D70080EA8093D80082E112
:1024E00089BD09B400FEFDCF61E070E080E090E0BE
:1024F0000E94110D80E98093D8008CE08093E20067
:102500001092E000559A209A0895FF920F931F931E
:10251000CF93DF93EC01F62EE881F9810480F581F9
:10252000E02D09958C01E881F9810680F781E02D85
:102530006F2DCE01099598013327C901DF91CF9105
:102540001F910F91FF900895FC0120812F5F208340
:1025500049E150E065E672E080E80C94551045E6EC
:1025600050E06EE772E080E80C945510EF92FF9215
:102570000F931F93CF93DF931F92CDB7DEB789835D
:102580008B017A0141E050E0BE016F5F7F4F84E034
:102590000E94BA0FA701B80184E40E94BA0F0F90FD
:1025A000DF91CF911F910F91FF90EF900895FC0163
:1025B00091818081813A31F481E0913091F09330C2
:1025C00091F010C0813271F49B3021F482818093AC
:1025D000140105C09A3031F482818093130181E0A7
:1025E0000895089580E0089548E050E082E00C945A
:1025F000B612FC0116821782108611861286138687
:102600001482BC016C5F7F4F0C94F412E62F683883
:1026100010F0E85824C0F0E067FF12C0E058F1095C
:1026200021E030E001C0220FEA95EAF72095DC01B5
:1026300014963C911497322314963C93E0E00FC01B
:10264000EB51FE4FE491EE2329F1E7FF08C0DC01D6
:1026500014962C9114972D7F14962C93EF7720E0ED
:1026600030E0EE2351F0DC01A20FB31F16964C911F
:1026700016974E1302C016961C922F5F3F4F2630BE
:10268000310579F7BC016C5F7F4F0E94F41221E0A5
:1026900030E002C020E030E0C9010895CF93DF931D
:1026A000DC01E62F683810F0E85824C0F0E067FF3E
:1026B00011C0E058F10981E090E001C0880FEA956F
:1026C000EAF714969C911497982B14969C93149760
:1026D000E0E010C0EB51FE4FE491E11101C040C0B9
:1026E000E7FF08C014968C911497826014968C931F
:1026F0001497EF7716968C9116978E1741F11796CF
:102700008C9117978E1719F118968C9118978E1730
:10271000F1F019968C9119978E17C9F01A968C9131
:102720001A978E17A1F01B968C911B978E1779F034
:1027300080E090E0ED01C80FD91F2E81211102C069
:10274000EE8305C0019686309105A1F709C0BD0151
:102750006C5F7F4FCD010E94F41221E030E008C091
:1027600081E090E013969C938E93129720E030E0E6
:10277000C901DF91CF9108951092F4021092EB02FB
:102780001092EA028DE491E09093E9028093E802CE
:1027900008950E942E14A59F900DB49F900DA49FA4
:1027A000800D911D11240895B7FF0C94C9130E9448
:1027B000C913821B930B0895AA1BBB1B51E107C0D1
:1027C000AA1FBB1FA617B70710F0A61BB70B881FC1
:1027D000991F5A95A9F780959095BC01CD01089550
:1027E000A1E21A2EAA1BBB1BFD010DC0AA1FBB1F15
:1027F000EE1FFF1FA217B307E407F50720F0A21B87
:10280000B30BE40BF50B661F771F881F991F1A94F3
:1028100069F760957095809590959B01AC01BD011D
:10282000CF010895052E97FB16F4009407D057FDAD
:102830000DD00E94F01307FC09D07EF4909580958E
:10284000709561957F4F8F4F9F4F0895509540959C
:10285000309521953F4F4F4F5F4F0895A29FB00194
:10286000B39FC001A39F01D0B29F700D811D1124A1
:10287000911D0895EE0FFF1F0590F491E02D09942E
:102880000F931F93CF93DF938230910510F482E072
:1028900090E0E091F702F091F80220E030E0C0E033
:1028A000D0E023C04081518148175907A8F048174C
:1028B000590761F482819381209719F09B838A8361
:1028C0002EC09093F8028093F70229C0211531059C
:1028D00029F04217530710F0A90102C0BE01DF0121
:1028E00002811381EF019A01F8013097D9F6211581
:1028F000310509F1281B390B2430310590F412966B
:102900008D919C9113976115710521F0FB019383C3
:10291000828304C09093F8028093F702FD013296FF
:1029200044C0FD01E20FF31F8193919322503109BE
:102930002D933C933AC02091F5023091F602232B5F
:1029400041F420910201309103013093F60220936B
:10295000F50220910001309101012115310541F46A
:102960002DB73EB74091040150910501241B350B52
:10297000E091F502F091F602E217F307A0F42E1BA6
:102980003F0B2817390778F0AC014E5F5F4F2417D3
:10299000350748F04E0F5F1F5093F6024093F50243
:1029A0008193919302C0E0E0F0E0CF01DF91CF91FD
:1029B0001F910F910895EF92FF920F931F93CF9362
:1029C000DF93009709F48EC0DC01129713961C92D6
:1029D0001E921297E090F702F090F802E114F104D1
:1029E00089F42D913C911197280F391F8091F502A0
:1029F0009091F6028217930789F5B093F602A0939F
:102A0000F50270C0E70120E030E001C0EA01CA171A
:102A1000DB0738F44A815B819E0141155105B1F70E
:102A200022C0AC0142505109FA01D383C283008114
:102A30001181BC01600F711F6C177D0761F4688103
:102A40007981600F711F6E5F7F4F718360836A8130
:102A50007B81738362832115310529F4B093F802D9
:102A6000A093F7023FC0F901B383A283E901499122
:102A70005991C40FD51FAC17BD0771F4DC019E91AD
:102A80008E91840F951F02969183808312968D916B
:102A90009C91139793838283A0E0B0E002C0D7019A
:102AA0007C01F701828193810097C9F7C7010296E3
:102AB00020813181820F931F2091F5023091F6021F
:102AC0002817390779F4109729F41092F802109218
:102AD000F70204C013961C921E921297F092F6020F
:102AE000E092F502CDB7DEB7E6E00C94E1158F92E7
:102AF0009F92AF92BF92CF92DF92EF92FF92CF93CD
:102B0000DF93EC01688179818A819B816115710570
:102B10008105910521F464E279ED8BE597E02DE1E3
:102B200033EF41E050E00E94121449015A019B0129
:102B3000AC01A7EAB1E40E94C9136B017C01ACEEC1
:102B4000B4EFA50194010E94D713C60ED71EE81E4C
:102B5000F91EF7FE06C081E0C81AD108E10880E836
:102B6000F80AC882D982EA82FB82E894F7F8B601B3
:102B7000C701DF91CF91FF90EF90DF90CF90BF9092
:102B8000AF909F908F9008950E947715089586E0EA
:102B900091E00E94771508956093060170930701F4
:102BA000809308019093090108952A8839884888FC
:102BB0005F846E847D848C849B84AA84B984C88459
:102BC000DF80EE80FD800C811B81AA81B981CE0F50
:102BD000D11D0FB6F894DEBF0FBECDBFED01089535
:102BE00012E0CCEED2E004C0FE010E943C1422961A
:0A2BF000CE3ED107C9F7F894FFCFDD
:102BFA000000F9022000010000000100E1000000CD
:102C0A00000000010104150B121405018001800166
:102C1A0080FF7FFF7FFF7F00000000C009920964E8
:102C2A00096D098109910900000000160EE10ECB19
:102C3A000DF10DD90D3E0E410E000000008512E186
:082C4A000E4E130613F91200EF
:00000001FF
