:100000000C9470010C9498010C9498010C94980134
:100010000C9498010C9498010C9498010C949801FC
:100020000C9498010C9498010C94240B0C94F209F4
:100030000C9498010C9498010C9498010C949801DC
:100040000C9498010C9498010C9498010C949801CC
:100050000C9498010C9498010C9498010C94A705A9
:100060000C9498010C9498010C9498010C949801AC
:100070000C9498010C9498010C9498010C9498019C
:100080000C9498010C9498010C9498010C9498018C
:100090000C9494030C9498010C9498010C9498017E
:1000A0000C9498010C9498010C94980100000002A3
:1000B00000080E0000030401000B00000000000017
:1000C00000000000000000000000040802011040D1
:1000D00080401020408040800802040180402010B1
:1000E00002011080102040400404040404030405AD
:1000F00002020202040302020202060606060606C5
:10010000040402020204000000002300260029006B
:100110002C002F0000000000250028002B002E00DE
:10012000310000000000240027002A002D003000CC
:10013000080B000202020100090400000102020093
:100140000005240010010524010101042402060514
:100150002406000107058103100040090401000284
:100160000A00000007050202400000070583024064
:10017000000000C18081C112010002020000404164
:10018000233680000101020001120100020000007C
:100190004041233680000101020001180341007232
:1001A000006400750069006E006F0020004C004C78
:1001B0000043002203410072006400750069006E74
:1001C000006F0020004C0065006F006E006100723F
:1001D0000064006F00040309040000000000000038
:1001E000002A2B2800000000000000000000000092
:1001F0000000000000000000002C9EB4A0A1A2A4FA
:1002000034A6A7A5AE362D3738271E1F202122235E
:10021000242526B333B62EB7B89F84858687888970
:100220008A8B8C8D8E8F90919293949596979899B6
:100230009A9B9C9D2F3130A3AD3504050607080914
:100240000A0B0C0D0E0F1011121314151617181996
:100250001A1B1C1DAFB1B0B5000904020001030058
:100260000000092101010001226500070584034007
:10027000000105010902A1010901A100850105098B
:1002800019012903150025019503750181029501C6
:100290007505810305010930093109381581257F6C
:1002A000750895038106C0C005010906A1018502F4
:1002B000050719E029E71500250175019508810258
:1002C00095017508810395067508150025650507D4
:1002D000190029658100C000B60167039F07D80C8B
:1002E00011241FBECFEFDAE0DEBFCDBF11E0A0E0EA
:1002F000B1E0EAEDF9E102C005900D92AC35B1072D
:10030000D9F712E0ACE5B1E001C01D92A83CB107FD
:10031000E1F712E0C0EED2E004C02297FE010E9495
:10032000E70CC83DD107C9F70E9425080C94EB0CD7
:100330000C9400008AE891E00E94490266E171E0B5
:1003400080E692E00C94110864E87EEF80E991E089
:100350000E94C10268E873E180E090E00E941B0601
:1003600060E070E080E090E00C94C10284E991E0EC
:100370000E94530221E041E06CE08AE891E00E9493
:10038000E4018CE591E00C94C501CF93DF93EC017F
:1003900086E0EAE0F1E0DE01529601900D928A9546
:1003A000E1F786E0E0E1F1E0DE011C9601900D92BC
:1003B0008A95E1F784E090E09A8F898F1CA61BA6AE
:1003C0001DA6DF91CF910895FC01608341832283B4
:1003D0001382148216821582108617821186089560
:1003E000FC018181813011F462E001C060E0808114
:1003F0000E940F0585E090E00C944106FC012185E8
:10040000211104C021E021870C94F0010895CF93BD
:10041000DF93EC0188810E947E0521E0892B09F0A1
:1004200020E081E09A81911180E08227DF91CF91D5
:100430000895CF93DF93EC010E94FE01CE010E944C
:1004400007028111FBCF6AE070E080E090E00E943B
:100450001B06CE010E9407028111F0CFDF91CF91E0
:100460000895CF93DF93EC010E94FE01CE010E941C
:1004700007028823D9F36AE070E080E090E00E94F0
:100480001B06CE010E940702882381F3DF91CF91E2
:100490000895CF93DF93EC010E943102CE01DF91EA
:1004A000CF910C941902089561E08AE00E940F0533
:1004B00061E089E00E940F0561E088E00E940F057D
:1004C00061E087E00E940F0580EA8093800081E16F
:1004D0008093810080E991E090938700809386006B
:1004E000089580919701811105C081E08093970163
:1004F0000C9454020895CF93DF93EC010E94710293
:10050000D7FF05C0D195C195D10981E001C080E038
:10051000C13991E0D90714F0C0E9D1E0D0938B0044
:10052000C0938A0090919501891711F061E001C094
:1005300060E088E0DF91CF910C944705CF93DF9383
:10054000EC010E947102D7FF05C0D195C195D10978
:1005500081E001C080E0C13991E0D90714F0C0E921
:10056000D1E0D0938900C0938800909196018917BB
:1005700011F061E001C060E087E0DF91CF910C9461
:100580004705CF93DF93EB010E947B02CE01DF9101
:10059000CF910C949E022091C70130E08091C80158
:1005A000281B3109C90108958091C8019091C701A4
:1005B000891750F4E82FF0E0E753FE4F208130E038
:1005C0008F5F8093C80102C02FEF3FEFC9010895EC
:1005D000E091C8018091C701E81730F4F0E0E753DB
:1005E000FE4F208130E002C02FEF3FEFC901089598
:1005F0000895CF92DF92EF92FF920F931F93CF93C4
:10060000DF937C01CB018A012091A401222391F088
:10061000EB016B01C40ED51E09C06991D701ED91A4
:10062000FC910190F081E02DC7010995CC15DD0505
:10063000A1F703C0642F0E946B03C801DF91CF9123
:100640001F910F91FF90EF90DF90CF900895CF937F
:10065000DF931F92CDB7DEB769832091A4012223D7
:10066000D1F02091A501203240F021E030E0FC01E2
:100670003383228320E030E015C08091A601E82F6B
:10068000F0E0E955FE4F998190838F5F8093A6013A
:100690008093A50105C061E0CE0101960E946B0325
:1006A00021E030E0C9010F90DF91CF910895FC0166
:1006B0001382128248EE53E060E070E04483558379
:1006C000668377838FE291E091838083089588E940
:1006D00091E00C945703613298F42091F201243098
:1006E00089F46093EB01FC0183E192E0DC0102C03C
:1006F00021912D932A2F281B2617D0F380E00895EF
:1007000081E0089582E0089585ED8093BC0080919A
:10071000BC0084FDFCCF1092F201089585EC80931B
:10072000BC001092F20108951F920F920FB60F9223
:1007300011242F933F934F935F936F937F938F93E6
:100740009F93AF93BF93EF93FF938091B900887FFE
:10075000803609F49FC058F5883209F45BC090F4E4
:10076000803109F452C038F4882309F4F8C0883085
:1007700009F0F9C04AC0883109F44CC0803209F050
:10078000F2C05CC0803409F46BC038F4803309F4E3
:1007900055C0883309F0E7C054C0803509F454C00F
:1007A000883509F462C0883409F0DDC0DAC08839C0
:1007B00009F4CBC0A8F4883709F46CC038F4883643
:1007C00009F468C0803709F0CEC064C0883809F4E5
:1007D000BCC0803909F464C0803809F0C4C060C06E
:1007E000803B09F48AC038F4803A09F46BC0883A37
:1007F00009F0B9C082C0803C09F4ABC0883C09F460
:10080000A8C0883B09F0AFC08DC08091F1018093F2
:10081000BB0012C09091EE018091ED01981788F510
:100820008091EE01E82FF0E0ED50FE4F9081909323
:10083000BB008F5F8093EE0185EC88C08093E90157
:1008400090C08093E90156C08091EE019091BB0069
:10085000E82FF0E0ED50FE4F90838F5F8093EE0124
:100860009091EE018091ED016DC08091EE0190912B
:10087000BB00E82FF0E0ED50FE4F90838F5F809338
:10088000EE018091F00181116CC081E08093EF0155
:1008900084EA60C083E08093F2011092EA01CCCF39
:1008A0008091EA01803208F050C08091EA01909175
:1008B000BB00E82FF0E0E95CFD4F90838F5F8093F1
:1008C000EA01BACF8091EA01803230F4E091EA0186
:1008D000F0E0E95CFD4F10820E9484036091EA0120
:1008E000E0913302F091340270E087E392E00995E1
:1008F0001092EA010E948E0336C084E08093F201D8
:100900001092EC011092EB01E0913502F091360269
:1009100009958091EB01811105C081E08093EB0185
:10092000109213028091EC01E82FF0E0ED5EFD4F94
:1009300090819093BB008F5F8093EC019091EC01CC
:100940008091EB01981708F477CF85E88093BC007D
:100950000AC085EC8093BC001092F20104C0109292
:10096000E9010E948403FF91EF91BF91AF919F91A4
:100970008F917F916F915F914F913F912F910F9048
:100980000FBE0F901F901895883059F160F4823097
:1009900021F120F4813009F041C01CC0833081F086
:1009A0008430E1F511C08B3051F128F48930E9F041
:1009B0008A30A1F51EC08C3031F18E3079F529C016
:1009C000809180008F7703C0809180008F7D80931D
:1009D0008000089584B58F7702C084B58F7D84BD73
:1009E0000895809190008F7707C0809190008F7D4F
:1009F00003C080919000877F80939000089580913C
:100A0000C0008F7703C08091C0008F7D8093C000AD
:100A100008958091C200877F8093C2000895CF938C
:100A2000DF9390E0FC01E653FF4F4491FC01E85155
:100A3000FF4F8491882341F190E0880F991FFC01BA
:100A4000EE5DFE4F25913491D9018C5E9E4FFC01E5
:100A500085919491C82FD92F9FB7F8948C916111EB
:100A600006C0409584238C938881842308C062301B
:100A700041F4242F209582238C938881842B8883B2
:100A800002C0842B8C939FBFDF91CF9108950F9369
:100A90001F93CF93DF931F92CDB7DEB7282F30E09F
:100AA000F901E455FF4F8491F901E653FF4F14918A
:100AB000F901E851FF4F04910023D1F0882321F080
:100AC00069830E94C4046981E02FF0E0EE0FFF1FEC
:100AD000EC5EFE4F85919491DC019FB7F8948C9168
:100AE000611103C01095812301C0812B8C939FBF9E
:100AF0000F90DF91CF911F910F910895CF93DF93C6
:100B0000282F30E0F901E455FF4F8491F901E653B5
:100B1000FF4FD491F901E851FF4FC491CC2389F0E4
:100B200081110E94C404EC2FF0E0EE0FFF1FEA5F7A
:100B3000FE4F85919491DC018C918D2321E030E072
:100B400011F420E030E0C901DF91CF9108951F92A8
:100B50000F920FB60F9211242F933F938F939F9371
:100B6000AF93BF938091570290915802A091590280
:100B7000B0915A0230915F02232F2D5F2D3720F460
:100B80000196A11DB11D05C0232F2A570296A11D54
:100B9000B11D20935F028093570290935802A09357
:100BA0005902B0935A0280915B0290915C02A0912D
:100BB0005D02B0915E020196A11DB11D80935B02A2
:100BC00090935C02A0935D02B0935E02BF91AF91DF
:100BD0009F918F913F912F910F900FBE0F901F907B
:100BE00018950F931F939FB7F89400915B02109193
:100BF0005C0220915D0230915E0286B5A89B06C022
:100C00008F3F21F00F5F1F4F2F4F3F4F9FBF322F5E
:100C1000212F102F0027080F111D211D311D42E02B
:100C2000000F111F221F331F4A95D1F7B801C901C8
:100C30001F910F910895CF92DF92EF92FF92CF9381
:100C4000DF936B017C010E94F105EB010EC00E9455
:100C5000F1056C1B7D0B683E734038F081E0C81ACB
:100C6000D108E108F108C851DC4FC114D104E104F6
:100C7000F10469F7DF91CF91FF90EF90DF90CF9073
:100C80000895019739F0880F991F880F991F0297CF
:100C90000197F1F70895789484B5826084BD84B596
:100CA000816084BD85B5826085BD85B5816085BD67
:100CB000EEE6F0E0808181608083E1E8F0E0108280
:100CC000808182608083808181608083E0E8F0E0C1
:100CD000808181608083E1E9F0E0808182608083AF
:100CE000808181608083E0E9F0E0808181608083A1
:100CF000E1ECF0E080818460808380818260808389
:100D0000808181608083E3ECF0E08081816080837A
:100D1000E0ECF0E0808182608083E2ECF0E08081B2
:100D200081608083EAE7F0E0808184608083808155
:100D300082608083808181608083808180688083FD
:100D400008952091AE023091AF028091B00290914F
:100D5000B102281B390B2F733327C9010895209145
:100D6000AE023091AF028091B0029091B10228178B
:100D7000390749F0E091B002F091B102E259FD4F1C
:100D8000208130E002C02FEF3FEFC901089520918C
:100D9000AE023091AF028091B0029091B10228175B
:100DA0003907B1F0E091B002F091B102E259FD4F84
:100DB00080812091B0023091B1022F5F3F4F2F739D
:100DC00033273093B1022093B002282F30E002C0C5
:100DD0002FEF3FEFC90108950F931F93CF93DF9338
:100DE0001F92CDB7DEB78C016983809107018823FC
:100DF00069F041E050E0BE016F5F7F4F83E00E94E9
:100E0000D6081816190614F49C0107C081E090E07A
:100E1000F8019383828320E030E0C9010F90DF91D5
:100E2000CF911F910F91089583E00C941A0BCF93EB
:100E3000DF9312C082E00E94A4088F3F2FEF920739
:100E4000C9F0E091AE02F091AF02E259FD4F80830C
:100E5000D093AF02C093AE02C091AE02D091AF0268
:100E60002196CF73DD278091B0029091B102C8170F
:100E7000D90701F7DF91CF910895FC0120812E5F02
:100E8000208342E450E060E371E080E80C94710953
:100E9000FC0181819081913A59F4813209F04BC073
:100EA00047E050E060E071E080E00E94710945C0D9
:100EB000913209F040C0803239F467E070E080E0A0
:100EC00091E00E94C40939C0823209F034C08281A5
:100ED000809307018091000190910101A09102018E
:100EE000B0910301803B9440A105B10531F580919B
:100EF000070180FD12C087E797E790930108809370
:100F000000082BE088E190E00FB6F894A895809354
:100F100060000FBE2093600010C088E10FB6F89407
:100F200080936000109260000FBEA8951092010897
:100F30001092000802C080E0089581E008951092A8
:100F400063021092620288EE93E0A0E0B0E080932A
:100F5000640290936502A0936602B09367028FE3E8
:100F600091E090936102809360020895CF92DF92A6
:100F7000EF92FF920F931F93CF93DF936C01EB01DE
:100F80007A01E60EF71E00E010E00BC06991D60171
:100F9000ED91FC910190F081E02DC6010995080FBB
:100FA000191FCE15DF0591F7C801DF91CF911F9171
:100FB0000F91FF90EF90DF90CF900895611571052C
:100FC00081F0DB010D900020E9F7AD01415051099E
:100FD000461B570BDC01ED91FC910280F381E02D63
:100FE000099480E090E00895DC01ED91FC9101907E
:100FF000F081E02D09940F931F93CF93DF93EC01C1
:101000006DE00E94F4078C016AE0CE010E94F407B3
:101010009C01200F311FC901DF91CF911F910F91CA
:1010200008950F931F93CF93DF93EC010E94DE0787
:101030008C01CE010E94FB079801280F391FC901BE
:10104000DF91CF911F910F9108950E944B0682EB83
:1010500092E00E94830B0E949A01C0E0D0E00E94BF
:10106000A4012097E1F30E940000F9CF05C0209170
:10107000F100FC012193CF016150C8F7289884E664
:101080008093B90208952FB7FC012083F89467700C
:101090006093E9000895CF93DF931F92CDB7DEB739
:1010A000682FCE0101960E9443088091F200998139
:1010B0009FBF0F90DF91CF910895FF920F931F93E1
:1010C000CF93DF9300D0CDB7DEB7F62E8A01909193
:1010D000B8029923A9F057FF16C012C02898809330
:1010E000B9029091F1009193FE12F8CF411551058C
:1010F00021F08091F2008823D1F089818FBF1BC03D
:101100004FEF5FEF18C0682FCE0101967A830E94DF
:1011100043088091F20090E0A8017A81801791073E
:101120000CF4AC01EF2DF72FF40E84E6DDCF8BE647
:101130008093E800E2CFCA010F900F90DF91CF912A
:101140001F910F91FF900895CF93DF931F92CDB71A
:10115000DEB741E050E0BE016F5F7F4F0E945D0847
:10116000019719F4298130E002C02FEF3FEFC90148
:101170000F90DF91CF910895CF93DF931F92CDB75A
:10118000DEB7682FCE0101960E9443088091E800E7
:1011900085FF05C09091F20080E4891B01C080E0CA
:1011A00099819FBF0F90DF91CF9108956F927F92A9
:1011B0008F929F92AF92BF92CF92DF92EF92FF9267
:1011C0000F931F93CF93DF931F92CDB7DEB7782E87
:1011D000C42EB52E8091B80281114CC02FEF3FEF85
:1011E00064C0872D0E94BC08682E811109C0DA9462
:1011F000A9F361E070E080E090E00E941B0647C028
:10120000282F30E0021713070CF4602E061911097D
:10121000672DCE0101960E944308992041F002C03B
:101220001092F1006A948FEF6812FACF17C0862DE2
:1012300077FC02C0F7010EC0970106C0F9012F5FCD
:101240003F4FE491E093F1008150C0F705C09191C8
:101250009093F1008150D8F7E60CF11C8091E800E2
:1012600085FF20C00115110511F481101BC0898173
:101270008FBF0DC07B01042F152F8AEFD82E90E26F
:10128000992E97202AE3A22E30E4832E8720011581
:10129000110509F0A6CF5D9884E68093BA022C2D43
:1012A0003B2D03C0A092E800E2CFC9010F90DF916F
:1012B000CF911F910F91FF90EF90DF90CF90BF9053
:1012C000AF909F908F907F906F9008951092E9005B
:1012D0001092B7021092B6029093B5028093B402B6
:1012E0000895FF920F931F93CF93DF93C42FD52FB1
:1012F000DB0160E070E0EEEFFE2E38C09D012F5F55
:101300003F4F87FF04C0FD01D901E49102C0EC9179
:10131000D9010091B6021091B7022091B402309128
:10132000B50202171307B4F49091E8009570E1F349
:101330009091E80092FD1FC0E093F1002091B60269
:101340003091B7022F5F3F4F2F733327232B11F4B8
:10135000F092E8002091B6023091B7022F5F3F4F24
:101360003093B7022093B6026F5F7F4F6C177D07F3
:1013700029F69A0102C02FEF3FEFC901DF91CF910B
:101380001F910F91FF9008951F93CF93DF931F92AA
:10139000CDB7DEB7162F2091E80022FFFCCF612FDA
:1013A00079830E9436088BEF8093E800812F798142
:1013B000972F0F90DF91CF911F910895CF93DF93D7
:1013C0001F92CDB7DEB71982CE0101960E943D076C
:1013D000CE0101960E94C00B898190E00F90DF91B1
:1013E000CF9108951F920F920FB60F921124EF9292
:1013F000FF920F931F932F933F934F935F936F939E
:101400007F938F939F93AF93BF93EF93FF93CF936C
:10141000DF93CDB7DEB76297DEBFCDBF1092E90094
:101420008091E80083FFE9C068E0CE010A960E943F
:10143000360882EF8093E8009A8597FF05C0809177
:10144000E80080FFFCCF03C08EEF8093E800892F77
:10145000807609F0B7C08B85811105C01092F1002C
:101460001092F100C3C0813009F4C0C0833009F488
:10147000BDC0853049F48091E80080FFFCCF8C85A9
:1014800080688093E300B2C0863009F073C02D8578
:10149000E888F988223071F580E090E02A8B0E947C
:1014A00066090E94DE0999E08E010F5F1F4FF80167
:1014B000392F11923A95E9F799832A892A8391E085
:1014C0009E8390E898879AEF99872091B602309191
:1014D000B702275F3F4F3C832B838D83C7010E9458
:1014E000660949E050E0B80180E00E9471090E945D
:1014F000DE097CC0C7012A8B0E9466092A89223234
:1015000041F482E290E00E94CB0B892B09F06EC07F
:1015100071C0213071F488899989089719F481E0A4
:101520008093B3028091B302882389F067E771E06A
:1015300016C0233009F05EC08C85882359F08230B4
:1015400061F0813009F056C06BE971E008C069E8CC
:1015500071E005C065ED71E002C063EB71E06115FB
:10156000710509F447C0FB01449150E080E80E94F6
:1015700071093CC0873009F43DC0883021F481E016
:101580008093F10033C0893089F5937099F5E3E7D2
:10159000F1E081E021E096E38093E9002093EB0005
:1015A00034913093EC009093ED008F5F319685304D
:1015B00099F78EE78093EA001092EA008C85809379
:1015C000B80214C0888999890E9466098E858111A4
:1015D00005C0CE010A960E94480706C0823051F429
:1015E000CE010A960E94F30B882321F08EEF8093A0
:1015F000E80003C081E28093EB0062960FB6F89496
:10160000DEBF0FBECDBFDF91CF91FF91EF91BF91B4
:10161000AF919F918F917F916F915F914F913F918A
:101620002F911F910F91FF90EF900F900FBE0F9091
:101630001F9018958093E9008091F200882319F09B
:101640008AE38093E80008951F920F920FB60F92DD
:1016500011242F933F934F935F936F937F938F93B7
:101660009F93AF93BF93EF93FF938091E10010920C
:10167000E10083FF0FC01092E90091E09093EB002E
:101680001092EC0092E39093ED001092B80298E073
:101690009093F00082FF26C083E00E941A0B82E044
:1016A0000E944B08882321F080E692E00E941707F1
:1016B0008091BA02882339F08091BA0281508093D8
:1016C000BA02882361F08091B902882359F0809191
:1016D000B90281508093B902882319F003C05D9A42
:1016E000F2CF289AFF91EF91BF91AF919F918F9187
:1016F0007F916F915F914F913F912F910F900FBE0E
:101700000F901F9018951092B80281E08093D70037
:1017100080EA8093D80082E189BD09B400FEFDCF44
:1017200061E070E080E090E00E941B0680E9809319
:10173000D8008CE08093E2001092E000559A209A45
:101740000895FF920F931F93CF93DF93EC01F62E32
:10175000E881F9810480F581E02D09958C01E8810B
:10176000F9810680F781E02D6F2DCE010995980152
:101770003327C901DF91CF911F910F91FF900895F9
:10178000FC0120812F5F208349E150E069E572E090
:1017900080E80C94710945E650E062E772E080E869
:1017A0000C947109EF92FF920F931F93CF93DF93E5
:1017B0001F92CDB7DEB789838B017A0141E050E0FB
:1017C000BE016F5F7F4F84E00E94D608A701B80179
:1017D00084E40E94D6080F90DF91CF911F910F9162
:1017E000FF90EF900895FC0191818081813A31F45E
:1017F00081E0913091F0933091F010C0813271F41A
:101800009B3021F482818093090105C09A3031F424
:1018100082818093080181E00895089580E0089511
:1018200048E050E082E00C94D20BFC011682178253
:1018300010861186128613861482BC016C5F7F4F5E
:101840000C94100CE62F683810F0E85824C0F0E033
:1018500067FF12C0E058F10921E030E001C0220F1B
:10186000EA95EAF72095DC0114963C91149732230F
:1018700014963C93E0E00FC0E752FE4FE491EE2354
:1018800029F1E7FF08C0DC0114962C9114972D7FF5
:1018900014962C93EF7720E030E0EE2351F0DC013A
:1018A000A20FB31F16964C9116974E1302C01696B0
:1018B0001C922F5F3F4F2630310579F7BC016C5FDA
:1018C0007F4F0E94100C21E030E002C020E030E0A9
:1018D000C9010895CF93DF93DC01E62F683810F03B
:1018E000E85824C0F0E067FF11C0E058F10981E03A
:1018F00090E001C0880FEA95EAF714969C9114973E
:10190000982B14969C931497E0E010C0E752FE4F7A
:10191000E491E11101C040C0E7FF08C014968C912A
:101920001497826014968C931497EF7716968C9187
:1019300016978E1741F117968C9117978E1719F1FC
:1019400018968C9118978E17F1F019968C9119971B
:101950008E17C9F01A968C911A978E17A1F01B96C4
:101960008C911B978E1779F080E090E0ED01C80F05
:10197000D91F2E81211102C0EE8305C00196863049
:101980009105A1F709C0BD016C5F7F4FCD010E9499
:10199000100C21E030E008C081E090E013969C93A9
:1019A0008E93129720E030E0C901DF91CF91089526
:1019B0001092C7021092BE021092BD0281E591E022
:1019C0009093BC028093BB020895EE0FFF1F059019
:0A19D000F491E02D0994F894FFCF84
:1019DA0000E1000000000000010101800180018097
:1019EA00FF7FFF7FFF7F7374617274696E67206384
:1019FA00616C6962726174696F6E00000000002791
:101A0A0003F902CB02D402E802F80200000000EC5B
:101A1A0006B607A106C706AF061407170700000097
:0C1A2A0000A10BB6076A0C220C150C0082
:00000001FF
