:100000000C9477010C949F010C949F010C949F0118
:100010000C949F010C949F010C949F010C949F01E0
:100020000C949F010C949F010C94E7100C94B50F55
:100030000C949F010C949F010C949F010C949F01C0
:100040000C949F010C949F010C949F010C949F01B0
:100050000C949F010C949F010C949F010C94A80B8D
:100060000C949F010C949F010C949F010C949F0190
:100070000C949F010C949F010C949F010C949F0180
:100080000C949F010C949F010C949F010C949F0170
:100090000C9460090C949F010C949F010C949F0197
:1000A0000C949F010C949F010C949F01070605047A
:1000B0000100080A0B0C0D090000000200080E00E8
:1000C00000030401000B000000000000000000001D
:1000D00000000000000004080201104080401020D1
:1000E00040804080080204018040201002011080FE
:1000F0001020404004040404040304050202020228
:1001000004030202020206060606060604040202B0
:100110000204000000002300260029002C002F000C
:1001200000000000250028002B002E0031000000F8
:100130000000240027002A002D003000080B0002D8
:10014000020201000904000001020200000524006F
:100150001001052401010104240206052406000102
:100160000705810310004009040100020A00000095
:10017000070502024000000705830240000000C19D
:100180008081C1120100020200004041233680003C
:10019000010102000112010002000000404123366B
:1001A0008000010102000118034100720064007523
:1001B0000069006E006F0020004C004C00430022DC
:1001C00003410072006400750069006E006F00203A
:1001D000004C0065006F006E006100720064006FEB
:1001E000000403090400000000000000002A2B287E
:1001F00000000000000000000000000000000000FF
:1002000000000000002C9EB4A0A1A2A434A6A7A5C3
:10021000AE362D3738271E1F20212223242526B352
:1002200033B62EB7B89F8485868788898A8B8C8D54
:100230008E8F909192939495969798999A9B9C9D66
:100240002F3130A3AD350405060708090A0B0C0D44
:100250000E0F101112131415161718191A1B1C1D46
:10026000AFB1B0B50009040200010300000009218C
:10027000010100012265000705840340000105011A
:100280000902A1010901A10085010509190129033C
:1002900015002501950375018102950175058103FE
:1002A00005010930093109381581257F7508950345
:1002B0008106C0C005010906A1018502050719E0F4
:1002C00029E715002501750195088102950175083A
:1002D0008103950675081500256505071900296530
:1002E0008100C0009D021509A90D9B12B0021124C6
:1002F0001FBECFEFDAE0DEBFCDBF11E0A0E0B1E07E
:10030000E8EBF9E202C005900D92A835B107D9F7E4
:1003100012E0A8E5B1E001C01D92A53FB107E1F7E9
:1003200012E0CCEED2E004C02297FE010E941B1323
:10033000C43ED107C9F70E94E80D0C94CF140C9469
:1003400000000F931F93CF93DF9300D000D000D015
:10035000CDB7DEB786E0E5E1F1E0DE011196019070
:100360000D928A95E1F706E120ED37E046E0BE0107
:100370006F5F7F4F8FE791E00E94BE0384E791E0BB
:100380000E94650861E08DE00E94DB0A61E08DE07B
:100390000E94130B60E875E289E892E00E94A80DC4
:1003A00081EC91E00E940B0968EE73E080E090E040
:1003B0000E941C0C05EF1FEF0431110520F0C8014D
:1003C0008897449728F468EC70E088E39FEF04C0B6
:1003D00068E37FEF88EC90E00E94220361E08FE702
:1003E00091E00E94940764E170E080E090E00E9458
:1003F0001C0C0F5F1F4F05341105F1F660E070E033
:1004000080E090E00E94220360E08DE00E94130BE8
:100410008AE00E94730B0E94A20C10925F0110925E
:100420005E0110925D0110925C0110925B011092CE
:100430005A01109259011092580180E991E090936D
:10044000730180937201909371018093700184E72E
:1004500091E00E94650826960FB6F894DEBF0FBEA5
:10046000CDBFDF91CF911F910F91089520E041E022
:1004700064E671E08FE791E00E94F10590936301DB
:100480008093620124EC39E0281B390B3093610121
:10049000209360010F978B36934158F084ED9EEFC7
:1004A0009093710180937001909373018093720116
:1004B0003AC023333105A4F037FF02C02D5F3F4F10
:1004C00035952795359527953195219531092057F3
:1004D0003E4F309373012093720180E991E01FC079
:1004E0002E3C8FEF3807ACF480E991E090937301D4
:1004F0008093720137FF02C02D5F3F4F35952795DE
:100500003595279520573E4F309371012093700108
:100510000AC080E991E090937301809372019093F7
:1005200071018093700160917001709171018091EF
:100530007201909173010C9422038EE891E00E9465
:10054000E1078FE791E00E94B2038EE791E00E94FD
:10055000B40221E041E06CE084E791E00C940008F3
:100560008FE791E00C94BB07089561E08AE00E9458
:10057000DB0A61E089E00E94DB0A61E088E00E941A
:10058000DB0A61E087E00E94DB0A80EA809380005A
:1005900081E18093810080E991E0909387008093CE
:1005A000860008958091BE01811105C081E080938D
:1005B000BE010C94B5020895CF93DF93EC010E9425
:1005C000D202D7FF05C0D195C195D10981E001C004
:1005D00080E0C13991E0D90714F0C0E9D1E0D093AF
:1005E0008B00C0938A009091BC01891711F061E0E3
:1005F00001C060E088E0DF91CF910C94130BCF93A2
:10060000DF93EC010E94D202D7FF05C0D195C195BE
:10061000D10981E001C080E0C13991E0D90714F02F
:10062000C0E9D1E0D0938900C09388009091BD01CA
:10063000891711F061E001C060E087E0DF91CF91A0
:100640000C94130BCF93DF93EB010E94DC02CE01DD
:10065000DF91CF910C94FF02CF92DF92EF92FF9245
:100660000F93CF93DF931F92CDB7DEB76C017B0161
:10067000DC0111961C921E9213961C921E921297E8
:1006800015961C921E92149717961C921E921697FE
:10069000413120F080E11A968C9302C0FC01428720
:1006A000D60118968D919C911997892B11F030E005
:1006B0001EC0F601828590E029830E941F13D60197
:1006C00019969C938E9318972981009781F715C0EE
:1006D000832F90E0F701E80FF91F4081D6011896AB
:1006E000ED91FC911997E80FF91F40833F5FF601E8
:1006F0008285381768F3238706870F90DF91CF91A3
:100700000F91FF90EF90DF90CF900895CF93DF93FC
:10071000EC018B858F3F69F061E00E94DB0A60E0AD
:100720008B850E94130B88EC90E0DF91CF910C94A5
:10073000420CDF91CF910895CF93DF93EC018B852D
:100740008F3F69F061E00E94DB0A61E08B850E94C7
:10075000130B88EC90E0DF91CF910C94420CDF9169
:10076000CF910895FC0111821082138212821582AA
:10077000148217821682118610860895EF92FF92D6
:100780000F93CF93DF93EC017901202F00E00E94BB
:100790002C03FD86EC86DF91CF910F91FF90EF90B7
:1007A00008956F927F928F929F92AF92BF92CF9255
:1007B000DF92EF92FF920F931F93CF93DF93EC01A1
:1007C0008B0188859985892BF1F476C0ED2CF12C6D
:1007D0008C859D85F701EE0FFF1FE00FF11F9183C0
:1007E0008083E885F985EE0DFF1D61E080810E9420
:1007F000130BE885F985EE0DFF1D61E080810E94F5
:10080000DB0AD39401C0D12C8A85D816F8F28AE08D
:1008100090E00E94420CD12C13C0ED2CF12CE88505
:10082000F985EE0DFF1D60E080810E94DB0AE885FE
:10083000F985EE0DFF1D60E080810E94130BD394BB
:100840008A85D81650F30E94F20B6B017C0120C000
:100850000E94F20B3B016C187D08912C16C0A92C4C
:10086000B12CA885B985AA0DBB1D8C910E944A0B9D
:10087000892B51F4F501EE0FFF1FE00FF11F80816E
:10088000918168167906A8F093948A85981638F3B2
:100890000E94F20B6C197D098E099F092C853D85FC
:1008A0004901A12CB12C681579058A059B0580F2B8
:1008B00003C071826082E8CFDF91CF911F910F91C9
:1008C000FF90EF90DF90CF90BF90AF909F908F9070
:1008D0007F906F900895CF92DF92EF92FF920F93E7
:1008E0001F93CF93DF93EC018B0188859985892B2A
:1008F00051F445C0F801E80FF11DE80FF11D118218
:1009000010828F5F01C080E09A85891798F3C12C0F
:100910001BC0ED2CF12CA885B985AE0DBF1D8C91A7
:100920000E94730BF701EE0FFF1FE00FF11F2081F4
:100930003181280F391F31832083D39401C0D12CFA
:100940008A85D81630F3C3948F85C816C0F340E06B
:1009500013C0F801E40FF11DE40FF11D6F8570E085
:10096000CB019595879520813181820F931F0E943D
:10097000BB12718360834F5F8A85481750F3DF9104
:10098000CF911F910F91FF90EF90DF90CF9008953E
:10099000DF92EF92FF920F931F93CF93DF93CDB728
:1009A000DEB7A0970FB6F894DEBF0FBECDBF8C01A7
:1009B0007B01D42E842F8150823018F4C8010E940C
:1009C0009C03D8011E968C91B701811110C0C801FB
:1009D0000E94D103C8010E948603B2E0DB123CC032
:1009E000BE016F5F7F4FC8010E94D10333C0C801B1
:1009F0000E946B04C8010E948603E2E0DE122CC054
:100A0000BE016F5F7F4FC8010E946B0423C0842F1B
:100A100090E0880F991FF701E80FF91F21E030E0FF
:100A20002C0F3D1F820F931FD8011C962D913C91D6
:100A30001D97DC018D919C91281B390B8081918140
:100A4000820F931F918380834F5FF801828548173F
:100A5000F0F202C040E0F9CFA0960FB6F894DEBFE6
:100A60000FBECDBFDF91CF911F910F91FF90EF90FF
:100A7000DF900895BF92CF92DF92EF92FF920F9393
:100A80001F93CF93DF93EC018B01B42E82E04817C4
:100A900011F041110AC08C819D81892B09F497C006
:100AA0008E819F81892B09F492C08B2D81508230D9
:100AB00050F488819981892B09F489C08A819B81AE
:100AC000892B09F484C04B2DB801CE010E94C804C3
:100AD000780100E010E0C12CD12C73C0A1E0BA1263
:100AE0000AC0EA81FB81E00FF11F0190F081E02D47
:100AF000A881B9810CC08C819D81B1100DC0EE819F
:100B0000FF81E00FF11F0190F081E02DDC01A00FCB
:100B1000B11F8D919C9129C0FC01E00FF11F208134
:100B20003181E881F981E00FF11F408151818C858D
:100B30009D852417350720F0840F951F821B930B8A
:100B4000EE81FF81E00FF11F20813181EA81FB817D
:100B5000E00FF11F40815181EC85FD852417350799
:100B600020F0E40FF51FE21BF30BE81BF90BA9F0D3
:100B7000D7012D913C9140E050E0281B390B4109F1
:100B80005109A8EEB3E00E94A8129F0140E050E096
:100B90000E94F11237FD0AC002C020E030E0293E79
:100BA000B3E03B072CF028EE33E002C020E030E059
:100BB000F701219331937F01FFEFCF1ADF0A0E5F18
:100BC0001F4F8A8590E0C816D9060CF487CFDF91B5
:100BD000CF911F910F91FF90EF90DF90CF90BF903A
:100BE00008952F923F924F925F926F927F928F92D1
:100BF0009F92AF92BF92CF92DF92EF92FF920F93AC
:100C00001F93CF93DF93EC018B01822E0E943A0554
:100C10002A84E801412C512C320100E010E0C12C63
:100C2000D12C7601312C912C68EEA62E63E0B62EE5
:100C300026C0988189812296E92FF82F882021F0FB
:100C4000C5018E1B9F0BFC01E93CF10524F4E33345
:100C5000F10574F002C033243394DF01A301920143
:100C60000E94B312C60ED71EE81EF91E0E0F1F1FDC
:100C7000939498EE490E93E0591E611C711C9210DA
:100C8000D8CF31101DC0892D90E0019744EF51E07D
:100C9000849F9001859F300D949F300D11244091C9
:100CA000BF015091C00142175307BCF028EE33E05A
:100CB000829FB001839F700D929F700D11240FC011
:100CC000980140E050E0C701B6010E94CF12B9017F
:100CD0003093C0012093BF0102C060E070E0CB01FF
:100CE000DF91CF911F910F91FF90EF90DF90CF9008
:100CF000BF90AF909F908F907F906F905F904F903C
:100D00003F902F9008953F924F925F926F927F9203
:100D10008F929F92AF92BF92CF92DF92EF92FF920B
:100D20000F931F93CF93DF93CDB7DEB7C256D10990
:100D30000FB6F894DEBF0FBECDBF8C014B015A0138
:100D4000322EDA018D919C91892B31F0F401808152
:100D50009181892BF1F420C0D8011A968C9190E0F2
:100D6000880F991F0E941F13F501918380830097BC
:100D700009F4C1C0FC0180E090E003C0119211921F
:100D80000196D8011A962C9130E082179307B4F39C
:100D9000DDCFE12CF12C21C0F801828590E0880F95
:100DA000991F0E941F13D4018D939C93009709F4FF
:100DB000A2C0FC0180E090E008C0D8011C962D91F3
:100DC0003C911D97219331930196D8011A962C914D
:100DD00030E0821793078CF3DCCF432DBE016F5BAD
:100DE0007F4FC8010E94C804F8014284512C662438
:100DF0006394712C6C0E7D1EFE01EF5BFF4F9E0114
:100E00002F5D3F4FC901A3967FAE6EAEA39740E022
:100E100050E035C0E114F104A1F0DC01CD90DC908C
:100E200060817181C616D70660F0A396AEADBFADE6
:100E3000A397CD90DC90608171816C157D0548F0A1
:100E400010C060817181DC016D937C93E114F10429
:100E500061F760817181A396AEADBFADA3976D932D
:100E60007C934F5F5F4FA3966EAD7FADA3976E5F90
:100E70007F4FA3967FAF6EAFA3973296029644152D
:100E8000550544F27FEFE71AF70A8AE0E816F10405
:100E900009F0A3CF80E090E07E01A1E2EA0EF11C10
:100EA00024C0F301619171913F01A9014E195F09BD
:100EB000D501ED91FC91E40FF51FA081B181A6173A
:100EC000B70710F471836083F901619171919F01FB
:100ED000D401ED91FC91E40FF51F4081518164171D
:100EE000750710F4718360830196F801428550E024
:100EF00084179507B4F2CE59DF4F0FB6F894DEBFD2
:100F00000FBECDBFDF91CF911F910F91FF90EF905A
:100F1000DF90CF90BF90AF909F908F907F906F9019
:100F20005F904F903F9008951F93CF93DF93EC0114
:100F3000162F862F8150823018F0662359F017C083
:100F4000AE014E5F5F4F21E0BE01CE010E948306DD
:100F5000123069F4AE014A5F5F4FBE016C5F7F4F94
:100F600020E0CE01DF91CF911F910C948306DF9199
:100F7000CF911F910895CF93DF93EC0188859985D8
:100F8000009711F00E94BA138A819B81009711F09B
:100F90000E94BA138E819F81009711F00E94BA13AC
:100FA00088819981009711F00E94BA138C819D81EC
:100FB000009721F0DF91CF910C94BA13DF91CF917C
:100FC0000895CF93DF93EC0186E0EBE1F1E0DE01E1
:100FD000529601900D928A95E1F786E0E1E2F1E008
:100FE000DE011C9601900D928A95E1F784E090E075
:100FF0009A8F898F1CA61BA61DA6DF91CF910895FD
:10100000FC0160834183228313821482168215823D
:101010001086178211860895FC018181813011F4B8
:1010200062E001C060E080810E94DB0A85E090E020
:101030000C94420CFC012185211104C021E0218780
:101040000C940C080895CF93DF93EC0188810E94E3
:101050004A0B21E0892B09F020E081E09A8191116F
:1010600080E08227DF91CF910895CF93DF93EC0149
:101070000E941A08CE010E9423088111FBCF6AE06A
:1010800070E080E090E00E941C0CCE010E942308DA
:101090008111F0CFDF91CF910895CF93DF93EC01D1
:1010A0000E941A08CE010E9423088823D9F36AE01F
:1010B00070E080E090E00E941C0CCE010E942308AA
:1010C000882381F3DF91CF910895CF93DF93EC01D3
:1010D0000E944D08CE01DF91CF910C9435082091EC
:1010E000F00130E08091F101281B3109C901089518
:1010F0008091F1019091F001891750F4E82FF0E010
:10110000EE50FE4F208130E08F5F8093F10102C0EE
:101110002FEF3FEFC9010895E091F1018091F001B7
:10112000E81730F4F0E0EE50FE4F208130E002C0CE
:101130002FEF3FEFC90108950895CF92DF92EF920C
:10114000FF920F931F93CF93DF937C01CB018A0112
:101150002091CD01222391F0EB016B01C40ED51E2D
:1011600009C06991D701ED91FC910190F081E02DCA
:10117000C7010995CC15DD05A1F703C0642F0E94B6
:101180003709C801DF91CF911F910F91FF90EF9028
:10119000DF90CF900895CF93DF931F92CDB7DEB746
:1011A00069832091CD012223D1F02091CE012032FC
:1011B00040F021E030E0FC013383228320E030E086
:1011C00015C08091CF01E82FF0E0E053FE4F9981E8
:1011D00090838F5F8093CF018093CE0105C061E043
:1011E000CE0101960E94370921E030E0C9010F903D
:1011F000DF91CF910895FC011382128248EE53E0F3
:1012000060E070E044835583668377838BE291E0EE
:101210009183808308951092F1011092F001109251
:10122000CF011092CE010C94190981EC91E00C943D
:10123000FB0810921B0281E08093190210921802A1
:1012400061E082E00E94130B61E083E00E94130BD7
:10125000E9EBF0E080818E7F808380818D7F8083C9
:1012600088E48093B80085E48093BC0008956132DF
:1012700098F420911B02243089F460931402FC013D
:101280008CE392E0DC0102C021912D932A2F281BD0
:101290002617D0F380E0089581E0089582E0089554
:1012A00085ED8093BC008091BC0084FDFCCF109242
:1012B0001B02089585EC8093BC0010921B020895D8
:1012C0001F920F920FB60F9211242F933F934F93BB
:1012D0005F936F937F938F939F93AF93BF93EF939E
:1012E000FF938091B900887F803609F49FC058F53C
:1012F000883209F45BC090F4803109F452C038F4AC
:10130000882309F4F8C0883009F0F9C04AC0883150
:1013100009F44CC0803209F0F2C05CC0803409F49A
:101320006BC038F4803309F455C0883309F0E7C046
:1013300054C0803509F454C0883509F462C088343B
:1013400009F0DDC0DAC0883909F4CBC0A8F48837C9
:1013500009F46CC038F4883609F468C0803709F0A5
:10136000CEC064C0883809F4BCC0803909F464C0B8
:10137000803809F0C4C060C0803B09F48AC038F4EA
:10138000803A09F46BC0883A09F0B9C082C0803C49
:1013900009F4ABC0883C09F4A8C0883B09F0AFC091
:1013A0008DC080911A028093BB0012C090911702E9
:1013B00080911602981788F580911702E82FF0E0C7
:1013C000E45EFD4F90819093BB008F5F8093170286
:1013D00085EC88C08093120290C08093120256C0A0
:1013E000809117029091BB00E82FF0E0E45EFD4F82
:1013F00090838F5F8093170290911702809116025D
:101400006DC0809117029091BB00E82FF0E0E45E80
:10141000FD4F90838F5F8093170280911902811195
:101420006CC081E08093180284EA60C083E08093FE
:101430001B0210921302CCCF80911302803208F06D
:1014400050C0809113029091BB00E82FF0E0E05A69
:10145000FD4F90838F5F80931302BACF8091130268
:10146000803230F4E0911302F0E0E05AFD4F108238
:101470000E94500960911302E0915C02F0915D02BC
:1014800070E080E692E00995109213020E945A09DA
:1014900036C084E080931B02109215021092140251
:1014A000E0915E02F0915F02099580911402811132
:1014B00005C081E08093140210923C0280911502D5
:1014C000E82FF0E0E45CFD4F90819093BB008F5FCC
:1014D000809315029091150280911402981708F4D8
:1014E00077CF85E88093BC000AC085EC8093BC0070
:1014F00010921B0204C0109212020E945009FF9128
:10150000EF91BF91AF919F918F917F916F915F917B
:101510004F913F912F910F900FBE0F901F901895F4
:10152000883059F160F4823021F120F4813009F0E3
:1015300041C01CC0833081F08430E1F511C08B3094
:1015400051F128F48930E9F08A30A1F51EC08C30C1
:1015500031F18E3079F529C0809180008F7703C0FA
:10156000809180008F7D80938000089584B58F776F
:1015700002C084B58F7D84BD0895809190008F77DF
:1015800007C0809190008F7D03C080919000877F7D
:101590008093900008958091C0008F7703C0809160
:1015A000C0008F7D8093C00008958091C200877F26
:1015B0008093C2000895CF93DF9390E0FC01EA523C
:1015C000FF4F4491FC01EC50FF4F8491882341F17F
:1015D00090E0880F991FFC01E25DFE4F2591349148
:1015E000D901805E9E4FFC0185919491C82FD92F1F
:1015F0009FB7F8948C91611106C0409584238C9319
:101600008881842308C0623041F4242F20958223EE
:101610008C938881842B888302C0842B8C939FBFFA
:10162000DF91CF9108950F931F93CF93DF931F9274
:10163000CDB7DEB7282F30E0F901E854FF4F849191
:10164000F901EA52FF4F1491F901EC50FF4F049158
:101650000023D1F0882321F069830E94900A6981D8
:10166000E02FF0E0EE0FFF1FE05EFE4F85919491BA
:10167000DC019FB7F8948C91611103C01095812310
:1016800001C0812B8C939FBF0F90DF91CF911F9151
:101690000F910895CF93DF93282F30E0F901E8549C
:1016A000FF4F8491F901EA52FF4FD491F901EC50B8
:1016B000FF4FC491CC2389F081110E94900AEC2F36
:1016C000F0E0EE0FFF1FEE5EFE4F85919491DC017E
:1016D0008C918D2321E030E011F420E030E0C9014D
:1016E000DF91CF910895823108F08251E82FF0E028
:1016F000E455FF4FE49180917B00E3FB222720F922
:1017000030E095E0220F331F9A95E1F78F7D822B11
:1017100080937B00E77080910A0120E4829FC001E2
:101720001124E82BE0937C0080917A008064809300
:101730007A0080917A0086FDFCCF2091780030916C
:101740007900932F80E0AC01422B9A01C9010895E2
:101750001F920F920FB60F9211242F933F938F93E6
:101760009F93AF93BF938091800290918102A0914B
:101770008202B091830230918802232F2D5F2D3792
:1017800020F40196A11DB11D05C0232F2A570296F2
:10179000A11DB11D20938802809380029093810245
:1017A000A0938202B093830280918402909185027B
:1017B000A0918602B09187020196A11DB11D809370
:1017C000840290938502A0938602B0938702BF9112
:1017D000AF919F918F913F912F910F900FBE0F90DE
:1017E0001F9018950F931F939FB7F8940091840250
:1017F00010918502209186023091870286B5A89BC0
:1018000006C08F3F21F00F5F1F4F2F4F3F4F9FBFED
:10181000322F212F102F0027080F111D211D311DE0
:1018200042E0000F111F221F331F4A95D1F7B80164
:10183000C9011F910F910895CF92DF92EF92FF920D
:10184000CF93DF936B017C010E94F20BEB010EC082
:101850000E94F20B6C1B7D0B683E734038F081E0F8
:10186000C81AD108E108F108C851DC4FC114D104ED
:10187000E104F10469F7DF91CF91FF90EF90DF90E1
:10188000CF900895019739F0880F991F880F991FFD
:1018900002970197F1F70895789484B5826084BD2A
:1018A00084B5816084BD85B5826085BD85B5816064
:1018B00085BDEEE6F0E0808181608083E1E8F0E0C4
:1018C0001082808182608083808181608083E0E8F3
:1018D000F0E0808181608083E1E9F0E080818260D6
:1018E0008083808181608083E0E9F0E08081816095
:1018F0008083E1ECF0E0808184608083808182607D
:101900008083808181608083E3ECF0E0808181606E
:101910008083E0ECF0E0808182608083E2ECF0E0A4
:10192000808181608083EAE7F0E080818460808349
:1019300080818260808380818160808380818068F3
:1019400080830895009729F0BC0180E090E00C941A
:10195000AB1408952091D7023091D8028091D9021A
:101960009091DA02281B390B2F733327C901089590
:101970002091D7023091D8028091D9029091DA0259
:101980002817390749F0E091D902F091DA02E956B7
:10199000FD4F208130E002C02FEF3FEFC9010895D5
:1019A0002091D7023091D8028091D9029091DA0229
:1019B00028173907B1F0E091D902F091DA02E9561F
:1019C000FD4F80812091D9023091DA022F5F3F4F85
:1019D0002F7333273093DA022093D902282F30E077
:1019E00002C02FEF3FEFC90108950F931F93CF93CC
:1019F000DF931F92CDB7DEB78C016983809112010E
:101A0000882369F041E050E0BE016F5F7F4F83E0C3
:101A10000E94990E1816190614F49C0107C081E063
:101A200090E0F8019383828320E030E0C9010F90B9
:101A3000DF91CF911F910F91089583E00C94DD10F9
:101A4000CF93DF9312C082E00E94670E8F3F2FEF8B
:101A50009207C9F0E091D702F091D802E956FD4F04
:101A60008083D093D802C093D702C091D702D0917F
:101A7000D8022196CF73DD278091D9029091DA02A6
:101A8000C817D90701F7DF91CF910895FC01208194
:101A90002E5F208342E450E06CE371E080E80C9418
:101AA000340FFC0181819081913A59F4813209F01F
:101AB0004BC047E050E06BE071E080E00E94340FE3
:101AC00045C0913209F040C0803239F467E070E0DF
:101AD0008BE091E00E94870F39C0823209F034C058
:101AE00082818093120180910B0190910C01A09151
:101AF0000D01B0910E01803B9440A105B10531F577
:101B00008091120180FD12C087E797E7909301084A
:101B1000809300082BE088E190E00FB6F894A89538
:101B2000809360000FBE2093600010C088E10FB664
:101B3000F89480936000109260000FBEA8951092F8
:101B400001081092000802C080E0089581E0089525
:101B5000089510928C0210928B0288EE93E0A0E020
:101B6000B0E080938D0290938E02A0938F02B09389
:101B700090028BE391E090938A028093890208950A
:101B8000CF92DF92EF92FF920F931F93CF93DF9349
:101B90006C01EB017A01E60EF71E00E010E00BC0CD
:101BA0006991D601ED91FC910190F081E02DC60183
:101BB0000995080F191FCE15DF0591F7C801DF91B0
:101BC000CF911F910F91FF90EF90DF90CF900895EC
:101BD0000E944C0C8BED92E00E9446110E94A101E4
:101BE000C0E0D0E00E9436022097E1F30E9400009E
:101BF000F9CF05C02091F100FC012193CF01615084
:101C0000C8F7289884E68093E20208952FB7FC0174
:101C10002083F89467706093E9000895CF93DF9371
:101C20001F92CDB7DEB7682FCE0101960E94060E37
:101C30008091F20099819FBF0F90DF91CF9108951D
:101C4000FF920F931F93CF93DF9300D0CDB7DEB7F2
:101C5000F62E8A019091E1029923A9F057FF16C050
:101C600012C028988093E2029091F1009193FE12A5
:101C7000F8CF4115510521F08091F2008823D1F071
:101C800089818FBF1BC04FEF5FEF18C0682FCE0157
:101C900001967A830E94060E8091F20090E0A801DE
:101CA0007A81801791070CF4AC01EF2DF72FF40E19
:101CB00084E6DDCF8BE68093E800E2CFCA010F9087
:101CC0000F90DF91CF911F910F91FF900895CF93C7
:101CD000DF931F92CDB7DEB741E050E0BE016F5FEA
:101CE0007F4F0E94200E019719F4298130E002C035
:101CF0002FEF3FEFC9010F90DF91CF910895CF9360
:101D0000DF931F92CDB7DEB7682FCE0101960E94F8
:101D1000060E8091E80085FF05C09091F20080E4F6
:101D2000891B01C080E099819FBF0F90DF91CF9107
:101D300008956F927F928F929F92AF92BF92CF92AF
:101D4000DF92EF92FF920F931F93CF93DF931F9237
:101D5000CDB7DEB7782EC42EB52E8091E102811169
:101D60004CC02FEF3FEF64C0872D0E947F0E682E7E
:101D7000811109C0DA94A9F361E070E080E090E09D
:101D80000E941C0C47C0282F30E0021713070CF4E8
:101D9000602E06191109672DCE0101960E94060ECC
:101DA000992041F002C01092F1006A948FEF6812FE
:101DB000FACF17C0862D77FC02C0F7010EC097013D
:101DC00006C0F9012F5F3F4FE491E093F10081508D
:101DD000C0F705C091919093F1008150D8F7E60CBF
:101DE000F11C8091E80085FF20C00115110511F458
:101DF00081101BC089818FBF0DC07B01042F152F5F
:101E00008AEFD82E90E2992E97202AE3A22E30E472
:101E1000832E87200115110509F0A6CF5D9884E671
:101E20008093E3022C2D3B2D03C0A092E800E2CF6B
:101E3000C9010F90DF91CF911F910F91FF90EF900B
:101E4000DF90CF90BF90AF909F908F907F906F90DA
:101E500008951092E9001092E0021092DF02909330
:101E6000DE028093DD020895FF920F931F93CF93BC
:101E7000DF93C42FD52FDB0160E070E0EEEFFE2E84
:101E800038C09D012F5F3F4F87FF04C0FD01D9017E
:101E9000E49102C0EC91D9010091DF021091E002BF
:101EA0002091DD023091DE0202171307B4F4909105
:101EB000E8009570E1F39091E80092FD1FC0E09377
:101EC000F1002091DF023091E0022F5F3F4F2F732E
:101ED0003327232B11F4F092E8002091DF02309198
:101EE000E0022F5F3F4F3093E0022093DF026F5FED
:101EF0007F4F6C177D0729F69A0102C02FEF3FEF45
:101F0000C901DF91CF911F910F91FF9008951F9309
:101F1000CF93DF931F92CDB7DEB7162F2091E80045
:101F200022FFFCCF612F79830E94F90D8BEF809304
:101F3000E800812F7981972F0F90DF91CF911F912A
:101F40000895CF93DF931F92CDB7DEB71982CE01EC
:101F500001960E94460DCE0101960E94831189814F
:101F600090E00F90DF91CF9108951F920F920FB6DE
:101F70000F921124EF92FF920F931F932F933F9391
:101F80004F935F936F937F938F939F93AF93BF9381
:101F9000EF93FF93CF93DF93CDB7DEB76297DEBFAA
:101FA000CDBF1092E9008091E80083FFE9C068E0AE
:101FB000CE010A960E94F90D82EF8093E8009A857F
:101FC00097FF05C08091E80080FFFCCF03C08EEF33
:101FD0008093E800892F807609F0B7C08B85811146
:101FE00005C01092F1001092F100C3C0813009F4D5
:101FF000C0C0833009F4BDC0853049F48091E80049
:1020000080FFFCCF8C8580688093E300B2C086306F
:1020100009F073C02D85E888F988223071F580E0D9
:1020200090E02A8B0E94290F0E94A10F99E08E0157
:102030000F5F1F4FF801392F11923A95E9F79983F5
:102040002A892A8391E09E8390E898879AEF99875E
:102050002091DF023091E002275F3F4F3C832B83CA
:102060008D83C7010E94290F49E050E0B80180E04C
:102070000E94340F0E94A10F7CC0C7012A8B0E94CE
:10208000290F2A89223241F482E290E00E948E11C7
:10209000892B09F06EC071C0213071F4888999894B
:1020A000089719F481E08093DC028091DC02882398
:1020B00089F063E871E016C0233009F05EC08C85BA
:1020C000882359F0823061F0813009F056C067EA08
:1020D00071E008C065E971E005C061EE71E002C021
:1020E0006FEB71E06115710509F447C0FB01449184
:1020F00050E080E80E94340F3CC0873009F43DC0B6
:10210000883021F481E08093F10033C0893089F573
:10211000937099F5EFE7F1E081E021E096E3809399
:10212000E9002093EB0034913093EC009093ED00A4
:102130008F5F3196853099F78EE78093EA00109291
:10214000EA008C858093E10214C0888999890E94F5
:10215000290F8E85811105C0CE010A960E94510D6E
:1021600006C0823051F4CE010A960E94B61188232F
:1021700021F08EEF8093E80003C081E28093EB00B2
:1021800062960FB6F894DEBF0FBECDBFDF91CF9140
:10219000FF91EF91BF91AF919F918F917F916F913F
:1021A0005F914F913F912F911F910F91FF90EF9071
:1021B0000F900FBE0F901F9018958093E9008091AB
:1021C000F200882319F08AE38093E80008951F92B3
:1021D0000F920FB60F9211242F933F934F935F935B
:1021E0006F937F938F939F93AF93BF93EF93FF93DF
:1021F0008091E1001092E10083FF0FC01092E9008E
:1022000091E09093EB001092EC0092E39093ED003C
:102210001092E10298E09093F00082FF26C083E0E4
:102220000E94DD1082E00E940E0E882321F089E8D2
:1022300092E00E94200D8091E302882339F0809182
:10224000E30281508093E302882361F08091E202EF
:10225000882359F08091E20281508093E202882322
:1022600019F003C05D9AF2CF289AFF91EF91BF91C8
:10227000AF919F918F917F916F915F914F913F911E
:102280002F910F900FBE0F901F9018951092E102A2
:1022900081E08093D70080EA8093D80082E189BDF5
:1022A00009B400FEFDCF61E070E080E090E00E94A4
:1022B0001C0C80E98093D8008CE08093E20010929F
:1022C000E000559A209A0895FF920F931F93CF93A1
:1022D000DF93EC01F62EE881F9810480F581E02D91
:1022E00009958C01E881F9810680F781E02D6F2D39
:1022F000CE01099598013327C901DF91CF911F9134
:102300000F91FF900895FC0120812F5F208349E108
:1023100050E065E672E080E80C94340F45E650E04A
:102320006EE772E080E80C94340FEF92FF920F9307
:102330001F93CF93DF931F92CDB7DEB789838B01B5
:102340007A0141E050E0BE016F5F7F4F84E00E9460
:10235000990EA701B80184E40E94990E0F90DF91B5
:10236000CF911F910F91FF90EF900895FC01918103
:102370008081813A31F481E0913091F0933091F095
:1023800010C0813271F49B3021F48281809314015A
:1023900005C09A3031F482818093130181E0089561
:1023A000089580E0089548E050E082E00C94951193
:1023B000FC011682178210861186128613861482FB
:1023C000BC016C5F7F4F0C94D311E62F683810F07E
:1023D000E85824C0F0E067FF12C0E058F10921E09E
:1023E00030E001C0220FEA95EAF72095DC0114964F
:1023F0003C911497322314963C93E0E00FC0EB51CC
:10240000FE4FE491EE2329F1E7FF08C0DC011496AA
:102410002C9114972D7F14962C93EF7720E030E0C9
:10242000EE2351F0DC01A20FB31F16964C911697C4
:102430004E1302C016961C922F5F3F4F2630310577
:1024400079F7BC016C5F7F4F0E94D31121E030E02F
:1024500002C020E030E0C9010895CF93DF93DC0192
:10246000E62F683810F0E85824C0F0E067FF11C08C
:10247000E058F10981E090E001C0880FEA95EAF7A1
:1024800014969C911497982B14969C931497E0E0C3
:1024900010C0EB51FE4FE491E11101C040C0E7FFD5
:1024A00008C014968C911497826014968C9314979C
:1024B000EF7716968C9116978E1741F117968C919F
:1024C00017978E1719F118968C9118978E17F1F0AF
:1024D00019968C9119978E17C9F01A968C911A97A4
:1024E0008E17A1F01B968C911B978E1779F080E0C8
:1024F00090E0ED01C80FD91F2E81211102C0EE839B
:1025000005C0019686309105A1F709C0BD016C5F39
:102510007F4FCD010E94D31121E030E008C081E05F
:1025200090E013969C938E93129720E030E0C901BF
:10253000DF91CF9108951092F0021092E70210926D
:10254000E6028DE491E09093E5028093E402089521
:102550000E940D13A59F900DB49F900DA49F800D18
:10256000911D11240895B7FF0C94A8120E94A8127F
:10257000821B930B0895AA1BBB1B51E107C0AA1F26
:10258000BB1FA617B70710F0A61BB70B881F991F14
:102590005A95A9F780959095BC01CD010895A1E2C7
:1025A0001A2EAA1BBB1BFD010DC0AA1FBB1FEE1FCD
:1025B000FF1FA217B307E407F50720F0A21BB30B18
:1025C000E40BF50B661F771F881F991F1A9469F794
:1025D00060957095809590959B01AC01BD01CF01F0
:1025E0000895052E97FB16F4009407D057FD0DD0E3
:1025F0000E94CF1207FC09D07EF4909580957095CB
:1026000061957F4F8F4F9F4F08955095409530951E
:1026100021953F4F4F4F5F4F0895A29FB001B39F49
:10262000C001A39F01D0B29F700D811D1124911D87
:102630000895EE0FFF1F0590F491E02D09940F937C
:102640001F93CF93DF938230910510F482E090E0E6
:10265000E091F302F091F40220E030E0C0E0D0E03D
:1026600023C04081518148175907A8F048175907DE
:1026700061F482819381209719F09B838A832EC015
:102680009093F4028093F30229C02115310529F0BB
:102690004217530710F0A90102C0BE01DF010281F9
:1026A0001381EF019A01F8013097D9F62115310510
:1026B00009F1281B390B2430310590F412968D91C5
:1026C0009C9113976115710521F0FB01938382831F
:1026D00004C09093F4028093F302FD01329644C04B
:1026E000FD01E20FF31F81939193225031092D9345
:1026F0003C933AC02091F1023091F202232B41F435
:1027000020910201309103013093F2022093F102F3
:1027100020910001309101012115310541F42DB7BF
:102720003EB74091040150910501241B350BE09107
:10273000F102F091F202E217F307A0F42E1B3F0B17
:102740002817390778F0AC014E5F5F4F2417350723
:1027500048F04E0F5F1F5093F2024093F1028193B5
:10276000919302C0E0E0F0E0CF01DF91CF911F91A3
:102770000F910895EF92FF920F931F93CF93DF93E2
:10278000009709F48EC0DC01129713961C921E92DA
:102790001297E090F302F090F402E114F10489F44E
:1027A0002D913C911197280F391F8091F102909142
:1027B000F2028217930789F5B093F202A093F10217
:1027C00070C0E70120E030E001C0EA01CA17DB0772
:1027D00038F44A815B819E0141155105B1F722C051
:1027E000AC0142505109FA01D383C28300811181A7
:1027F000BC01600F711F6C177D0761F468817981DE
:10280000600F711F6E5F7F4F718360836A817B8170
:10281000738362832115310529F4B093F402A093E8
:10282000F3023FC0F901B383A283E90149915991B1
:10283000C40FD51FAC17BD0771F4DC019E918E91BA
:10284000840F951F02969183808312968D919C919F
:10285000139793838283A0E0B0E002C0D7017C018C
:10286000F701828193810097C9F7C7010296208101
:102870003181820F931F2091F1023091F2022817CB
:10288000390779F4109729F41092F4021092F302A8
:1028900004C013961C921E921297F092F202E092DC
:1028A000F102CDB7DEB7E6E00C94C0148F929F9290
:1028B000AF92BF92CF92DF92EF92FF92CF93DF93CE
:1028C000EC01688179818A819B816115710581059F
:1028D000910521F464E279ED8BE597E02DE133EF8A
:1028E00041E050E00E94F11249015A019B01AC0104
:1028F000A7EAB1E40E94A8126B017C01ACEEB4EF30
:10290000A50194010E94B612C60ED71EE81EF91E3C
:10291000F7FE06C081E0C81AD108E10880E8F80A8D
:10292000C882D982EA82FB82E894F7F8B601C7012F
:10293000DF91CF91FF90EF90DF90CF90BF90AF905D
:102940009F908F9008950E945614089586E091E01C
:102950000E945614089560930601709307018093B6
:1029600008019093090108952A88398848885F846E
:102970006E847D848C849B84AA84B984C884DF801F
:10298000EE80FD800C811B81AA81B981CE0FD11D03
:102990000FB6F894DEBF0FBECDBFED01089512E073
:1029A000CCEED2E004C0FE010E941B132296CE3E64
:0829B000D107C9F7F894FFCF2D
:1029B8000000F5022000010000000100E100000015
:1029C800000000010104150B1214050180018001AB
:1029D80080FF7FFF7FFF7F00000000CB089D086F0E
:1029E8000878088C089C0800000000F50CC00DAAA7
:1029F8000CD00CB80C1D0D200D000000006411C097
:082A08000D2D12E511D811009B
:00000001FF
