:100000000C9477010C949F010C949F010C949F0118
:100010000C949F010C949F010C949F010C949F01E0
:100020000C949F010C949F010C946B170C9439163F
:100030000C949F010C949F010C949F010C949F01C0
:100040000C949F010C949F010C949F010C949F01B0
:100050000C949F010C949F010C949F010C94EF1140
:100060000C949F010C949F010C949F010C949F0190
:100070000C949F010C949F010C949F010C949F0180
:100080000C949F010C949F010C949F010C949F0170
:100090000C94A70F0C949F010C949F010C949F014A
:1000A0000C949F010C947F0D0C949F01070605048E
:1000B0000100080A0B0C0D090000000200080E00E8
:1000C00000030401000B000000000000000000001D
:1000D00000000000000004080201104080401020D1
:1000E00040804080080204018040201002011080FE
:1000F0001020404004040404040304050202020228
:1001000004030202020206060606060604040202B0
:100110000204000000002300260029002C002F000C
:1001200000000000250028002B002E0031000000F8
:100130000000240027002A002D003000080B0002D8
:10014000020201000904000001020200000524006F
:100150001001052401010104240206052406000102
:100160000705810310004009040100020A00000095
:10017000070502024000000705830240000000C19D
:100180008081C1120100020200004041233680003C
:10019000010102000112010002000000404123366B
:1001A0008000010102000118034100720064007523
:1001B0000069006E006F0020004C004C00430022DC
:1001C00003410072006400750069006E006F00203A
:1001D000004C0065006F006E006100720064006FEB
:1001E000000403090400000000000000002A2B287E
:1001F00000000000000000000000000000000000FF
:1002000000000000002C9EB4A0A1A2A434A6A7A5C3
:10021000AE362D3738271E1F20212223242526B352
:1002200033B62EB7B89F8485868788898A8B8C8D54
:100230008E8F909192939495969798999A9B9C9D66
:100240002F3130A3AD350405060708090A0B0C0D44
:100250000E0F101112131415161718191A1B1C1D46
:10026000AFB1B0B50009040200010300000009218C
:10027000010100012265000705840340000105011A
:100280000902A1010901A10085010509190129033C
:1002900015002501950375018102950175058103FE
:1002A00005010930093109381581257F7508950345
:1002B0008106C0C005010906A1018502050719E0F4
:1002C00029E715002501750195088102950175083A
:1002D0008103950675081500256505071900296530
:1002E0008100C0001705C40E2D141F192F051124FD
:1002F0001FBECFEFDAE0DEBFCDBF11E0A0E0B1E07E
:10030000EEE3F7E302C005900D92AA37B107D9F7E3
:1003100013E0AAE7B1E001C01D92A534B107E1F7EF
:1003200012E0CCEED2E004C02297FE010E94DE195A
:10033000C43ED107C9F70E946C140C94921B0C9414
:1003400000008091C7019091C8010E947D1A8091A0
:10035000BD019091BE010E947D1A8DED91E00C943B
:10036000B707FF920F931F93CF93DF9300D000D076
:1003700000D0CDB7DEB7F82E192F062F0E942F061A
:1003800086E0EFE1F1E0DE01119601900D928A9591
:10039000E1F720ED37E046E0BE016F5F7F4F8F2D24
:1003A000912F0E943B0626960FB6F894DEBF0FBE33
:1003B000CDBFDF91CF911F910F91FF900895CF9303
:1003C000DF9361E08DE00E945A1188EF91E00E9476
:1003D000400A60E08DE00E945A11C4E0D0E061E084
:1003E0008DE00E945A114AE06AEF70E08CE30E94AF
:1003F000AE0B6AEF70E080E090E00E94751260E062
:100400008DE00E945A116EEE72E080E090E00E9452
:100410007512219721F74AE064EF71E088E40E94A9
:10042000AE0B61E08DE00E945A116CE870E080E054
:1004300090E00E94751260E08DE00E945A1162E81F
:1004400070E080E090E00E94751261E08DE00E9413
:100450005A1168E770E080E090E00E94751260E059
:100460008DE00E945A116EE670E080E090E00E94FC
:10047000751261E08DE00E945A1164E670E080E040
:1004800090E00E94751260E08DE00E945A116AE5CA
:1004900070E080E090E00E94751261E08DE00E94C3
:1004A0005A1160E570E080E090E00E94751260E013
:1004B0008DE00E945A1166E470E080E090E00E94B6
:1004C000751261E08DE00E945A1110927A0110922B
:1004D000C9011092CA011092CB011092CC010E9466
:1004E00039126093CD017093CE018093CF01909328
:1004F000D0011092DA011092D9011092D501109218
:10050000D6011092D7011092D801DF91CF910895B2
:100510008091D9019091DA010197029718F024EBAC
:1005200030E002C020E931E0C901089581E0809304
:100530007A018091D1019091D201A091D301B09123
:10054000D4018093C9019093CA01A093CB01B093C9
:10055000CC0122E030E03093DA012093D90180937E
:10056000D5019093D601A093D701B093D8010895F7
:1005700010927A011092DA011092D9010895CF9366
:10058000DF93D82FC62F0E94B80264ED7EEF84ED72
:100590009EEF0E949F0568EC70E080E090E00E9472
:1005A00075128D2F992787FD909544ED5EEF849FFE
:1005B000B001859F700D949F700D11242CE231E0E5
:1005C000AC01429FC001439F900D529F900D11249A
:1005D0000E949F05CC23A9F068E070E080E090E0E5
:1005E0000E9403139B01AC012250310941095109BA
:1005F000ADE2B0E00E9447196C547F4F8F4F9F4F80
:1006000004C064EB70E080E090E00E9475120E94EC
:100610008802BC010E949F050E9439126093CD019F
:100620007093CE018093CF019093D001DF91CF9151
:100630000895CF93DF93EC0147E260E270E00E94FF
:100640000308898D823041F448E063E270E0CE0116
:10065000DF91CF910C940308DF91CF91089580E151
:1006600092E00E948A0E42E050E064E070E08BE786
:1006700091E00E94DA088BE791E00E9419030E9442
:100680003912CB010E94FB1261E08DE00E94221121
:1006900081E00E94E70D80E00C94DF01FC0164AD75
:1006A00075AD6115710529F48091020290910302E4
:1006B0000895FC01E05CFF4F808191810E948A19BE
:1006C000CB010895FC01EC5BFF4F628173816115E2
:1006D000710529F4809102029091030208958681A8
:1006E00097810E948A19CB010895CF92DF92EF92F1
:1006F000FF926C010E944E037C01C6010E946203BE
:10070000AC019701D7010E942C196B017C019A0161
:10071000DA010E942C19C60ED71EE81EF91EB6017A
:10072000C701FF90EF90DF90CF9008950F931F9334
:100730008BE791E00E9475036130744E8745910507
:100740007CF18091D1019091D201A091D301B0911F
:10075000D4014091CD015091CE016091CF017091B3
:10076000D0018C019D01041B150B260B370BB90121
:10077000A801413951406105710590F04091C901CE
:100780005091CA016091CB017091CC01841B950BF3
:10079000A60BB70B21E0893E9340A105B10508F4F3
:1007A00020E0822F1F910F910895FC014085518513
:1007B000A481B581AA0FBB1FA40FB51F86819781A5
:1007C0002D913C911197821B930B978386836D9398
:1007D0007C9324813581D901AA0FBB1FA40FB51FBB
:1007E000868197814D915C91840F951F97838683B5
:1007F000C9010196958384832081318182179307F3
:1008000011F41582148282819381821793071CF45C
:1008100001969383828308950F931F93CF93DF9361
:1008200000D000D0CDB7DEB78C0149835A836B83EB
:100830007C830E942C08D8018D919C911197D296AF
:10084000ED91FC91D39712962D913C91139749818C
:100850005A816B817C818E179F0739F4D496ED9174
:10086000FC91D5972E173F0701F1F80146A757A72E
:1008700060AB71AB93AB82AB35AB24ABBC01C801B1
:10088000CA960E94D503D801D4966D917C91D597D4
:10089000C8018C5B9F4F0F900F900F900F90DF91CE
:1008A000CF911F910F910C94D5030F900F900F9043
:1008B0000F90DF91CF911F910F91089588EF91E0F4
:1008C0000E94060A882369F060E070E080E090E012
:1008D0000E949F0588EF91E00E94100A81E00E942B
:1008E000DF010E943912AB01BC014093D10150934A
:1008F000D2016093D3017093D4018BE791E00E9401
:100900000C0441E06CEE71E08DED91E00E94450732
:100910008091D9019091DA010297F9F48091D10187
:100920009091D201A091D301B091D4014091D50111
:100930005091D6016091D7017091D801841B950B1D
:10094000A60BB70B8B3F9105A105B10530F081E0F7
:1009500090E09093DA018093D9018091EC0190911D
:10096000ED018C3D954018F461E081E009C0809173
:10097000F6019091F7018C3D954020F461E08FEFF6
:100980000C94BF020E94960381110E9496020E945D
:100990008802BC010C949F05FC011382128215820F
:1009A000148280910202909103029783868380E0F3
:1009B00090E00EC02091020230910302AC01440F7E
:1009C000551FA085B185A40FB51F2D933C930196AB
:1009D00020813181821793076CF308950F931F9341
:1009E000CF93DF93EC010E94E40703E010E01BAF1C
:1009F0000AAF86E090E00E94E219FE01EE5BFF4F35
:100A000080839183CE01CA960E94CC04CC5BDF4FD9
:100A10001983088386E090E00E94E219888799870D
:100A2000CE01DF91CF911F910F910C94CC0421E066
:100A300041E06CE088EF91E00E94D1096FEF8DED0D
:100A400091E00E94B1018CED91E00E9431058BEDA7
:100A500091E00E94930A8BE791E00C94EE040C94D1
:100A6000A101089561E08AE00E94221161E089E01D
:100A70000E94221161E088E00E94221161E087E07B
:100A80000E94221180EA8093800081E1809381009E
:100A900080E991E09093870080938600089580918B
:100AA0000602811105C081E0809306020C94320594
:100AB0000895CF93DF93EC010E944F05D7FF05C047
:100AC000D195C195D10981E001C080E0C13991E0A3
:100AD000D90714F0C0E9D1E0D0938B00C0938A000D
:100AE00090910402891711F061E001C060E088E094
:100AF000DF91CF910C945A11CF93DF93EC010E94B8
:100B00004F05D7FF05C0D195C195D10981E001C03E
:100B100080E0C13991E0D90714F0C0E9D1E0D09369
:100B20008900C093880090910502891711F061E057
:100B300001C060E087E0DF91CF910C945A11CF9310
:100B4000DF93EB010E945905CE01DF91CF910C9408
:100B50007C05CF92DF92EF92FF920F93CF93DF93BA
:100B60001F92CDB7DEB76C017B01DC0111961C92A0
:100B70001E9213961C921E92129715961C921E920C
:100B8000149717961C921E921697413120F080E11F
:100B90001A968C9302C0FC014287D60118968D915B
:100BA0009C911997892B11F030E01EC0F6018285C7
:100BB00090E029830E94E219D60119969C938E93A6
:100BC00018972981009781F715C0832F90E0F701CE
:100BD000E80FF91F4081D6011896ED91FC91199705
:100BE000E80FF91F40833F5FF6018285381768F3ED
:100BF000238706870F90DF91CF910F91FF90EF90A1
:100C0000DF90CF900895CF93DF93EC018B858F3FDA
:100C100069F061E00E94221160E08B850E945A1108
:100C200088EC90E0DF91CF910C949B12DF91CF91F3
:100C30000895CF93DF93EC018B858F3F69F061E0DE
:100C40000E94221161E08B850E945A1188EC90E08D
:100C5000DF91CF910C949B12DF91CF910895FC010D
:100C600011821082138212821582148217821682D8
:100C7000118610860895EF92FF920F93CF93DF9322
:100C8000EC017901202F00E00E94A905FD86EC8689
:100C9000DF91CF910F91FF90EF9008956F927F9227
:100CA0008F929F92AF92BF92CF92DF92EF92FF927C
:100CB0000F931F93CF93DF93EC018B018885998568
:100CC000892BF1F476C0ED2CF12C8C859D85F701F4
:100CD000EE0FFF1FE00FF11F91838083E885F985F8
:100CE000EE0DFF1D61E080810E945A11E885F985B3
:100CF000EE0DFF1D61E080810E942211D39401C09E
:100D0000D12C8A85D816F8F28AE090E00E949B12D6
:100D1000D12C13C0ED2CF12CE885F985EE0DFF1DCB
:100D200060E080810E942211E885F985EE0DFF1DAB
:100D300060E080810E945A11D3948A85D81650F3BE
:100D40000E944B126B017C0120C00E944B123B01A0
:100D50006C187D08912C16C0A92CB12CA885B985DA
:100D6000AA0DBB1D8C910E949111892B51F4F501A4
:100D7000EE0FFF1FE00FF11F808191816816790649
:100D8000A8F093948A85981638F30E944B126C1938
:100D90007D098E099F092C853D854901A12CB12C27
:100DA000681579058A059B0580F203C0718260820F
:100DB000E8CFDF91CF911F910F91FF90EF90DF90DF
:100DC000CF90BF90AF909F908F907F906F9008953D
:100DD000CF92DF92EF92FF920F931F93CF93DF9307
:100DE000EC018B0188859985892B51F445C0F80168
:100DF000E80FF11DE80FF11D118210828F5F01C015
:100E000080E09A85891798F3C12C1BC0ED2CF12C3A
:100E1000A885B985AE0DBF1D8C910E94BA11F7014E
:100E2000EE0FFF1FE00FF11F20813181280F391FC6
:100E300031832083D39401C0D12C8A85D81630F316
:100E4000C3948F85C816C0F340E013C0F801E40FC7
:100E5000F11DE40FF11D6F8570E0CB01959587952D
:100E600020813181820F931F0E94761971836083E4
:100E70004F5F8A85481750F3DF91CF911F910F91F3
:100E8000FF90EF90DF90CF900895DF92EF92FF9266
:100E90000F931F93CF93DF93CDB7DEB7A0970FB615
:100EA000F894DEBF0FBECDBF8C017B01D42E842F02
:100EB0008150823018F4C8010E941906D8011E968C
:100EC0008C91B701811110C0C8010E944E06C80163
:100ED0000E940306B2E0DB123CC0BE016F5F7F4F91
:100EE000C8010E944E0633C0C8010E94E806C8012E
:100EF0000E940306E2E0DE122CC0BE016F5F7F4F4E
:100F0000C8010E94E80623C0842F90E0880F991F33
:100F1000F701E80FF91F21E030E02C0F3D1F820F91
:100F2000931FD8011C962D913C911D97DC018D914A
:100F30009C91281B390B80819181820F931F918393
:100F400080834F5FF80182854817F0F202C040E0CD
:100F5000F9CFA0960FB6F894DEBF0FBECDBFDF91DC
:100F6000CF911F910F91FF90EF90DF900895CF9355
:100F7000DF93EC0188859985009711F00E947D1A16
:100F80008A819B81009711F00E947D1A8E819F813A
:100F9000009711F00E947D1A88819981009711F0C5
:100FA0000E947D1A8C819D81009721F0DF91CF9165
:100FB0000C947D1ADF91CF910895DC01ED91FC91A5
:100FC0000190F081E02D0994CF93DF93EC0186E04E
:100FD000E5E2F1E0DE01529601900D928A95E1F78B
:100FE00086E0EBE2F1E0DE011C9601900D928A951D
:100FF000E1F784E090E09A8F898F1CA61BA61DA6BE
:10100000DF91CF910895EF92FF921F93CF93DF93DB
:101010001F92CDB7DEB77C01162FFC01638D80E1F6
:1010200092E049830E94A40E612F80E192E00E9429
:101030004A0E4981642F80E192E00E944A0E80E1CD
:1010400092E00E94C10EF701808F0F90DF91CF9147
:101050001F91FF90EF9008959F92AF92BF92CF9211
:10106000DF92EF92FF920F931F93CF93DF93EC01E8
:101070006B8D80E192E00E94A40E68EA70E080E14E
:1010800092E00E94DD0780E192E00E94C10E888F0D
:1010900046E06B8D80E192E00E94A10E0E94391221
:1010A0006B010DC08BA59CA5892B49F00E943912BC
:1010B0006C197D098BA59CA58617970798F180E18F
:1010C00092E00E94EE0D06976CF380E192E00E94A0
:1010D000F70DA82E80E192E00E94F70D982E80E196
:1010E00092E00E94F70DC82E80E192E00E94F70D79
:1010F000B82E80E192E00E94F70DD82E80E192E0B8
:101100000E94F70DF92CE12CEA28F982E8821B2DC8
:1011100000E00C291B830A83982F88278D299D8343
:101120008C8302C081E08DA7DF91CF911F910F9139
:10113000FF90EF90DF90CF90BF90AF909F90089579
:10114000EF92FF921F93CF93DF931F92CDB7DEB73D
:101150007C01162F80E192E049830E94A40E498110
:10116000642F80E192E00E944A0E80E192E00E94AA
:10117000C10EF701808F41E0612F80E192E00E9473
:10118000A10E80E192E00E94EE0D892B51F080E1EA
:1011900092E00F90DF91CF911F91FF90EF900C9410
:1011A000F70D8FEF9FEF0F90DF91CF911F91FF9081
:1011B000EF9008950F931F93CF93DF93EC018B0172
:1011C00064307105A1F54FE050E06DE10E94A00888
:1011D0008934910509F4D0C04FE050E06EE1CE01B2
:1011E0000E94A0088934910509F4C9C040E250E08A
:1011F00069E1CE010E94A008019609F0C5C040E255
:1012000050E068E1CE010E94A008019611F480E050
:10121000C3C04FE050E06EE1CE010E94A00840E064
:1012200050E0CC9709F0B5C001E010E030C042308A
:10123000510569F563307105B9F44FE050E06DE197
:101240000E94A0088934910519F441E050E01FC0C4
:101250004FE050E06EE1CE010E94A0088934910574
:10126000B1F640E050E013C06230710580F440E216
:1012700050E069E10E94A008019639F740E250E091
:1012800068E1CE010E94A008019659F7C0CF1A8FDD
:10129000098F0130110569F124F4012B09F449C0CB
:1012A00069C00230110541F10330110509F062C037
:1012B0004130510511F48DE101C08EE18C8F8B8F8F
:1012C00088E090E09AA389A389E090E098A38F8FAB
:1012D0008AE090E09EA38DA38BE090E09CA38BA37B
:1012E0008CE090E09AA789A78DE090E098A78FA363
:1012F00041C04130510511F489E101C088E18B8F73
:101300008EE18C8F83E090E098A38F8F84E090E053
:101310009AA389A387E090E09CA38BA388E090E048
:101320009EA38DA385E090E098A78FA386E090E030
:101330001FC04130510511F489E101C088E18B8F54
:101340008EE18C8F83E090E098A38F8F84E090E013
:101350009AA389A385E090E09CA38BA386E090E00C
:101360009EA38DA387E090E098A78FA388E090E0EC
:101370009AA789A781E010C041E050E002C040E098
:1013800050E003E010E083CF41E050E002E010E0E5
:101390007ECF00E010E07BCFDF91CF911F910F91C6
:1013A0000895FC0160834183228313821482168294
:1013B00015821086178211860895FC018181813083
:1013C00011F462E001C060E080810E94221185E09A
:1013D00090E00C949B12FC012185211104C021E0B6
:1013E00021870C94DD090895CF93DF93EC01888168
:1013F0000E94911121E0892B09F020E081E09A817F
:10140000911180E08227DF91CF910895CF93DF93F0
:10141000EC010E94EB09CE01DF91CF910C94F4090D
:10142000CF93DF93EC010E94EB09CE010E94F409F7
:101430008111FBCF6AE070E080E090E00E947512BD
:10144000CE010E94F4098111F0CFDF91CF91089570
:10145000CF93DF93EC010E94EB09CE010E94F409C7
:101460008823D9F36AE070E080E090E00E94751272
:10147000CE010E94F409882381F3DF91CF91089572
:10148000CF93DF93EC010E94280ACE01DF91CF9128
:101490000C94100A90910F02E0910902F0910A0257
:1014A000992311F0849101C08081282F21542A3181
:1014B00010F4805E0895803269F420910902309121
:1014C0000A02A9014F5F5F4F50930A02409309023D
:1014D000232B11F708951F93CF93DF930E944A0A9D
:1014E000C0E0D0E01AE016C09E01129FE001139FF9
:1014F000D00D1124C80FD11D87FDDA95E09780919A
:10150000090290910A02019690930A0280930902BF
:101510000E944A0A982F90539A3030F3CE01DF91FF
:10152000CF911F9108950895109272001092C000FB
:1015300084E08093C10089E08093C20081E08093C1
:10154000C300EFEBF0E083E0808388EE8093D1006E
:1015500010821092D200579A789408952F923F9259
:101560004F925F926F927F928F929F92AF92BF92B3
:10157000CF92DF92EF92FF920F931F93CF93DF935F
:10158000CDB7DEB727970FB6F894DEBF0FBECDBF3D
:101590007C011B014D8380910B02811105C081E00C
:1015A00080930B020E94940A10920A01F7FE04C075
:1015B000E894F7F81AE001C011E088E2189F802D46
:1015C00011248E831F822E813F812E153F0510F43A
:1015D000FF82EE82113049F44E815F8141315742E2
:1015E00020F0E0E1F7E2FF83EE83812E912CA12C25
:1015F000B12C8E819F81969587959C0140E050E0AB
:1016000029833A834B835C834E815F812A01612C5D
:10161000712CA501940160E072E18AE790E00E94DC
:101620005A1929813A814B815C81620F731F841F93
:10163000951FA30192010E94C01969017A01EE244D
:10164000FF2400E021C00F5F20E032E14AE750E0D4
:10165000002E04C055954795379527950A94D2F7E3
:10166000C501B4010E945A1929813A814B815C81DC
:10167000620F731F841F951FA30192010E94C0195E
:1016800069017A01EE24FF24C11434E0D306E10499
:10169000F104C8F61A3049F48E819F8105966AE0FC
:1016A00070E00E9476197F836E834E815F81910185
:1016B000483E83E0580749F0DA010E94341928EEC9
:1016C00033E040E050E00E94C01910927200809117
:1016D000C1000F5F807F082B0093C100BB27AF2D97
:1016E0009E2D8D2D8093BF00C092D1004D81403141
:1016F00008F04FE080E190E0841B910904C0F6946B
:10170000E794D794C7948A95D2F78D2D9927809323
:10171000BF00C092D200309308022093070289B321
:101720008FEF89BB84E08093720027960FB6F89400
:10173000DEBF0FBECDBFDF91CF911F910F91FF9004
:10174000EF90DF90CF90BF90AF909F908F907F9061
:101750006F905F904F903F902F900895CF93DF93BD
:10176000EB018F3F11F0411105C040E0BE0188EE52
:1017700093E043C0813130F0582F5051503618F06B
:101780005FE501C050E0852F6CE00E946A19682F68
:1017900074EF760390011124250F311D2C30310593
:1017A00040F4F901EE0FFF1FEF5CFE4F2081318105
:1017B00002C020E030E0873081F0082E02C0220F06
:1017C000331F0A94E2F7823028F0C90105966AE0D7
:1017D00070E00CC0C90190580CC0C90136E0880FF8
:1017E000991F3A95E1F7029665E070E00E9476193C
:1017F000CB01403108F04FE0BE01DF91CF910C9456
:10180000AE0A4F925F926F927F928F929F92AF92A9
:10181000BF92CF92DF92EF92FF920F931F93CF93DD
:10182000DF9300D0CDB7DEB790900B0180910D0211
:10183000882369F060910E02662349F040E070E071
:1018400088EE93E00E94AE0A10920E0245C1B0EC01
:10185000AB2EBDE5BB2E1AE0712E6624639404E026
:10186000802E80EDC82E87E0D82E94E0E92EF12C52
:1018700004EF11E02FE0422E512C0E944A0A2091E1
:10188000090230910A022F5F3F4F30930A022093E2
:1018900009028636C9F1B4F4823609F4A6C074F49C
:1018A0008E3331F13CF4813209F480C08C3309F07D
:1018B00094C020C0813609F090C094C08436F1F005
:1018C00004F51AC08F3609F447C044F48C3611F180
:1018D0008D3661F1873609F080C019C0843709F46C
:1018E00044C0863709F45BC0823709F076C03AC03D
:1018F0009394C3CF9A94C1CF10E035C010E082E03A
:1019000076C010E084E073C010E085E070C010E0A5
:1019100087E06DC00E946B0ABC0190930D0180931B
:101920000C0180910E0190910F0132C00E944A0A71
:101930008C3619F410920D0204C060920D021092C0
:101940000E022091090230910A022F5F3F4F30931F
:101950000A022093090291CF0E946B0A982E80936D
:101960000B018BCF11E080E042C00E946B0ABC01EA
:10197000C5010E947619769EC001779E900D1124B4
:1019800090930F0180930E0160910C0170910D01F5
:101990000E94761970931101609310016ECF0E941E
:1019A0006B0A909313018093120167CF80920B0111
:1019B000D0920F01C0920E01F0920D01E0920C0145
:1019C00010931101009310015092130140921201E3
:1019D00010920D02A4E09A2E50CF10920A0210929B
:1019E00009027AC010E089E002C010E08BE0082F05
:1019F0009CE0999E000D11240E944A0A8B3209F442
:101A00005FC0833271F45CC02091090230910A02F8
:101A10002F5F3F4F30930A022093090201500E942A
:101A20004A0A8D3289F3609110017091110181533E
:101A3000883050F4E0900E01F0900F010E946B0A84
:101A4000BC01C7010E9476197B010CC020910902DC
:101A500030910A022F5F3F4F30930A022093090210
:101A60006E0D7F1DF694E79469837A830E944A0A7B
:101A700069817A818E3251F380910D02882339F089
:101A80009B013695279520930E02621B71094091A8
:101A9000120111110FEF802F0F900F90DF91CF9156
:101AA0001F910F91FF90EF90DF90CF90BF90AF907C
:101AB0009F908F907F906F905F904F900C94AE0BA3
:101AC0002091090230910A022F5F3F4F30930A02A2
:101AD000209309020F5F90CF0F900F90DF91CF916D
:101AE0001F910F91FF90EF90DF90CF90BF90AF903C
:101AF0009F908F907F906F905F904F9008951F926E
:101B00000F920FB60F9211242F933F934F935F9331
:101B10006F937F938F939F93AF93BF93EF93FF93B5
:101B200080910702909108029C0121503109309365
:101B3000080220930702892B11F510927200789405
:101B40008091C100807F84608093C10083E0809396
:101B5000BF0088EE8093D1001092BF001092D20097
:101B600081E080930A018091090290910A02892BF9
:101B700031F080910C02811102C00E94010CFF9192
:101B8000EF91BF91AF919F918F917F916F915F91F5
:101B90004F913F912F910F900FBE0F901F9018956E
:101BA00080910A01882331F08091090290910A0204
:101BB000892B49F481E02091090230910A02232BFC
:101BC00029F480E008950E94010CF4CF08958093D9
:101BD0000C02811102C00C94D00D08952091400296
:101BE00030E080914102281B3109C901089580919C
:101BF000410290914002891750F4E82FF0E0EE5B2B
:101C0000FD4F208130E08F5F8093410202C02FEFB3
:101C10003FEFC9010895E091410280914002E81729
:101C200030F4F0E0EE5BFD4F208130E002C02FEF9A
:101C30003FEFC90108950895CF92DF92EF92FF928E
:101C40000F931F93CF93DF937C01CB018A012091E7
:101C50001C02222391F0EB016B01C40ED51E09C0BA
:101C60006991D701ED91FC910190F081E02DC701C0
:101C70000995CC15DD05A1F703C0642F0E947E0FE6
:101C8000C801DF91CF911F910F91FF90EF90DF90EE
:101C9000CF900895CF93DF931F92CDB7DEB76983BE
:101CA00020911C022223D1F020911D02203240F00D
:101CB00021E030E0FC013383228320E030E015C0D6
:101CC00080911E02E82FF0E0E15EFD4F9981908344
:101CD0008F5F80931E0280931D0205C061E0CE01DC
:101CE00001960E947E0F21E030E0C9010F90DF9144
:101CF000CF910895FC011382128248EE53E060E018
:101D000070E044835583668377838DE491E091830B
:101D100080830895109241021092400210921E0298
:101D200010921D020C94C80E862F413208F040E23A
:101D300062E472E00E94E60E10924102809340023B
:101D4000089521E00C94940E81E080931C0260932E
:101D50003F0210921E0210921D0208950F93062F4B
:101D600021E040911D026FE172E080913F020E94EC
:101D70002B0F10921E0210921D0210921C020F9146
:101D8000089561E00C94AE0E80E192E00C947A0E1E
:101D900010926B0281E0809369021092680261E008
:101DA00082E00E945A1161E083E00E945A11E9EB3F
:101DB000F0E080818E7F808380818D7F808388E4C6
:101DC0008093B80085E48093BC000895413208F008
:101DD0003FC090916B029111FCCF91E090936B0208
:101DE000209369022FEF2093620210926702242F42
:101DF00021502093660290936A0290916A02880FA4
:101E0000892B80936A0280916802813041F410929C
:101E1000680280916A028093BB0085EC01C085EE68
:101E20008093BC0080916B028130E1F38091670266
:101E3000841710F4409167022CE632E0FB01D901CF
:101E400002C08D9181938A2F821B8417D0F301C029
:101E500040E0842F08950F93413208F046C09091DE
:101E60006B029111FCCF92E090936B020093690298
:101E70009FEF909362021092670240936602FB010B
:101E80006CE672E0DB0102C091919D939A2F961B44
:101E90009417D0F310926A0290916A02880F892BEE
:101EA00080936A0280916802813041F41092680246
:101EB00080916A028093BB0085EC01C085EE80931F
:101EC000BC00222321F080916B028230E1F38091EB
:101ED00062028F3F61F080916202803251F0809106
:101EE0006202803341F483E007C081E005C080E0F6
:101EF00003C082E001C084E00F910895613298F43C
:101F000020916B02243089F460936402FC018CE818
:101F100092E0DC0102C021912D932A2F281B261765
:101F2000D0F380E0089581E0089582E0089585ED82
:101F30008093BC008091BC0084FDFCCF10926B02AA
:101F4000089585EC8093BC0010926B0208951F9257
:101F50000F920FB60F9211242F933F934F935F93DD
:101F60006F937F938F939F93AF93BF93EF93FF9361
:101F70008091B900887F803609F49FC058F5883277
:101F800009F45BC090F4803109F452C038F488231E
:101F900009F4F8C0883009F0F9C04AC0883109F462
:101FA0004CC0803209F0F2C05CC0803409F46BC0D0
:101FB00038F4803309F455C0883309F0E7C054C0C1
:101FC000803509F454C0883509F462C0883409F0BA
:101FD000DDC0DAC0883909F4CBC0A8F4883709F429
:101FE0006CC038F4883609F468C0803709F0CEC078
:101FF00064C0883809F4BCC0803909F464C08038F2
:1020000009F0C4C060C0803B09F48AC038F4803A4B
:1020100009F46BC0883A09F0B9C082C0803C09F469
:10202000ABC0883C09F4A8C0883B09F0AFC08DC0A4
:1020300080916A028093BB0012C0909167028091E8
:102040006602981788F580916702E82FF0E0E4595E
:10205000FD4F90819093BB008F5F8093670285EC6A
:1020600088C08093620290C08093620256C08091C3
:1020700067029091BB00E82FF0E0E459FD4F908398
:102080008F5F8093670290916702809166026DC0B6
:10209000809167029091BB00E82FF0E0E459FD4F7A
:1020A00090838F5F809367028091690281116CC079
:1020B00081E08093680284EA60C083E080936B02D1
:1020C00010926302CCCF80916302803208F050C03E
:1020D000809163029091BB00E82FF0E0E055FD4F46
:1020E00090838F5F80936302BACF809163028032C6
:1020F00030F4E0916302F0E0E055FD4F10820E9461
:10210000970F60916302E091AC02F091AD0270E034
:1021100080EB92E00995109263020E94A10F36C0F5
:1021200084E080936B021092650210926402E09149
:10213000AE02F091AF02099580916402811105C051
:1021400081E08093640210928C0280916502E82FF6
:10215000F0E0E457FD4F90819093BB008F5F809338
:1021600065029091650280916402981708F477CF18
:1021700085E88093BC000AC085EC8093BC00109277
:102180006B0204C0109262020E94970FFF91EF91C0
:10219000BF91AF919F918F917F916F915F914F917F
:1021A0003F912F910F900FBE0F901F901895883080
:1021B00059F160F4823021F120F4813009F041C0FE
:1021C0001CC0833081F08430E1F511C08B3051F1B7
:1021D00028F48930E9F08A30A1F51EC08C3031F145
:1021E0008E3079F529C0809180008F7703C080916F
:1021F00080008F7D80938000089584B58F7702C022
:1022000084B58F7D84BD0895809190008F7707C03D
:10221000809190008F7D03C080919000877F809394
:10222000900008958091C0008F7703C08091C00016
:102230008F7D8093C00008958091C200877F809336
:10224000C2000895CF93DF9390E0FC01EA52FF4F64
:102250004491FC01EC50FF4F8491882341F190E0C0
:10226000880F991FFC01E25DFE4F25913491D90141
:10227000805E9E4FFC0185919491C82FD92F9FB706
:10228000F8948C91611106C0409584238C938881C9
:10229000842308C0623041F4242F209582238C933C
:1022A0008881842B888302C0842B8C939FBFDF910D
:1022B000CF9108950F931F93CF93DF931F92CDB7C4
:1022C000DEB7282F30E0F901E854FF4F8491F9017F
:1022D000EA52FF4F1491F901EC50FF4F0491002393
:1022E000D1F0882321F069830E94D7106981E02F03
:1022F000F0E0EE0FFF1FE05EFE4F85919491DC0150
:102300009FB7F8948C91611103C01095812301C08F
:10231000812B8C939FBF0F90DF91CF911F910F91D5
:102320000895CF93DF93282F30E0F901E854FF4F51
:102330008491F901EA52FF4FD491F901EC50FF4F1B
:10234000C491CC2389F081110E94D710EC2FF0E0CA
:10235000EE0FFF1FEE5EFE4F85919491DC018C9194
:102360008D2321E030E011F420E030E0C901DF915D
:10237000CF910895823108F08251E82FF0E0E455C2
:10238000FF4FE49180917B00E3FB222720F930E0AE
:1023900095E0220F331F9A95E1F78F7D822B809372
:1023A0007B00E7708091140120E4829FC00111241A
:1023B000E82BE0937C0080917A00806480937A001F
:1023C00080917A0086FDFCCF2091780030917900D1
:1023D000932F80E0AC01422B9A01C90108951F920E
:1023E0000F920FB60F9211242F933F938F939F93C9
:1023F000AF93BF938091D0029091D102A091D2026D
:10240000B091D3023091D802232F2D5F2D3720F4C5
:102410000196A11DB11D05C0232F2A570296A11DAB
:10242000B11D2093D8028093D0029093D102A09343
:10243000D202B093D3028091D4029091D502A091A0
:10244000D602B091D7020196A11DB11D8093D4028E
:102450009093D502A093D602B093D702BF91AF91CB
:102460009F918F913F912F910F900FBE0F901F90D2
:1024700018950F931F938FB7F8940091D002109185
:10248000D1022091D2023091D3028FBFB801C9018D
:102490001F910F9108950F931F939FB7F894009188
:1024A000D4021091D5022091D6023091D70286B580
:1024B000A89B06C08F3F21F00F5F1F4F2F4F3F4F4C
:1024C0009FBF322F212F102F0027080F111D211D14
:1024D000311D42E0000F111F221F331F4A95D1F713
:1024E000B801C9011F910F910895CF92DF92EF9229
:1024F000FF92CF93DF936B017C010E944B12EB01A3
:102500000EC00E944B126C1B7D0B683E734038F06E
:1025100081E0C81AD108E108F108C851DC4FC114A4
:10252000D104E104F10469F7DF91CF91FF90EF90BE
:10253000DF90CF900895019739F0880F991F880F89
:10254000991F02970197F1F70895789484B58260F6
:1025500084BD84B5816084BD85B5826085BD85B547
:10256000816085BDEEE6F0E0808181608083E1E8F6
:10257000F0E010828081826080838081816080832E
:10258000E0E8F0E0808181608083E1E9F0E0808133
:1025900082608083808181608083E0E9F0E08081D7
:1025A00081608083E1ECF0E08081846080838081C1
:1025B00082608083808181608083E3ECF0E08081B1
:1025C00081608083E0ECF0E0808182608083E2ECD7
:1025D000F0E0808181608083EAE7F0E080818460C0
:1025E000808380818260808380818160808380811C
:1025F000806880830895009729F0BC0180E090E016
:102600000C946E1B08950F931F93CF93DF9300D00C
:1026100000D0CDB7DEB79B01AC0161157105810516
:10262000910579F069833A834B835C830E94691B2F
:1026300029813A814B815C810E94C0198B019C01E8
:1026400003C000E010E09801B801C9010F900F909D
:102650000F900F90DF91CF911F910F9108952091CE
:102660002703309128038091290390912A03281B86
:10267000390B2F733327C901089520912703309117
:1026800028038091290390912A032817390749F0DC
:10269000E0912903F0912A03E951FD4F208130E0B8
:1026A00002C02FEF3FEFC901089520912703309119
:1026B00028038091290390912A0328173907B1F044
:1026C000E0912903F0912A03E951FD4F8081209187
:1026D000290330912A032F5F3F4F2F733327309305
:1026E0002A0320932903282F30E002C02FEF3FEF69
:1026F000C90108950F931F93CF93DF931F92CDB716
:10270000DEB78C01698380911C01882369F041E068
:1027100050E0BE016F5F7F4F83E00E941D151816C9
:10272000190614F49C0107C081E090E0F80193833E
:10273000828320E030E0C9010F90DF91CF911F919B
:102740000F91089583E00C946117CF93DF9312C02B
:1027500082E00E94EB148F3F2FEF9207C9F0E091C7
:102760002703F0912803E951FD4F8083D09328037C
:10277000C0932703C0912703D09128032196CF73DC
:10278000DD278091290390912A03C817D90701F703
:10279000DF91CF910895FC0120812E5F208342E4D8
:1027A00050E06CE371E080E80C94B815FC01818185
:1027B0009081913A59F4813209F04BC047E050E0E2
:1027C00065E171E080E00E94B81545C0913209F0E2
:1027D00040C0803239F467E070E085E191E00E940A
:1027E0000B1639C0823209F034C0828180931C01FB
:1027F0008091150190911601A0911701B0911801D7
:10280000803B9440A105B10531F580911C0180FD0C
:1028100012C087E797E790930108809300082BE0A8
:1028200088E190E00FB6F894A895809360000FBE01
:102830002093600010C088E10FB6F8948093600088
:10284000109260000FBEA895109201081092000827
:1028500002C080E0089581E008951092DC02109299
:10286000DB0288EE93E0A0E0B0E08093DD0290937D
:10287000DE02A093DF02B093E0028DE591E0909339
:10288000DA028093D9020895CF92DF92EF92FF92FD
:102890000F931F93CF93DF936C01EB017A01E60E48
:1028A000F71E00E010E00BC06991D601ED91FC919C
:1028B0000190F081E02DC6010995080F191FCE1572
:1028C000DF0591F7C801DF91CF911F910F91FF9024
:1028D000EF90DF90CF9008950E94A5128BE293E0D5
:1028E0000E94CA170E942F03C0E0D0E00E945E043D
:1028F0002097E1F30E940000F9CF05C02091F1007C
:10290000FC012193CF016150C8F7289884E6809399
:10291000320308952FB7FC012083F8946770609309
:10292000E9000895CF93DF931F92CDB7DEB7682FEC
:10293000CE0101960E948A148091F20099819FBF76
:102940000F90DF91CF910895FF920F931F93CF9334
:10295000DF9300D0CDB7DEB7F62E8A019091310318
:102960009923A9F057FF16C012C02898809332030C
:102970009091F1009193FE12F8CF4115510521F08D
:102980008091F2008823D1F089818FBF1BC04FEF67
:102990005FEF18C0682FCE0101967A830E948A14D7
:1029A0008091F20090E0A8017A81801791070CF4E1
:1029B000AC01EF2DF72FF40E84E6DDCF8BE680938C
:1029C000E800E2CFCA010F900F90DF91CF911F91E5
:1029D0000F91FF900895CF93DF931F92CDB7DEB78D
:1029E00041E050E0BE016F5F7F4F0E94A414019749
:1029F00019F4298130E002C02FEF3FEFC9010F9099
:102A0000DF91CF910895CF93DF931F92CDB7DEB7BB
:102A1000682FCE0101960E948A148091E80085FFFC
:102A200005C09091F20080E4891B01C080E099818B
:102A30009FBF0F90DF91CF9108956F927F928F92F9
:102A40009F92AF92BF92CF92DF92EF92FF920F933D
:102A50001F93CF93DF931F92CDB7DEB7782EC42E8E
:102A6000B52E8091310381114CC02FEF3FEF64C030
:102A7000872D0E940315682E811109C0DA94A9F3ED
:102A800061E070E080E090E00E94751247C0282F5E
:102A900030E0021713070CF4602E06191109672D98
:102AA000CE0101960E948A14992041F002C0109232
:102AB000F1006A948FEF6812FACF17C0862D77FC69
:102AC00002C0F7010EC0970106C0F9012F5F3F4F0A
:102AD000E491E093F1008150C0F705C0919190938B
:102AE000F1008150D8F7E60CF11C8091E80085FFD9
:102AF00020C00115110511F481101BC089818FBF01
:102B00000DC07B01042F152F8AEFD82E90E2992E4D
:102B100097202AE3A22E30E4832E87200115110589
:102B200009F0A6CF5D9884E6809333032C2D3B2DCE
:102B300003C0A092E800E2CFC9010F90DF91CF91CE
:102B40001F910F91FF90EF90DF90CF90BF90AF90CB
:102B50009F908F907F906F9008951092E90010924F
:102B6000300310922F0390932E0380932D0308952A
:102B7000FF920F931F93CF93DF93C42FD52FDB01C9
:102B800060E070E0EEEFFE2E38C09D012F5F3F4FFA
:102B900087FF04C0FD01D901E49102C0EC91D90185
:102BA00000912F031091300320912D0330912E03BB
:102BB00002171307B4F49091E8009570E1F3909137
:102BC000E80092FD1FC0E093F10020912F033091A7
:102BD00030032F5F3F4F2F733327232B11F4F092D5
:102BE000E80020912F03309130032F5F3F4F309347
:102BF000300320932F036F5F7F4F6C177D0729F6FB
:102C00009A0102C02FEF3FEFC901DF91CF911F91D1
:102C10000F91FF9008951F93CF93DF931F92CDB72D
:102C2000DEB7162F2091E80022FFFCCF612F7983B9
:102C30000E947D148BEF8093E800812F7981972F7C
:102C40000F90DF91CF911F910895CF93DF931F9243
:102C5000CDB7DEB71982CE0101960E94CB13CE010B
:102C600001960E940718898190E00F90DF91CF9123
:102C700008951F920F920FB60F921124EF92FF92B8
:102C80000F931F932F933F934F935F936F937F9374
:102C90008F939F93AF93BF93EF93FF93CF93DF9364
:102CA000CDB7DEB76297DEBFCDBF1092E90080914D
:102CB000E80083FFE9C068E0CE010A960E947D1417
:102CC00082EF8093E8009A8597FF05C08091E80025
:102CD00080FFFCCF03C08EEF8093E800892F8076C1
:102CE00009F0B7C08B85811105C01092F1001092D8
:102CF000F100C3C0813009F4C0C0833009F4BDC005
:102D0000853049F48091E80080FFFCCF8C85806895
:102D10008093E300B2C0863009F073C02D85E88847
:102D2000F988223071F580E090E02A8B0E94AD1581
:102D30000E94251699E08E010F5F1F4FF801392F71
:102D400011923A95E9F799832A892A8391E09E8323
:102D500090E898879AEF998720912F03309130035C
:102D6000275F3F4F3C832B838D83C7010E94AD15A6
:102D700049E050E0B80180E00E94B8150E94251695
:102D80007CC0C7012A8B0E94AD152A89223241F4EA
:102D900082E290E00E941218892B09F06EC071C087
:102DA000213071F488899989089719F481E080931A
:102DB0002C0380912C03882389F063E871E016C00E
:102DC000233009F05EC08C85882359F0823061F091
:102DD000813009F056C067EA71E008C065E971E02A
:102DE00005C061EE71E002C06FEB71E06115710525
:102DF00009F447C0FB01449150E080E80E94B815F7
:102E00003CC0873009F43DC0883021F481E08093D4
:102E1000F10033C0893089F5937099F5EFE7F1E05F
:102E200081E021E096E38093E9002093EB00349168
:102E30003093EC009093ED008F5F3196853099F7D9
:102E40008EE78093EA001092EA008C85809331032C
:102E500014C0888999890E94AD158E85811105C09D
:102E6000CE010A960E94D61306C0823051F4CE01DC
:102E70000A960E943A18882321F08EEF8093E8008A
:102E800003C081E28093EB0062960FB6F894DEBF38
:102E90000FBECDBFDF91CF91FF91EF91BF91AF9169
:102EA0009F918F917F916F915F914F913F912F9162
:102EB0001F910F91FF90EF900F900FBE0F901F90FA
:102EC00018958093E9008091F200882319F08AE335
:102ED0008093E80008951F920F920FB60F9211246D
:102EE0002F933F934F935F936F937F938F939F9312
:102EF000AF93BF93EF93FF938091E1001092E100B5
:102F000083FF0FC01092E90091E09093EB001092C4
:102F1000EC0092E39093ED001092310398E09093CF
:102F2000F00082FF26C083E00E94611782E00E94C9
:102F30009214882321F089ED92E00E94A5138091DC
:102F40003303882339F08091330381508093330316
:102F5000882361F080913203882359F080913203F5
:102F6000815080933203882319F003C05D9AF2CF19
:102F7000289AFF91EF91BF91AF919F918F917F918F
:102F80006F915F914F913F912F910F900FBE0F90D6
:102F90001F9018951092310381E08093D70080EA4A
:102FA0008093D80082E189BD09B400FEFDCF61E0C5
:102FB00070E080E090E00E94751280E98093D80074
:102FC0008CE08093E2001092E000559A209A0895D8
:102FD000FF920F931F93CF93DF93EC01F62EE881BE
:102FE000F9810480F581E02D09958C01E881F98152
:102FF0000680F781E02D6F2DCE01099598013327CA
:10300000C901DF91CF911F910F91FF900895FC01AD
:1030100020812F5F208349E150E065E672E080E87F
:103020000C94B81545E650E06EE772E080E80C9429
:10303000B815EF92FF920F931F93CF93DF931F92D8
:10304000CDB7DEB789838B017A0141E050E0BE0144
:103050006F5F7F4F84E00E941D15A701B80184E4D3
:103060000E941D150F90DF91CF911F910F91FF903E
:10307000EF900895FC0191818081813A31F481E0E3
:10308000913091F0933091F010C0813271F49B3007
:1030900021F4828180931E0105C09A3031F482812F
:1030A00080931D0181E00895089580E0089548E02F
:1030B00050E082E00C941918FC01168217821086E9
:1030C0001186128613861482BC016C5F7F4F0C94AC
:1030D0005718E62F683810F0E85824C0F0E067FF72
:1030E00012C0E058F10921E030E001C0220FEA955A
:1030F000EAF72095DC0114963C911497322314963C
:103100003C93E0E00FC0EB51FE4FE491EE2329F138
:10311000E7FF08C0DC0114962C9114972D7F1496BC
:103120002C93EF7720E030E0EE2351F0DC01A20F8A
:10313000B31F16964C9116974E1302C016961C920A
:103140002F5F3F4F2630310579F7BC016C5F7F4F11
:103150000E94571821E030E002C020E030E0C901B1
:103160000895CF93DF93DC01E62F683810F0E8581C
:1031700024C0F0E067FF11C0E058F10981E090E061
:1031800001C0880FEA95EAF714969C911497982B42
:1031900014969C931497E0E010C0EB51FE4FE4911D
:1031A000E11101C040C0E7FF08C014968C9114974C
:1031B000826014968C931497EF7716968C911697DD
:1031C0008E1741F117968C9117978E1719F1189653
:1031D0008C9118978E17F1F019968C9119978E177C
:1031E000C9F01A968C911A978E17A1F01B968C91A4
:1031F0001B978E1779F080E090E0ED01C80FD91F82
:103200002E81211102C0EE8305C001968630910502
:10321000A1F709C0BD016C5F7F4FCD010E94571817
:1032200021E030E008C081E090E013969C938E93FB
:10323000129720E030E0C901DF91CF9108951092FC
:10324000400310923703109236038FE691E090937B
:1032500035038093340308950E943419332312F404
:103260008A1B9B0B0C944219A29FB001B39FC00113
:10327000A39F01D0B29F700D811D1124911D08954F
:103280000E943419B7FF0895821B930B08950E9482
:103290003419A59F900DB49F900DA49F800D911D92
:1032A00011240895B7FF0C9447190E944719821BF7
:1032B000930B0895DB018F939F930E944719BF9151
:1032C000AF91A29F800D911DA39F900DB29F900D75
:1032D00011240895991B79E004C0991F961708F0EE
:1032E000961B881F7A95C9F780950895AA1BBB1B6A
:1032F00051E107C0AA1FBB1FA617B70710F0A61BF6
:10330000B70B881F991F5A95A9F780959095BC0116
:10331000CD01089597FB072E16F4009407D077FD92
:1033200009D00E94761907FC05D03EF4909581954E
:103330009F4F0895709561957F4F0895A1E21A2ED1
:10334000AA1BBB1BFD010DC0AA1FBB1FEE1FFF1F49
:10335000A217B307E407F50720F0A21BB30BE40B99
:10336000F50B661F771F881F991F1A9469F76095E0
:103370007095809590959B01AC01BD01CF0108959A
:10338000052E97FB16F4009407D057FD0DD00E9430
:103390009E1907FC09D07EF49095809570956195F3
:1033A0007F4F8F4F9F4F08955095409530952195B1
:1033B0003F4F4F4F5F4F0895EE0FFF1F0590F49161
:1033C000E02D09940F931F93CF93DF9382309105E3
:1033D00010F482E090E0E0914303F091440320E098
:1033E00030E0C0E0D0E023C0408151814817590748
:1033F000A8F04817590761F482819381209719F04A
:103400009B838A832EC0909344038093430329C0F7
:103410002115310529F04217530710F0A90102C008
:10342000BE01DF0102811381EF019A01F80130979B
:10343000D9F62115310509F1281B390B2430310546
:1034400090F412968D919C9113976115710521F05E
:10345000FB019383828304C09093440380934303CE
:10346000FD01329644C0FD01E20FF31F8193919359
:10347000225031092D933C933AC020914103309161
:103480004203232B41F42091020130910301309338
:103490004203209341032091000130910101211545
:1034A000310541F42DB73EB740910401509105011B
:1034B000241B350BE0914103F0914203E217F3071F
:1034C000A0F42E1B3F0B2817390778F0AC014E5F94
:1034D0005F4F2417350748F04E0F5F1F509342038C
:1034E000409341038193919302C0E0E0F0E0CF016B
:1034F000DF91CF911F910F910895EF92FF920F935B
:103500001F93CF93DF93009709F48EC0DC011297CD
:1035100013961C921E921297E0904303F09044037E
:10352000E114F10489F42D913C911197280F391F72
:1035300080914103909142038217930789F5B093DC
:103540004203A093410370C0E70120E030E001C0D6
:10355000EA01CA17DB0738F44A815B819E014115F5
:103560005105B1F722C0AC0142505109FA01D38391
:10357000C28300811181BC01600F711F6C177D0730
:1035800061F468817981600F711F6E5F7F4F718375
:1035900060836A817B81738362832115310529F4FD
:1035A000B0934403A09343033FC0F901B383A283C4
:1035B000E90149915991C40FD51FAC17BD0771F4AA
:1035C000DC019E918E91840F951F029691838083DA
:1035D00012968D919C91139793838283A0E0B0E023
:1035E00002C0D7017C01F701828193810097C9F75E
:1035F000C701029620813181820F931F20914103E0
:10360000309142032817390779F4109729F4109262
:1036100044031092430304C013961C921E92129707
:10362000F0924203E0924103CDB7DEB7E6E00C949E
:10363000831B8F929F92AF92BF92CF92DF92EF92B5
:10364000FF92CF93DF93EC01688179818A819B811E
:10365000611571058105910521F464E279ED8BE531
:1036600097E02DE133EF41E050E00E94C01949019D
:103670005A019B01AC01A7EAB1E40E9447196B0112
:103680007C01ACEEB4EFA50194010E945519C60E61
:10369000D71EE81EF91EF7FE06C081E0C81AD10841
:1036A000E10880E8F80AC882D982EA82FB82E894BD
:1036B000F7F8B601C701DF91CF91FF90EF90DF904F
:1036C000CF90BF90AF909F908F9008950E94191B4C
:1036D000089586E091E00E94191B08956093060109
:1036E00070930701809308019093090108952A8837
:1036F000398848885F846E847D848C849B84AA8406
:10370000B984C884DF80EE80FD800C811B81AA8192
:10371000B981CE0FD11D0FB6F894DEBF0FBECDBF5D
:10372000ED01089512E0CCEED2E004C0FE010E944B
:0E373000DE192296CE3ED107C9F7F894FFCFDE
:10373E000000450320000100000001040400D00732
:10374E00F4010F000100E10000000000000101047F
:10375E00150B121405018001800180FF7FFF7FFF92
:10376E007F9C01B501CF01EA0107022602470269DB
:10377E00028E02B502DE020A03000000004A0E1C91
:10378E000EEE0DF70D0B0E1B0E000000007A13440B
:10379E00142F1355133D13A213A51300000000E8B8
:0A37AE00174414B11869185C1800E4
:00000001FF
